{
  "contractName": "ComposableToken",
  "abi": [
    {
      "inputs": [
        {
          "internalType": "string",
          "name": "name",
          "type": "string"
        },
        {
          "internalType": "string",
          "name": "symbol",
          "type": "string"
        },
        {
          "internalType": "string",
          "name": "baseURI",
          "type": "string"
        }
      ],
      "stateMutability": "nonpayable",
      "type": "constructor"
    },
    {
      "anonymous": false,
      "inputs": [
        {
          "indexed": true,
          "internalType": "address",
          "name": "owner",
          "type": "address"
        },
        {
          "indexed": true,
          "internalType": "address",
          "name": "approved",
          "type": "address"
        },
        {
          "indexed": true,
          "internalType": "uint256",
          "name": "tokenId",
          "type": "uint256"
        }
      ],
      "name": "Approval",
      "type": "event"
    },
    {
      "anonymous": false,
      "inputs": [
        {
          "indexed": true,
          "internalType": "address",
          "name": "owner",
          "type": "address"
        },
        {
          "indexed": true,
          "internalType": "address",
          "name": "operator",
          "type": "address"
        },
        {
          "indexed": false,
          "internalType": "bool",
          "name": "approved",
          "type": "bool"
        }
      ],
      "name": "ApprovalForAll",
      "type": "event"
    },
    {
      "anonymous": false,
      "inputs": [
        {
          "indexed": true,
          "internalType": "address",
          "name": "_from",
          "type": "address"
        },
        {
          "indexed": true,
          "internalType": "uint256",
          "name": "_tokenId",
          "type": "uint256"
        },
        {
          "indexed": true,
          "internalType": "address",
          "name": "_childContract",
          "type": "address"
        },
        {
          "indexed": false,
          "internalType": "uint256",
          "name": "_childTokenId",
          "type": "uint256"
        }
      ],
      "name": "ReceivedChild",
      "type": "event"
    },
    {
      "anonymous": false,
      "inputs": [
        {
          "indexed": true,
          "internalType": "address",
          "name": "_from",
          "type": "address"
        },
        {
          "indexed": true,
          "internalType": "uint256",
          "name": "_tokenId",
          "type": "uint256"
        },
        {
          "indexed": true,
          "internalType": "address",
          "name": "_erc20Contract",
          "type": "address"
        },
        {
          "indexed": false,
          "internalType": "uint256",
          "name": "_value",
          "type": "uint256"
        }
      ],
      "name": "ReceivedERC20",
      "type": "event"
    },
    {
      "anonymous": false,
      "inputs": [
        {
          "indexed": true,
          "internalType": "address",
          "name": "from",
          "type": "address"
        },
        {
          "indexed": true,
          "internalType": "address",
          "name": "to",
          "type": "address"
        },
        {
          "indexed": true,
          "internalType": "uint256",
          "name": "tokenId",
          "type": "uint256"
        }
      ],
      "name": "Transfer",
      "type": "event"
    },
    {
      "anonymous": false,
      "inputs": [
        {
          "indexed": true,
          "internalType": "uint256",
          "name": "tokenId",
          "type": "uint256"
        },
        {
          "indexed": true,
          "internalType": "address",
          "name": "_to",
          "type": "address"
        },
        {
          "indexed": true,
          "internalType": "address",
          "name": "_childContract",
          "type": "address"
        },
        {
          "indexed": false,
          "internalType": "uint256",
          "name": "_childTokenId",
          "type": "uint256"
        }
      ],
      "name": "TransferChild",
      "type": "event"
    },
    {
      "anonymous": false,
      "inputs": [
        {
          "indexed": true,
          "internalType": "uint256",
          "name": "_tokenId",
          "type": "uint256"
        },
        {
          "indexed": true,
          "internalType": "address",
          "name": "_to",
          "type": "address"
        },
        {
          "indexed": true,
          "internalType": "address",
          "name": "_erc20Contract",
          "type": "address"
        },
        {
          "indexed": false,
          "internalType": "uint256",
          "name": "_value",
          "type": "uint256"
        }
      ],
      "name": "TransferERC20",
      "type": "event"
    },
    {
      "inputs": [],
      "name": "baseURI",
      "outputs": [
        {
          "internalType": "string",
          "name": "",
          "type": "string"
        }
      ],
      "stateMutability": "view",
      "type": "function"
    },
    {
      "inputs": [],
      "name": "name",
      "outputs": [
        {
          "internalType": "string",
          "name": "",
          "type": "string"
        }
      ],
      "stateMutability": "view",
      "type": "function"
    },
    {
      "inputs": [
        {
          "internalType": "address",
          "name": "from",
          "type": "address"
        },
        {
          "internalType": "address",
          "name": "to",
          "type": "address"
        },
        {
          "internalType": "uint256",
          "name": "tokenId",
          "type": "uint256"
        }
      ],
      "name": "safeTransferFrom",
      "outputs": [],
      "stateMutability": "nonpayable",
      "type": "function"
    },
    {
      "inputs": [
        {
          "internalType": "address",
          "name": "from",
          "type": "address"
        },
        {
          "internalType": "address",
          "name": "to",
          "type": "address"
        },
        {
          "internalType": "uint256",
          "name": "tokenId",
          "type": "uint256"
        },
        {
          "internalType": "bytes",
          "name": "_data",
          "type": "bytes"
        }
      ],
      "name": "safeTransferFrom",
      "outputs": [],
      "stateMutability": "nonpayable",
      "type": "function"
    },
    {
      "inputs": [
        {
          "internalType": "bytes4",
          "name": "interfaceId",
          "type": "bytes4"
        }
      ],
      "name": "supportsInterface",
      "outputs": [
        {
          "internalType": "bool",
          "name": "",
          "type": "bool"
        }
      ],
      "stateMutability": "view",
      "type": "function"
    },
    {
      "inputs": [],
      "name": "symbol",
      "outputs": [
        {
          "internalType": "string",
          "name": "",
          "type": "string"
        }
      ],
      "stateMutability": "view",
      "type": "function"
    },
    {
      "inputs": [
        {
          "internalType": "uint256",
          "name": "index",
          "type": "uint256"
        }
      ],
      "name": "tokenByIndex",
      "outputs": [
        {
          "internalType": "uint256",
          "name": "",
          "type": "uint256"
        }
      ],
      "stateMutability": "view",
      "type": "function"
    },
    {
      "inputs": [
        {
          "internalType": "address",
          "name": "owner",
          "type": "address"
        },
        {
          "internalType": "uint256",
          "name": "index",
          "type": "uint256"
        }
      ],
      "name": "tokenOfOwnerByIndex",
      "outputs": [
        {
          "internalType": "uint256",
          "name": "",
          "type": "uint256"
        }
      ],
      "stateMutability": "view",
      "type": "function"
    },
    {
      "inputs": [
        {
          "internalType": "uint256",
          "name": "tokenId",
          "type": "uint256"
        }
      ],
      "name": "tokenURI",
      "outputs": [
        {
          "internalType": "string",
          "name": "",
          "type": "string"
        }
      ],
      "stateMutability": "view",
      "type": "function"
    },
    {
      "inputs": [],
      "name": "totalSupply",
      "outputs": [
        {
          "internalType": "uint256",
          "name": "",
          "type": "uint256"
        }
      ],
      "stateMutability": "view",
      "type": "function"
    },
    {
      "inputs": [
        {
          "internalType": "address",
          "name": "_to",
          "type": "address"
        }
      ],
      "name": "mint",
      "outputs": [
        {
          "internalType": "uint256",
          "name": "",
          "type": "uint256"
        }
      ],
      "stateMutability": "nonpayable",
      "type": "function"
    },
    {
      "inputs": [
        {
          "internalType": "uint256",
          "name": "_tokenId",
          "type": "uint256"
        }
      ],
      "name": "rootOwnerOf",
      "outputs": [
        {
          "internalType": "bytes32",
          "name": "rootOwner",
          "type": "bytes32"
        }
      ],
      "stateMutability": "view",
      "type": "function"
    },
    {
      "inputs": [
        {
          "internalType": "address",
          "name": "_childContract",
          "type": "address"
        },
        {
          "internalType": "uint256",
          "name": "_childTokenId",
          "type": "uint256"
        }
      ],
      "name": "rootOwnerOfChild",
      "outputs": [
        {
          "internalType": "bytes32",
          "name": "rootOwner",
          "type": "bytes32"
        }
      ],
      "stateMutability": "view",
      "type": "function"
    },
    {
      "inputs": [
        {
          "internalType": "uint256",
          "name": "_tokenId",
          "type": "uint256"
        }
      ],
      "name": "ownerOf",
      "outputs": [
        {
          "internalType": "address",
          "name": "tokenOwner",
          "type": "address"
        }
      ],
      "stateMutability": "view",
      "type": "function"
    },
    {
      "inputs": [
        {
          "internalType": "address",
          "name": "_tokenOwner",
          "type": "address"
        }
      ],
      "name": "balanceOf",
      "outputs": [
        {
          "internalType": "uint256",
          "name": "",
          "type": "uint256"
        }
      ],
      "stateMutability": "view",
      "type": "function"
    },
    {
      "inputs": [
        {
          "internalType": "address",
          "name": "_approved",
          "type": "address"
        },
        {
          "internalType": "uint256",
          "name": "_tokenId",
          "type": "uint256"
        }
      ],
      "name": "approve",
      "outputs": [],
      "stateMutability": "nonpayable",
      "type": "function"
    },
    {
      "inputs": [
        {
          "internalType": "uint256",
          "name": "_tokenId",
          "type": "uint256"
        }
      ],
      "name": "getApproved",
      "outputs": [
        {
          "internalType": "address",
          "name": "",
          "type": "address"
        }
      ],
      "stateMutability": "view",
      "type": "function"
    },
    {
      "inputs": [
        {
          "internalType": "address",
          "name": "_operator",
          "type": "address"
        },
        {
          "internalType": "bool",
          "name": "_approved",
          "type": "bool"
        }
      ],
      "name": "setApprovalForAll",
      "outputs": [],
      "stateMutability": "nonpayable",
      "type": "function"
    },
    {
      "inputs": [
        {
          "internalType": "address",
          "name": "_owner",
          "type": "address"
        },
        {
          "internalType": "address",
          "name": "_operator",
          "type": "address"
        }
      ],
      "name": "isApprovedForAll",
      "outputs": [
        {
          "internalType": "bool",
          "name": "",
          "type": "bool"
        }
      ],
      "stateMutability": "view",
      "type": "function"
    },
    {
      "inputs": [
        {
          "internalType": "address",
          "name": "_from",
          "type": "address"
        },
        {
          "internalType": "address",
          "name": "_to",
          "type": "address"
        },
        {
          "internalType": "uint256",
          "name": "_tokenId",
          "type": "uint256"
        }
      ],
      "name": "transferFrom",
      "outputs": [],
      "stateMutability": "nonpayable",
      "type": "function"
    },
    {
      "inputs": [
        {
          "internalType": "uint256",
          "name": "_fromTokenId",
          "type": "uint256"
        },
        {
          "internalType": "address",
          "name": "_to",
          "type": "address"
        },
        {
          "internalType": "address",
          "name": "_childContract",
          "type": "address"
        },
        {
          "internalType": "uint256",
          "name": "_childTokenId",
          "type": "uint256"
        }
      ],
      "name": "safeTransferChild",
      "outputs": [],
      "stateMutability": "nonpayable",
      "type": "function"
    },
    {
      "inputs": [
        {
          "internalType": "uint256",
          "name": "_fromTokenId",
          "type": "uint256"
        },
        {
          "internalType": "address",
          "name": "_to",
          "type": "address"
        },
        {
          "internalType": "address",
          "name": "_childContract",
          "type": "address"
        },
        {
          "internalType": "uint256",
          "name": "_childTokenId",
          "type": "uint256"
        },
        {
          "internalType": "bytes",
          "name": "_data",
          "type": "bytes"
        }
      ],
      "name": "safeTransferChild",
      "outputs": [],
      "stateMutability": "nonpayable",
      "type": "function"
    },
    {
      "inputs": [
        {
          "internalType": "uint256",
          "name": "_fromTokenId",
          "type": "uint256"
        },
        {
          "internalType": "address",
          "name": "_to",
          "type": "address"
        },
        {
          "internalType": "address",
          "name": "_childContract",
          "type": "address"
        },
        {
          "internalType": "uint256",
          "name": "_childTokenId",
          "type": "uint256"
        }
      ],
      "name": "transferChild",
      "outputs": [],
      "stateMutability": "nonpayable",
      "type": "function"
    },
    {
      "inputs": [
        {
          "internalType": "uint256",
          "name": "_fromTokenId",
          "type": "uint256"
        },
        {
          "internalType": "address",
          "name": "_toContract",
          "type": "address"
        },
        {
          "internalType": "uint256",
          "name": "_toTokenId",
          "type": "uint256"
        },
        {
          "internalType": "address",
          "name": "_childContract",
          "type": "address"
        },
        {
          "internalType": "uint256",
          "name": "_childTokenId",
          "type": "uint256"
        },
        {
          "internalType": "bytes",
          "name": "_data",
          "type": "bytes"
        }
      ],
      "name": "transferChildToParent",
      "outputs": [],
      "stateMutability": "nonpayable",
      "type": "function"
    },
    {
      "inputs": [
        {
          "internalType": "address",
          "name": "_from",
          "type": "address"
        },
        {
          "internalType": "uint256",
          "name": "_tokenId",
          "type": "uint256"
        },
        {
          "internalType": "address",
          "name": "_childContract",
          "type": "address"
        },
        {
          "internalType": "uint256",
          "name": "_childTokenId",
          "type": "uint256"
        }
      ],
      "name": "getChild",
      "outputs": [],
      "stateMutability": "nonpayable",
      "type": "function"
    },
    {
      "inputs": [
        {
          "internalType": "address",
          "name": "_operator",
          "type": "address"
        },
        {
          "internalType": "address",
          "name": "_from",
          "type": "address"
        },
        {
          "internalType": "uint256",
          "name": "_childTokenId",
          "type": "uint256"
        },
        {
          "internalType": "bytes",
          "name": "_data",
          "type": "bytes"
        }
      ],
      "name": "onERC721Received",
      "outputs": [
        {
          "internalType": "bytes4",
          "name": "",
          "type": "bytes4"
        }
      ],
      "stateMutability": "nonpayable",
      "type": "function"
    },
    {
      "inputs": [
        {
          "internalType": "address",
          "name": "_from",
          "type": "address"
        },
        {
          "internalType": "uint256",
          "name": "_childTokenId",
          "type": "uint256"
        },
        {
          "internalType": "bytes",
          "name": "_data",
          "type": "bytes"
        }
      ],
      "name": "onERC721Received",
      "outputs": [
        {
          "internalType": "bytes4",
          "name": "",
          "type": "bytes4"
        }
      ],
      "stateMutability": "nonpayable",
      "type": "function"
    },
    {
      "inputs": [
        {
          "internalType": "address",
          "name": "_childContract",
          "type": "address"
        },
        {
          "internalType": "uint256",
          "name": "_childTokenId",
          "type": "uint256"
        }
      ],
      "name": "ownerOfChild",
      "outputs": [
        {
          "internalType": "bytes32",
          "name": "parentTokenOwner",
          "type": "bytes32"
        },
        {
          "internalType": "uint256",
          "name": "parentTokenId",
          "type": "uint256"
        }
      ],
      "stateMutability": "view",
      "type": "function"
    },
    {
      "inputs": [
        {
          "internalType": "address",
          "name": "_childContract",
          "type": "address"
        },
        {
          "internalType": "uint256",
          "name": "_childTokenId",
          "type": "uint256"
        }
      ],
      "name": "childExists",
      "outputs": [
        {
          "internalType": "bool",
          "name": "",
          "type": "bool"
        }
      ],
      "stateMutability": "view",
      "type": "function"
    },
    {
      "inputs": [
        {
          "internalType": "uint256",
          "name": "_tokenId",
          "type": "uint256"
        }
      ],
      "name": "totalChildContracts",
      "outputs": [
        {
          "internalType": "uint256",
          "name": "",
          "type": "uint256"
        }
      ],
      "stateMutability": "view",
      "type": "function"
    },
    {
      "inputs": [
        {
          "internalType": "uint256",
          "name": "_tokenId",
          "type": "uint256"
        },
        {
          "internalType": "uint256",
          "name": "_index",
          "type": "uint256"
        }
      ],
      "name": "childContractByIndex",
      "outputs": [
        {
          "internalType": "address",
          "name": "childContract",
          "type": "address"
        }
      ],
      "stateMutability": "view",
      "type": "function"
    },
    {
      "inputs": [
        {
          "internalType": "uint256",
          "name": "_tokenId",
          "type": "uint256"
        },
        {
          "internalType": "address",
          "name": "_childContract",
          "type": "address"
        }
      ],
      "name": "totalChildTokens",
      "outputs": [
        {
          "internalType": "uint256",
          "name": "",
          "type": "uint256"
        }
      ],
      "stateMutability": "view",
      "type": "function"
    },
    {
      "inputs": [
        {
          "internalType": "uint256",
          "name": "_tokenId",
          "type": "uint256"
        },
        {
          "internalType": "address",
          "name": "_childContract",
          "type": "address"
        },
        {
          "internalType": "uint256",
          "name": "_index",
          "type": "uint256"
        }
      ],
      "name": "childTokenByIndex",
      "outputs": [
        {
          "internalType": "uint256",
          "name": "childTokenId",
          "type": "uint256"
        }
      ],
      "stateMutability": "view",
      "type": "function"
    },
    {
      "inputs": [
        {
          "internalType": "uint256",
          "name": "_tokenId",
          "type": "uint256"
        },
        {
          "internalType": "address",
          "name": "_erc20Contract",
          "type": "address"
        }
      ],
      "name": "balanceOfERC20",
      "outputs": [
        {
          "internalType": "uint256",
          "name": "",
          "type": "uint256"
        }
      ],
      "stateMutability": "view",
      "type": "function"
    },
    {
      "inputs": [
        {
          "internalType": "uint256",
          "name": "_tokenId",
          "type": "uint256"
        },
        {
          "internalType": "address",
          "name": "_to",
          "type": "address"
        },
        {
          "internalType": "address",
          "name": "_erc20Contract",
          "type": "address"
        },
        {
          "internalType": "uint256",
          "name": "_value",
          "type": "uint256"
        }
      ],
      "name": "transferERC20",
      "outputs": [],
      "stateMutability": "nonpayable",
      "type": "function"
    },
    {
      "inputs": [
        {
          "internalType": "uint256",
          "name": "_tokenId",
          "type": "uint256"
        },
        {
          "internalType": "address",
          "name": "_to",
          "type": "address"
        },
        {
          "internalType": "address",
          "name": "_erc223Contract",
          "type": "address"
        },
        {
          "internalType": "uint256",
          "name": "_value",
          "type": "uint256"
        },
        {
          "internalType": "bytes",
          "name": "_data",
          "type": "bytes"
        }
      ],
      "name": "transferERC223",
      "outputs": [],
      "stateMutability": "nonpayable",
      "type": "function"
    },
    {
      "inputs": [
        {
          "internalType": "address",
          "name": "_from",
          "type": "address"
        },
        {
          "internalType": "uint256",
          "name": "_tokenId",
          "type": "uint256"
        },
        {
          "internalType": "address",
          "name": "_erc20Contract",
          "type": "address"
        },
        {
          "internalType": "uint256",
          "name": "_value",
          "type": "uint256"
        }
      ],
      "name": "getERC20",
      "outputs": [],
      "stateMutability": "nonpayable",
      "type": "function"
    },
    {
      "inputs": [
        {
          "internalType": "address",
          "name": "_from",
          "type": "address"
        },
        {
          "internalType": "uint256",
          "name": "_value",
          "type": "uint256"
        },
        {
          "internalType": "bytes",
          "name": "_data",
          "type": "bytes"
        }
      ],
      "name": "tokenFallback",
      "outputs": [],
      "stateMutability": "nonpayable",
      "type": "function"
    },
    {
      "inputs": [
        {
          "internalType": "uint256",
          "name": "_tokenId",
          "type": "uint256"
        },
        {
          "internalType": "uint256",
          "name": "_index",
          "type": "uint256"
        }
      ],
      "name": "erc20ContractByIndex",
      "outputs": [
        {
          "internalType": "address",
          "name": "",
          "type": "address"
        }
      ],
      "stateMutability": "view",
      "type": "function"
    },
    {
      "inputs": [
        {
          "internalType": "uint256",
          "name": "_tokenId",
          "type": "uint256"
        }
      ],
      "name": "totalERC20Contracts",
      "outputs": [
        {
          "internalType": "uint256",
          "name": "",
          "type": "uint256"
        }
      ],
      "stateMutability": "view",
      "type": "function"
    }
  ],
  "bytecode": "0x60806040526000600a553480156200001657600080fd5b50604051620088b9380380620088b9833981810160405260608110156200003c57600080fd5b81019080805160405193929190846401000000008211156200005d57600080fd5b838201915060208201858111156200007457600080fd5b82518660018202830111640100000000821117156200009257600080fd5b8083526020830192505050908051906020019080838360005b83811015620000c8578082015181840152602081019050620000ab565b50505050905090810190601f168015620000f65780820380516001836020036101000a031916815260200191505b50604052602001805160405193929190846401000000008211156200011a57600080fd5b838201915060208201858111156200013157600080fd5b82518660018202830111640100000000821117156200014f57600080fd5b8083526020830192505050908051906020019080838360005b838110156200018557808201518184015260208101905062000168565b50505050905090810190601f168015620001b35780820380516001836020036101000a031916815260200191505b5060405260200180516040519392919084640100000000821115620001d757600080fd5b83820191506020820185811115620001ee57600080fd5b82518660018202830111640100000000821117156200020c57600080fd5b8083526020830192505050908051906020019080838360005b838110156200024257808201518184015260208101905062000225565b50505050905090810190601f168015620002705780820380516001836020036101000a031916815260200191505b506040525050508282620002916301ffc9a760e01b6200032760201b60201c565b8160069080519060200190620002a99291906200044c565b508060079080519060200190620002c29291906200044c565b50620002db6380ac58cd60e01b6200032760201b60201c565b620002f3635b5e139f60e01b6200032760201b60201c565b6200030b63780e9d6360e01b6200032760201b60201c565b50506200031e816200043060201b60201c565b505050620004f2565b63ffffffff60e01b817bffffffffffffffffffffffffffffffffffffffffffffffffffffffff19161415620003c4576040517f08c379a000000000000000000000000000000000000000000000000000000000815260040180806020018281038252601c8152602001807f4552433136353a20696e76616c696420696e746572666163652069640000000081525060200191505060405180910390fd5b6001600080837bffffffffffffffffffffffffffffffffffffffffffffffffffffffff19167bffffffffffffffffffffffffffffffffffffffffffffffffffffffff1916815260200190815260200160002060006101000a81548160ff02191690831515021790555050565b8060099080519060200190620004489291906200044c565b5050565b828054600181600116156101000203166002900490600052602060002090601f016020900481019282601f106200048f57805160ff1916838001178555620004c0565b82800160010185558215620004c0579182015b82811115620004bf578251825591602001919060010190620004a2565b5b509050620004cf9190620004d3565b5090565b5b80821115620004ee576000816000905550600101620004d4565b5090565b6183b780620005026000396000f3fe608060405234801561001057600080fd5b50600436106102485760003560e01c80636a6278421161013b578063ba6b5f96116100b8578063e226ed221161007c578063e226ed221461129f578063e985e9c514611301578063eadb80b81461137b578063ed81cdda146113e4578063f0b9e5ba1461144657610248565b8063ba6b5f9614610f98578063bef44f1814611010578063c0ee0b8a14611088578063c87b56dd1461112b578063d49d1bac146111d257610248565b80638da7d0b5116100ff5780638da7d0b514610d3c57806395d89b4114610d7e578063a22cb46514610e01578063a781173214610e51578063b88d4fde14610e9357610248565b80636a62784214610ac45780636c0360eb14610b1c57806370a0823114610b9f578063830ef41b14610bf75780638d81f51e14610c6f57610248565b80631d98f3c5116101c957806343a61a8e1161018d57806343a61a8e146109225780634f6ccce7146109645780635680a3ad146109a6578063627c81ff14610a0a5780636352211e14610a6c57610248565b80631d98f3c51461070a57806323b872dd146107825780632f745c59146107f057806335b21ceb1461085257806342842e0e146108b457610248565b8063095ea7b311610210578063095ea7b3146104da5780630d5a621b14610528578063150b7a021461058a578063160b01a11461068057806318160ddd146106ec57610248565b806301ffc9a71461024d57806306fdde03146102b057806307cff6f214610333578063081812fc146103ab57806308937f6214610403575b600080fd5b6102986004803603602081101561026357600080fd5b8101908080357bffffffffffffffffffffffffffffffffffffffffffffffffffffffff1916906020019092919050505061151c565b60405180821515815260200191505060405180910390f35b6102b8611583565b6040518080602001828103825283818151815260200191508051906020019080838360005b838110156102f85780820151818401526020810190506102dd565b50505050905090810190601f1680156103255780820380516001836020036101000a031916815260200191505b509250505060405180910390f35b6103a96004803603608081101561034957600080fd5b81019080803573ffffffffffffffffffffffffffffffffffffffff16906020019092919080359060200190929190803573ffffffffffffffffffffffffffffffffffffffff16906020019092919080359060200190929190505050611625565b005b6103d7600480360360208110156103c157600080fd5b8101908080359060200190929190505050611948565b604051808273ffffffffffffffffffffffffffffffffffffffff16815260200191505060405180910390f35b6104d8600480360360c081101561041957600080fd5b8101908080359060200190929190803573ffffffffffffffffffffffffffffffffffffffff16906020019092919080359060200190929190803573ffffffffffffffffffffffffffffffffffffffff169060200190929190803590602001909291908035906020019064010000000081111561049457600080fd5b8201836020820111156104a657600080fd5b803590602001918460018302840111640100000000831117156104c857600080fd5b90919293919293905050506119d2565b005b610526600480360360408110156104f057600080fd5b81019080803573ffffffffffffffffffffffffffffffffffffffff16906020019092919080359060200190929190505050611f11565b005b61055e6004803603604081101561053e57600080fd5b810190808035906020019092919080359060200190929190505050612125565b604051808273ffffffffffffffffffffffffffffffffffffffff16815260200191505060405180910390f35b61064b600480360360808110156105a057600080fd5b81019080803573ffffffffffffffffffffffffffffffffffffffff169060200190929190803573ffffffffffffffffffffffffffffffffffffffff169060200190929190803590602001909291908035906020019064010000000081111561060757600080fd5b82018360208201111561061957600080fd5b8035906020019184600183028401116401000000008311171561063b57600080fd5b90919293919293905050506121e6565b60405180827bffffffffffffffffffffffffffffffffffffffffffffffffffffffff1916815260200191505060405180910390f35b6106d66004803603606081101561069657600080fd5b8101908080359060200190929190803573ffffffffffffffffffffffffffffffffffffffff16906020019092919080359060200190929190505050612398565b6040518082815260200191505060405180910390f35b6106f46124b4565b6040518082815260200191505060405180910390f35b6107806004803603608081101561072057600080fd5b8101908080359060200190929190803573ffffffffffffffffffffffffffffffffffffffff169060200190929190803573ffffffffffffffffffffffffffffffffffffffff169060200190929190803590602001909291905050506124c5565b005b6107ee6004803603606081101561079857600080fd5b81019080803573ffffffffffffffffffffffffffffffffffffffff169060200190929190803573ffffffffffffffffffffffffffffffffffffffff169060200190929190803590602001909291905050506129c5565b005b61083c6004803603604081101561080657600080fd5b81019080803573ffffffffffffffffffffffffffffffffffffffff169060200190929190803590602001909291905050506129d5565b6040518082815260200191505060405180910390f35b61089e6004803603604081101561086857600080fd5b8101908080359060200190929190803573ffffffffffffffffffffffffffffffffffffffff169060200190929190505050612a30565b6040518082815260200191505060405180910390f35b610920600480360360608110156108ca57600080fd5b81019080803573ffffffffffffffffffffffffffffffffffffffff169060200190929190803573ffffffffffffffffffffffffffffffffffffffff16906020019092919080359060200190929190505050612a8e565b005b61094e6004803603602081101561093857600080fd5b8101908080359060200190929190505050612aae565b6040518082815260200191505060405180910390f35b6109906004803603602081101561097a57600080fd5b8101908080359060200190929190505050612ac2565b6040518082815260200191505060405180910390f35b6109f2600480360360408110156109bc57600080fd5b81019080803573ffffffffffffffffffffffffffffffffffffffff16906020019092919080359060200190929190505050612ae5565b60405180821515815260200191505060405180910390f35b610a4060048036036040811015610a2057600080fd5b810190808035906020019092919080359060200190929190505050612baa565b604051808273ffffffffffffffffffffffffffffffffffffffff16815260200191505060405180910390f35b610a9860048036036020811015610a8257600080fd5b8101908080359060200190929190505050612c6b565b604051808273ffffffffffffffffffffffffffffffffffffffff16815260200191505060405180910390f35b610b0660048036036020811015610ada57600080fd5b81019080803573ffffffffffffffffffffffffffffffffffffffff169060200190929190505050612d2e565b6040518082815260200191505060405180910390f35b610b24612df3565b6040518080602001828103825283818151815260200191508051906020019080838360005b83811015610b64578082015181840152602081019050610b49565b50505050905090810190601f168015610b915780820380516001836020036101000a031916815260200191505b509250505060405180910390f35b610be160048036036020811015610bb557600080fd5b81019080803573ffffffffffffffffffffffffffffffffffffffff169060200190929190505050612e95565b6040518082815260200191505060405180910390f35b610c6d60048036036080811015610c0d57600080fd5b8101908080359060200190929190803573ffffffffffffffffffffffffffffffffffffffff169060200190929190803573ffffffffffffffffffffffffffffffffffffffff16906020019092919080359060200190929190505050612f63565b005b610d3a600480360360a0811015610c8557600080fd5b8101908080359060200190929190803573ffffffffffffffffffffffffffffffffffffffff169060200190929190803573ffffffffffffffffffffffffffffffffffffffff1690602001909291908035906020019092919080359060200190640100000000811115610cf657600080fd5b820183602082011115610d0857600080fd5b80359060200191846001830284011164010000000083111715610d2a57600080fd5b909192939192939050505061334a565b005b610d6860048036036020811015610d5257600080fd5b8101908080359060200190929190505050613880565b6040518082815260200191505060405180910390f35b610d866138a0565b6040518080602001828103825283818151815260200191508051906020019080838360005b83811015610dc6578082015181840152602081019050610dab565b50505050905090810190601f168015610df35780820380516001836020036101000a031916815260200191505b509250505060405180910390f35b610e4f60048036036040811015610e1757600080fd5b81019080803573ffffffffffffffffffffffffffffffffffffffff169060200190929190803515159060200190929190505050613942565b005b610e7d60048036036020811015610e6757600080fd5b8101908080359060200190929190505050613ac7565b6040518082815260200191505060405180910390f35b610f9660048036036080811015610ea957600080fd5b81019080803573ffffffffffffffffffffffffffffffffffffffff169060200190929190803573ffffffffffffffffffffffffffffffffffffffff1690602001909291908035906020019092919080359060200190640100000000811115610f1057600080fd5b820183602082011115610f2257600080fd5b80359060200191846001830284011164010000000083111715610f4457600080fd5b91908080601f016020809104026020016040519081016040528093929190818152602001838380828437600081840152601f19601f820116905080830192505050505050509192919290505050613ae7565b005b61100e60048036036080811015610fae57600080fd5b81019080803573ffffffffffffffffffffffffffffffffffffffff16906020019092919080359060200190929190803573ffffffffffffffffffffffffffffffffffffffff16906020019092919080359060200190929190505050613b5f565b005b6110866004803603608081101561102657600080fd5b8101908080359060200190929190803573ffffffffffffffffffffffffffffffffffffffff169060200190929190803573ffffffffffffffffffffffffffffffffffffffff16906020019092919080359060200190929190505050613e24565b005b6111296004803603606081101561109e57600080fd5b81019080803573ffffffffffffffffffffffffffffffffffffffff16906020019092919080359060200190929190803590602001906401000000008111156110e557600080fd5b8201836020820111156110f757600080fd5b8035906020019184600183028401116401000000008311171561111957600080fd5b90919293919293905050506143ad565b005b6111576004803603602081101561114157600080fd5b81019080803590602001909291905050506144b4565b6040518080602001828103825283818151815260200191508051906020019080838360005b8381101561119757808201518184015260208101905061117c565b50505050905090810190601f1680156111c45780820380516001836020036101000a031916815260200191505b509250505060405180910390f35b61129d600480360360a08110156111e857600080fd5b8101908080359060200190929190803573ffffffffffffffffffffffffffffffffffffffff169060200190929190803573ffffffffffffffffffffffffffffffffffffffff169060200190929190803590602001909291908035906020019064010000000081111561125957600080fd5b82018360208201111561126b57600080fd5b8035906020019184600183028401116401000000008311171561128d57600080fd5b909192939192939050505061479d565b005b6112eb600480360360408110156112b557600080fd5b8101908080359060200190929190803573ffffffffffffffffffffffffffffffffffffffff169060200190929190505050614bba565b6040518082815260200191505060405180910390f35b6113636004803603604081101561131757600080fd5b81019080803573ffffffffffffffffffffffffffffffffffffffff169060200190929190803573ffffffffffffffffffffffffffffffffffffffff169060200190929190505050614c15565b60405180821515815260200191505060405180910390f35b6113c76004803603604081101561139157600080fd5b81019080803573ffffffffffffffffffffffffffffffffffffffff16906020019092919080359060200190929190505050614db4565b604051808381526020018281526020019250505060405180910390f35b611430600480360360408110156113fa57600080fd5b81019080803573ffffffffffffffffffffffffffffffffffffffff16906020019092919080359060200190929190505050614f6f565b6040518082815260200191505060405180910390f35b6114e76004803603606081101561145c57600080fd5b81019080803573ffffffffffffffffffffffffffffffffffffffff16906020019092919080359060200190929190803590602001906401000000008111156114a357600080fd5b8201836020820111156114b557600080fd5b803590602001918460018302840111640100000000831117156114d757600080fd5b9091929391929390505050615188565b60405180827bffffffffffffffffffffffffffffffffffffffffffffffffffffffff1916815260200191505060405180910390f35b6000806000837bffffffffffffffffffffffffffffffffffffffffffffffffffffffff19167bffffffffffffffffffffffffffffffffffffffffffffffffffffffff1916815260200190815260200160002060009054906101000a900460ff169050919050565b606060068054600181600116156101000203166002900480601f01602080910402602001604051908101604052809291908181526020018280546001816001161561010002031660029004801561161b5780601f106115f05761010080835404028352916020019161161b565b820191906000526020600020905b8154815290600101906020018083116115fe57829003601f168201915b5050505050905090565b60003373ffffffffffffffffffffffffffffffffffffffff168573ffffffffffffffffffffffffffffffffffffffff16149050806117c0576000606063dd62ed3e8733604051602401808373ffffffffffffffffffffffffffffffffffffffff1681526020018273ffffffffffffffffffffffffffffffffffffffff168152602001925050506040516020818303038152906040529060e01b6020820180517bffffffffffffffffffffffffffffffffffffffffffffffffffffffff838183161783525050505090506000602082835160208501895afa9050801561170957815192505b8061175f576040517f08c379a000000000000000000000000000000000000000000000000000000000815260040180806020018281038252602981526020018061824e6029913960400191505060405180910390fd5b848310156117b8576040517f08c379a000000000000000000000000000000000000000000000000000000000815260040180806020018281038252602d815260200180617dc4602d913960400191505060405180910390fd5b600193505050505b80611816576040517f08c379a0000000000000000000000000000000000000000000000000000000008152600401808060200182810382526028815260200180617f766028913960400191505060405180910390fd5b61182285858585615339565b8273ffffffffffffffffffffffffffffffffffffffff166323b872dd8630856040518463ffffffff1660e01b8152600401808473ffffffffffffffffffffffffffffffffffffffff1681526020018373ffffffffffffffffffffffffffffffffffffffff1681526020018281526020019350505050602060405180830381600087803b1580156118b157600080fd5b505af11580156118c5573d6000803e3d6000fd5b505050506040513d60208110156118db57600080fd5b8101908080519060200190929190505050611941576040517f08c379a0000000000000000000000000000000000000000000000000000000008152600401808060200182810382526027815260200180617d9d6027913960400191505060405180910390fd5b5050505050565b60008061195483612aae565b60601c9050600c60008273ffffffffffffffffffffffffffffffffffffffff1673ffffffffffffffffffffffffffffffffffffffff168152602001908152602001600020600084815260200190815260200160002060009054906101000a900473ffffffffffffffffffffffffffffffffffffffff16915050919050565b6000601360008673ffffffffffffffffffffffffffffffffffffffff1673ffffffffffffffffffffffffffffffffffffffff16815260200190815260200160002060008581526020019081526020016000205490506000811180611a97575060006012600083815260200190815260200160002060008773ffffffffffffffffffffffffffffffffffffffff1673ffffffffffffffffffffffffffffffffffffffff168152602001908152602001600020600086815260200190815260200160002054115b611aec576040517f08c379a0000000000000000000000000000000000000000000000000000000008152600401808060200182810382526033815260200180617ff96033913960400191505060405180910390fd5b878114611b44576040517f08c379a0000000000000000000000000000000000000000000000000000000008152600401808060200182810382526028815260200180617e516028913960400191505060405180910390fd5b600073ffffffffffffffffffffffffffffffffffffffff168773ffffffffffffffffffffffffffffffffffffffff161415611be7576040517f08c379a000000000000000000000000000000000000000000000000000000000815260040180806020018281038252601d8152602001807f436f6d706f7361626c65546f6b656e3a2063616e6e6f7420626520307800000081525060200191505060405180910390fd5b6000611bf282612aae565b60601c90503373ffffffffffffffffffffffffffffffffffffffff168173ffffffffffffffffffffffffffffffffffffffff161480611cb75750600e60008273ffffffffffffffffffffffffffffffffffffffff1673ffffffffffffffffffffffffffffffffffffffff16815260200190815260200160002060003373ffffffffffffffffffffffffffffffffffffffff1673ffffffffffffffffffffffffffffffffffffffff16815260200190815260200160002060009054906101000a900460ff165b80611d5d57503373ffffffffffffffffffffffffffffffffffffffff16600c60008373ffffffffffffffffffffffffffffffffffffffff1673ffffffffffffffffffffffffffffffffffffffff168152602001908152602001600020600084815260200190815260200160002060009054906101000a900473ffffffffffffffffffffffffffffffffffffffff1673ffffffffffffffffffffffffffffffffffffffff16145b611db2576040517f08c379a00000000000000000000000000000000000000000000000000000000081526004018080602001828103825260288152602001806182776028913960400191505060405180910390fd5b611dbd89878761560a565b8573ffffffffffffffffffffffffffffffffffffffff1663f50acfa0308a8a8989896040518763ffffffff1660e01b8152600401808773ffffffffffffffffffffffffffffffffffffffff1681526020018673ffffffffffffffffffffffffffffffffffffffff168152602001858152602001848152602001806020018281038252848482818152602001925080828437600081840152601f19601f820116905080830192505050975050505050505050600060405180830381600087803b158015611e8857600080fd5b505af1158015611e9c573d6000803e3d6000fd5b505050508573ffffffffffffffffffffffffffffffffffffffff168873ffffffffffffffffffffffffffffffffffffffff168a7f0ef52e516fb5aec15a5d3587e5480481b702b26db93c8430eca78b61990fd3f6886040518082815260200191505060405180910390a4505050505050505050565b6000611f1c82612aae565b60601c90503373ffffffffffffffffffffffffffffffffffffffff168173ffffffffffffffffffffffffffffffffffffffff161480611fe15750600e60008273ffffffffffffffffffffffffffffffffffffffff1673ffffffffffffffffffffffffffffffffffffffff16815260200190815260200160002060003373ffffffffffffffffffffffffffffffffffffffff1673ffffffffffffffffffffffffffffffffffffffff16815260200190815260200160002060009054906101000a900460ff165b612036576040517f08c379a0000000000000000000000000000000000000000000000000000000008152600401808060200182810382526022815260200180617f276022913960400191505060405180910390fd5b82600c60008373ffffffffffffffffffffffffffffffffffffffff1673ffffffffffffffffffffffffffffffffffffffff168152602001908152602001600020600084815260200190815260200160002060006101000a81548173ffffffffffffffffffffffffffffffffffffffff021916908373ffffffffffffffffffffffffffffffffffffffff160217905550818373ffffffffffffffffffffffffffffffffffffffff168273ffffffffffffffffffffffffffffffffffffffff167f8c5be1e5ebec7d5bd14f71427d1e84f3dd0314c0f7b2291e5b200ac8c7c3b92560405160405180910390a4505050565b6000600f6000848152602001908152602001600020805490508210612195576040517f08c379a0000000000000000000000000000000000000000000000000000000008152600401808060200182810382526039815260200180617d646039913960400191505060405180910390fd5b600f600084815260200190815260200160002082815481106121b357fe5b9060005260206000200160009054906101000a900473ffffffffffffffffffffffffffffffffffffffff16905092915050565b6000808383905011612243576040517f08c379a00000000000000000000000000000000000000000000000000000000081526004018080602001828103825260468152602001806182086046913960600191505060405180910390fd5b600060a4359050602084849050101561226757600884849050026101000381901c90505b61227386823388615c1a565b600073ffffffffffffffffffffffffffffffffffffffff163373ffffffffffffffffffffffffffffffffffffffff16636352211e876040518263ffffffff1660e01b81526004018082815260200191505060206040518083038186803b1580156122dc57600080fd5b505afa1580156122f0573d6000803e3d6000fd5b505050506040513d602081101561230657600080fd5b810190808051906020019092919050505073ffffffffffffffffffffffffffffffffffffffff161415612384576040517f08c379a00000000000000000000000000000000000000000000000000000000081526004018080602001828103825260278152602001806180b56027913960400191505060405180910390fd5b63150b7a0260e01b91505095945050505050565b60006011600085815260200190815260200160002060008473ffffffffffffffffffffffffffffffffffffffff1673ffffffffffffffffffffffffffffffffffffffff168152602001908152602001600020805490508210612445576040517f08c379a000000000000000000000000000000000000000000000000000000000815260040180806020018281038252603f81526020018061802c603f913960400191505060405180910390fd5b6011600085815260200190815260200160002060008473ffffffffffffffffffffffffffffffffffffffff1673ffffffffffffffffffffffffffffffffffffffff16815260200190815260200160002082815481106124a057fe5b906000526020600020015490509392505050565b60006124c06002616070565b905090565b6000601360008473ffffffffffffffffffffffffffffffffffffffff1673ffffffffffffffffffffffffffffffffffffffff1681526020019081526020016000206000838152602001908152602001600020549050600081118061258a575060006012600083815260200190815260200160002060008573ffffffffffffffffffffffffffffffffffffffff1673ffffffffffffffffffffffffffffffffffffffff168152602001908152602001600020600084815260200190815260200160002054115b6125df576040517f08c379a0000000000000000000000000000000000000000000000000000000008152600401808060200182810382526033815260200180617ff96033913960400191505060405180910390fd5b848114612637576040517f08c379a0000000000000000000000000000000000000000000000000000000008152600401808060200182810382526028815260200180617e516028913960400191505060405180910390fd5b600073ffffffffffffffffffffffffffffffffffffffff168473ffffffffffffffffffffffffffffffffffffffff1614156126da576040517f08c379a000000000000000000000000000000000000000000000000000000000815260040180806020018281038252601d8152602001807f436f6d706f7361626c65546f6b656e3a2063616e6e6f7420626520307800000081525060200191505060405180910390fd5b60006126e582612aae565b60601c90503373ffffffffffffffffffffffffffffffffffffffff168173ffffffffffffffffffffffffffffffffffffffff1614806127aa5750600e60008273ffffffffffffffffffffffffffffffffffffffff1673ffffffffffffffffffffffffffffffffffffffff16815260200190815260200160002060003373ffffffffffffffffffffffffffffffffffffffff1673ffffffffffffffffffffffffffffffffffffffff16815260200190815260200160002060009054906101000a900460ff165b8061285057503373ffffffffffffffffffffffffffffffffffffffff16600c60008373ffffffffffffffffffffffffffffffffffffffff1673ffffffffffffffffffffffffffffffffffffffff168152602001908152602001600020600084815260200190815260200160002060009054906101000a900473ffffffffffffffffffffffffffffffffffffffff1673ffffffffffffffffffffffffffffffffffffffff16145b6128a5576040517f08c379a00000000000000000000000000000000000000000000000000000000081526004018080602001828103825260288152602001806182776028913960400191505060405180910390fd5b6128b082858561560a565b8373ffffffffffffffffffffffffffffffffffffffff166342842e0e3087866040518463ffffffff1660e01b8152600401808473ffffffffffffffffffffffffffffffffffffffff1681526020018373ffffffffffffffffffffffffffffffffffffffff1681526020018281526020019350505050600060405180830381600087803b15801561293f57600080fd5b505af1158015612953573d6000803e3d6000fd5b505050508373ffffffffffffffffffffffffffffffffffffffff168573ffffffffffffffffffffffffffffffffffffffff16837f0ef52e516fb5aec15a5d3587e5480481b702b26db93c8430eca78b61990fd3f6866040518082815260200191505060405180910390a4505050505050565b6129d0838383616085565b505050565b6000612a2882600160008673ffffffffffffffffffffffffffffffffffffffff1673ffffffffffffffffffffffffffffffffffffffff1681526020019081526020016000206168a690919063ffffffff16565b905092915050565b60006011600084815260200190815260200160002060008373ffffffffffffffffffffffffffffffffffffffff1673ffffffffffffffffffffffffffffffffffffffff16815260200190815260200160002080549050905092915050565b612aa983838360405180602001604052806000815250613ae7565b505050565b6000612abb600083614f6f565b9050919050565b600080612ad98360026168c090919063ffffffff16565b50905080915050919050565b600080601360008573ffffffffffffffffffffffffffffffffffffffff1673ffffffffffffffffffffffffffffffffffffffff168152602001908152602001600020600084815260200190815260200160002054905060006012600083815260200190815260200160002060008673ffffffffffffffffffffffffffffffffffffffff1673ffffffffffffffffffffffffffffffffffffffff168152602001908152602001600020600085815260200190815260200160002054141591505092915050565b600060146000848152602001908152602001600020805490508210612c1a576040517f08c379a000000000000000000000000000000000000000000000000000000000815260040180806020018281038252604a8152602001806180dc604a913960600191505060405180910390fd5b601460008481526020019081526020016000208281548110612c3857fe5b9060005260206000200160009054906101000a900473ffffffffffffffffffffffffffffffffffffffff16905092915050565b6000600b600083815260200190815260200160002060009054906101000a900473ffffffffffffffffffffffffffffffffffffffff169050600073ffffffffffffffffffffffffffffffffffffffff168173ffffffffffffffffffffffffffffffffffffffff161415612d29576040517f08c379a0000000000000000000000000000000000000000000000000000000008152600401808060200182810382526021815260200180617cc86021913960400191505060405180910390fd5b919050565b6000600a600081548092919060010191905055506000600a54905082600b600083815260200190815260200160002060006101000a81548173ffffffffffffffffffffffffffffffffffffffff021916908373ffffffffffffffffffffffffffffffffffffffff160217905550600d60008473ffffffffffffffffffffffffffffffffffffffff1673ffffffffffffffffffffffffffffffffffffffff1681526020019081526020016000206000815480929190600101919050555080915050919050565b606060098054600181600116156101000203166002900480601f016020809104026020016040519081016040528092919081815260200182805460018160011615610100020316600290048015612e8b5780601f10612e6057610100808354040283529160200191612e8b565b820191906000526020600020905b815481529060010190602001808311612e6e57829003601f168201915b5050505050905090565b60008073ffffffffffffffffffffffffffffffffffffffff168273ffffffffffffffffffffffffffffffffffffffff161415612f1c576040517f08c379a0000000000000000000000000000000000000000000000000000000008152600401808060200182810382526024815260200180617f9e6024913960400191505060405180910390fd5b600d60008373ffffffffffffffffffffffffffffffffffffffff1673ffffffffffffffffffffffffffffffffffffffff168152602001908152602001600020549050919050565b600073ffffffffffffffffffffffffffffffffffffffff168373ffffffffffffffffffffffffffffffffffffffff161415613006576040517f08c379a000000000000000000000000000000000000000000000000000000000815260040180806020018281038252601f8152602001807f436f6d706f7361626c65546f6b656e3a20746f2063616e27742062652030780081525060200191505060405180910390fd5b600061301185612aae565b60601c90503373ffffffffffffffffffffffffffffffffffffffff168173ffffffffffffffffffffffffffffffffffffffff1614806130d65750600e60008273ffffffffffffffffffffffffffffffffffffffff1673ffffffffffffffffffffffffffffffffffffffff16815260200190815260200160002060003373ffffffffffffffffffffffffffffffffffffffff1673ffffffffffffffffffffffffffffffffffffffff16815260200190815260200160002060009054906101000a900460ff165b8061317c57503373ffffffffffffffffffffffffffffffffffffffff16600c60008373ffffffffffffffffffffffffffffffffffffffff1673ffffffffffffffffffffffffffffffffffffffff168152602001908152602001600020600087815260200190815260200160002060009054906101000a900473ffffffffffffffffffffffffffffffffffffffff1673ffffffffffffffffffffffffffffffffffffffff16145b6131d1576040517f08c379a000000000000000000000000000000000000000000000000000000000815260040180806020018281038252602d8152602001806181db602d913960400191505060405180910390fd5b6131dc8584846168ec565b8273ffffffffffffffffffffffffffffffffffffffff1663a9059cbb85846040518363ffffffff1660e01b8152600401808373ffffffffffffffffffffffffffffffffffffffff16815260200182815260200192505050602060405180830381600087803b15801561324d57600080fd5b505af1158015613261573d6000803e3d6000fd5b505050506040513d602081101561327757600080fd5b81019080805190602001909291905050506132dd576040517f08c379a0000000000000000000000000000000000000000000000000000000008152600401808060200182810382526027815260200180617d9d6027913960400191505060405180910390fd5b8273ffffffffffffffffffffffffffffffffffffffff168473ffffffffffffffffffffffffffffffffffffffff16867fa8352277873fc0d2b233b8127433da351a4164fa701ed6ff79655694222932c4856040518082815260200191505060405180910390a45050505050565b6000601360008673ffffffffffffffffffffffffffffffffffffffff1673ffffffffffffffffffffffffffffffffffffffff1681526020019081526020016000206000858152602001908152602001600020549050600081118061340f575060006012600083815260200190815260200160002060008773ffffffffffffffffffffffffffffffffffffffff1673ffffffffffffffffffffffffffffffffffffffff168152602001908152602001600020600086815260200190815260200160002054115b613464576040517f08c379a0000000000000000000000000000000000000000000000000000000008152600401808060200182810382526033815260200180617ff96033913960400191505060405180910390fd5b8681146134bc576040517f08c379a0000000000000000000000000000000000000000000000000000000008152600401808060200182810382526028815260200180617e516028913960400191505060405180910390fd5b600073ffffffffffffffffffffffffffffffffffffffff168673ffffffffffffffffffffffffffffffffffffffff16141561355f576040517f08c379a000000000000000000000000000000000000000000000000000000000815260040180806020018281038252601d8152602001807f436f6d706f7361626c65546f6b656e3a2063616e6e6f7420626520307800000081525060200191505060405180910390fd5b600061356a82612aae565b60601c90503373ffffffffffffffffffffffffffffffffffffffff168173ffffffffffffffffffffffffffffffffffffffff16148061362f5750600e60008273ffffffffffffffffffffffffffffffffffffffff1673ffffffffffffffffffffffffffffffffffffffff16815260200190815260200160002060003373ffffffffffffffffffffffffffffffffffffffff1673ffffffffffffffffffffffffffffffffffffffff16815260200190815260200160002060009054906101000a900460ff165b806136d557503373ffffffffffffffffffffffffffffffffffffffff16600c60008373ffffffffffffffffffffffffffffffffffffffff1673ffffffffffffffffffffffffffffffffffffffff168152602001908152602001600020600084815260200190815260200160002060009054906101000a900473ffffffffffffffffffffffffffffffffffffffff1673ffffffffffffffffffffffffffffffffffffffff16145b61372a576040517f08c379a00000000000000000000000000000000000000000000000000000000081526004018080602001828103825260288152602001806182776028913960400191505060405180910390fd5b61373582878761560a565b8573ffffffffffffffffffffffffffffffffffffffff1663b88d4fde30898888886040518663ffffffff1660e01b8152600401808673ffffffffffffffffffffffffffffffffffffffff1681526020018573ffffffffffffffffffffffffffffffffffffffff168152602001848152602001806020018281038252848482818152602001925080828437600081840152601f19601f8201169050808301925050509650505050505050600060405180830381600087803b1580156137f857600080fd5b505af115801561380c573d6000803e3d6000fd5b505050508573ffffffffffffffffffffffffffffffffffffffff168773ffffffffffffffffffffffffffffffffffffffff16837f0ef52e516fb5aec15a5d3587e5480481b702b26db93c8430eca78b61990fd3f6886040518082815260200191505060405180910390a45050505050505050565b6000600f6000838152602001908152602001600020805490509050919050565b606060078054600181600116156101000203166002900480601f0160208091040260200160405190810160405280929190818152602001828054600181600116156101000203166002900480156139385780601f1061390d57610100808354040283529160200191613938565b820191906000526020600020905b81548152906001019060200180831161391b57829003601f168201915b5050505050905090565b600073ffffffffffffffffffffffffffffffffffffffff168273ffffffffffffffffffffffffffffffffffffffff1614156139c8576040517f08c379a00000000000000000000000000000000000000000000000000000000081526004018080602001828103825260258152602001806182d06025913960400191505060405180910390fd5b80600e60003373ffffffffffffffffffffffffffffffffffffffff1673ffffffffffffffffffffffffffffffffffffffff16815260200190815260200160002060008473ffffffffffffffffffffffffffffffffffffffff1673ffffffffffffffffffffffffffffffffffffffff16815260200190815260200160002060006101000a81548160ff0219169083151502179055508173ffffffffffffffffffffffffffffffffffffffff163373ffffffffffffffffffffffffffffffffffffffff167f17307eab39ab6107e8899845ad3d59bd9653f200f220920489ca2b5937696c318360405180821515815260200191505060405180910390a35050565b600060146000838152602001908152602001600020805490509050919050565b613af8613af2616c6e565b83616c76565b613b4d576040517f08c379a000000000000000000000000000000000000000000000000000000000815260040180806020018281038252603181526020018061829f6031913960400191505060405180910390fd5b613b5984848484616d6a565b50505050565b613b6b84848484615c1a565b3373ffffffffffffffffffffffffffffffffffffffff168473ffffffffffffffffffffffffffffffffffffffff161480613c6157508173ffffffffffffffffffffffffffffffffffffffff1663e985e9c585336040518363ffffffff1660e01b8152600401808373ffffffffffffffffffffffffffffffffffffffff1681526020018273ffffffffffffffffffffffffffffffffffffffff1681526020019250505060206040518083038186803b158015613c2557600080fd5b505afa158015613c39573d6000803e3d6000fd5b505050506040513d6020811015613c4f57600080fd5b81019080805190602001909291905050505b80613d2257503373ffffffffffffffffffffffffffffffffffffffff168273ffffffffffffffffffffffffffffffffffffffff1663081812fc836040518263ffffffff1660e01b81526004018082815260200191505060206040518083038186803b158015613ccf57600080fd5b505afa158015613ce3573d6000803e3d6000fd5b505050506040513d6020811015613cf957600080fd5b810190808051906020019092919050505073ffffffffffffffffffffffffffffffffffffffff16145b613d77576040517f08c379a0000000000000000000000000000000000000000000000000000000008152600401808060200182810382526024815260200180617f036024913960400191505060405180910390fd5b8173ffffffffffffffffffffffffffffffffffffffff166323b872dd8530846040518463ffffffff1660e01b8152600401808473ffffffffffffffffffffffffffffffffffffffff1681526020018373ffffffffffffffffffffffffffffffffffffffff1681526020018281526020019350505050600060405180830381600087803b158015613e0657600080fd5b505af1158015613e1a573d6000803e3d6000fd5b5050505050505050565b6000601360008473ffffffffffffffffffffffffffffffffffffffff1673ffffffffffffffffffffffffffffffffffffffff16815260200190815260200160002060008381526020019081526020016000205490506000811180613ee9575060006012600083815260200190815260200160002060008573ffffffffffffffffffffffffffffffffffffffff1673ffffffffffffffffffffffffffffffffffffffff168152602001908152602001600020600084815260200190815260200160002054115b613f3e576040517f08c379a0000000000000000000000000000000000000000000000000000000008152600401808060200182810382526033815260200180617ff96033913960400191505060405180910390fd5b848114613f96576040517f08c379a0000000000000000000000000000000000000000000000000000000008152600401808060200182810382526028815260200180617e516028913960400191505060405180910390fd5b600073ffffffffffffffffffffffffffffffffffffffff168473ffffffffffffffffffffffffffffffffffffffff161415614039576040517f08c379a000000000000000000000000000000000000000000000000000000000815260040180806020018281038252601d8152602001807f436f6d706f7361626c65546f6b656e3a2063616e6e6f7420626520307800000081525060200191505060405180910390fd5b600061404482612aae565b60601c90503373ffffffffffffffffffffffffffffffffffffffff168173ffffffffffffffffffffffffffffffffffffffff1614806141095750600e60008273ffffffffffffffffffffffffffffffffffffffff1673ffffffffffffffffffffffffffffffffffffffff16815260200190815260200160002060003373ffffffffffffffffffffffffffffffffffffffff1673ffffffffffffffffffffffffffffffffffffffff16815260200190815260200160002060009054906101000a900460ff165b806141af57503373ffffffffffffffffffffffffffffffffffffffff16600c60008373ffffffffffffffffffffffffffffffffffffffff1673ffffffffffffffffffffffffffffffffffffffff168152602001908152602001600020600084815260200190815260200160002060009054906101000a900473ffffffffffffffffffffffffffffffffffffffff1673ffffffffffffffffffffffffffffffffffffffff16145b614204576040517f08c379a00000000000000000000000000000000000000000000000000000000081526004018080602001828103825260288152602001806182776028913960400191505060405180910390fd5b61420f82858561560a565b606063095ea7b33085604051602401808373ffffffffffffffffffffffffffffffffffffffff168152602001828152602001925050506040516020818303038152906040529060e01b6020820180517bffffffffffffffffffffffffffffffffffffffffffffffffffffffff838183161783525050505090506000818251602084016000895af1508473ffffffffffffffffffffffffffffffffffffffff166323b872dd3088876040518463ffffffff1660e01b8152600401808473ffffffffffffffffffffffffffffffffffffffff1681526020018373ffffffffffffffffffffffffffffffffffffffff1681526020018281526020019350505050600060405180830381600087803b15801561432657600080fd5b505af115801561433a573d6000803e3d6000fd5b505050508473ffffffffffffffffffffffffffffffffffffffff168673ffffffffffffffffffffffffffffffffffffffff16847f0ef52e516fb5aec15a5d3587e5480481b702b26db93c8430eca78b61990fd3f6876040518082815260200191505060405180910390a450505050505050565b60008282905011614409576040517f08c379a0000000000000000000000000000000000000000000000000000000008152600401808060200182810382526049815260200180617d1b6049913960600191505060405180910390fd5b6144283373ffffffffffffffffffffffffffffffffffffffff16616ddc565b61447d576040517f08c379a000000000000000000000000000000000000000000000000000000000815260040180806020018281038252602d815260200180617f49602d913960400191505060405180910390fd5b6000608435905060208383905010156144a157600883839050026101000381901c90505b6144ad85823387615339565b5050505050565b60606144bf82616def565b614514576040517f08c379a000000000000000000000000000000000000000000000000000000000815260040180806020018281038252602f81526020018061818a602f913960400191505060405180910390fd5b6060600860008481526020019081526020016000208054600181600116156101000203166002900480601f0160208091040260200160405190810160405280929190818152602001828054600181600116156101000203166002900480156145bd5780601f10614592576101008083540402835291602001916145bd565b820191906000526020600020905b8154815290600101906020018083116145a057829003601f168201915b505050505090506000600980546001816001161561010002031660029004905014156145ec5780915050614798565b6000815111156146c55760098160405160200180838054600181600116156101000203166002900480156146575780601f10614635576101008083540402835291820191614657565b820191906000526020600020905b815481529060010190602001808311614643575b505082805190602001908083835b602083106146885780518252602082019150602081019050602083039250614665565b6001836020036101000a03801982511681845116808217855250505050505090500192505050604051602081830303815290604052915050614798565b60096146d084616e0c565b604051602001808380546001816001161561010002031660029004801561472e5780601f1061470c57610100808354040283529182019161472e565b820191906000526020600020905b81548152906001019060200180831161471a575b505082805190602001908083835b6020831061475f578051825260208201915060208101905060208303925061473c565b6001836020036101000a038019825116818451168082178552505050505050905001925050506040516020818303038152906040529150505b919050565b600073ffffffffffffffffffffffffffffffffffffffff168573ffffffffffffffffffffffffffffffffffffffff161415614840576040517f08c379a000000000000000000000000000000000000000000000000000000000815260040180806020018281038252601f8152602001807f436f6d706f7361626c65546f6b656e3a20746f2063616e27742062652030780081525060200191505060405180910390fd5b600061484b87612aae565b60601c90503373ffffffffffffffffffffffffffffffffffffffff168173ffffffffffffffffffffffffffffffffffffffff1614806149105750600e60008273ffffffffffffffffffffffffffffffffffffffff1673ffffffffffffffffffffffffffffffffffffffff16815260200190815260200160002060003373ffffffffffffffffffffffffffffffffffffffff1673ffffffffffffffffffffffffffffffffffffffff16815260200190815260200160002060009054906101000a900460ff165b806149b657503373ffffffffffffffffffffffffffffffffffffffff16600c60008373ffffffffffffffffffffffffffffffffffffffff1673ffffffffffffffffffffffffffffffffffffffff168152602001908152602001600020600089815260200190815260200160002060009054906101000a900473ffffffffffffffffffffffffffffffffffffffff1673ffffffffffffffffffffffffffffffffffffffff16145b614a0b576040517f08c379a000000000000000000000000000000000000000000000000000000000815260040180806020018281038252602d8152602001806181db602d913960400191505060405180910390fd5b614a168786866168ec565b8473ffffffffffffffffffffffffffffffffffffffff1663be45fd62878686866040518563ffffffff1660e01b8152600401808573ffffffffffffffffffffffffffffffffffffffff168152602001848152602001806020018281038252848482818152602001925080828437600081840152601f19601f82011690508083019250505095505050505050602060405180830381600087803b158015614abb57600080fd5b505af1158015614acf573d6000803e3d6000fd5b505050506040513d6020811015614ae557600080fd5b8101908080519060200190929190505050614b4b576040517f08c379a000000000000000000000000000000000000000000000000000000000815260040180806020018281038252602881526020018061806b6028913960400191505060405180910390fd5b8473ffffffffffffffffffffffffffffffffffffffff168673ffffffffffffffffffffffffffffffffffffffff16887fa8352277873fc0d2b233b8127433da351a4164fa701ed6ff79655694222932c4876040518082815260200191505060405180910390a450505050505050565b60006016600084815260200190815260200160002060008373ffffffffffffffffffffffffffffffffffffffff1673ffffffffffffffffffffffffffffffffffffffff16815260200190815260200160002054905092915050565b60008073ffffffffffffffffffffffffffffffffffffffff168373ffffffffffffffffffffffffffffffffffffffff161415614c9c576040517f08c379a00000000000000000000000000000000000000000000000000000000081526004018080602001828103825260228152602001806181b96022913960400191505060405180910390fd5b600073ffffffffffffffffffffffffffffffffffffffff168273ffffffffffffffffffffffffffffffffffffffff161415614d22576040517f08c379a00000000000000000000000000000000000000000000000000000000081526004018080602001828103825260258152602001806182d06025913960400191505060405180910390fd5b600e60008473ffffffffffffffffffffffffffffffffffffffff1673ffffffffffffffffffffffffffffffffffffffff16815260200190815260200160002060008373ffffffffffffffffffffffffffffffffffffffff1673ffffffffffffffffffffffffffffffffffffffff16815260200190815260200160002060009054906101000a900460ff16905092915050565b600080601360008573ffffffffffffffffffffffffffffffffffffffff1673ffffffffffffffffffffffffffffffffffffffff16815260200190815260200160002060008481526020019081526020016000205490506000811180614e7a575060006012600083815260200190815260200160002060008673ffffffffffffffffffffffffffffffffffffffff1673ffffffffffffffffffffffffffffffffffffffff168152602001908152602001600020600085815260200190815260200160002054115b614ecf576040517f08c379a00000000000000000000000000000000000000000000000000000000081526004018080602001828103825260218152602001806183166021913960400191505060405180910390fd5b600b600082815260200190815260200160002060009054906101000a900473ffffffffffffffffffffffffffffffffffffffff1660601b60e063cd740db560e01b7bffffffffffffffffffffffffffffffffffffffffffffffffffffffff1916901b7bffffffffffffffffffffffffffffffffffffffffffffffffffffffff19161781816bffffffffffffffffffffffff19169150915091509250929050565b600080600073ffffffffffffffffffffffffffffffffffffffff168473ffffffffffffffffffffffffffffffffffffffff1614614fbd57614fb08484616f53565b8094508192505050614ff4565b600b600084815260200190815260200160002060009054906101000a900473ffffffffffffffffffffffffffffffffffffffff1690505b5b3073ffffffffffffffffffffffffffffffffffffffff168173ffffffffffffffffffffffffffffffffffffffff161415615040576150338184616f53565b8094508192505050614ff5565b6000606063ed81cdda3086604051602401808373ffffffffffffffffffffffffffffffffffffffff168152602001828152602001925050506040516020818303038152906040529060e01b6020820180517bffffffffffffffffffffffffffffffffffffffffffffffffffffffff83818316178352505050509050602081825160208401865afa915081156150d457805193505b60011515821515148015615111575063cd740db560e01b7bffffffffffffffffffffffffffffffffffffffffffffffffffffffff191660e085901c145b1561511e57505050615182565b8260601b60e063cd740db560e01b7bffffffffffffffffffffffffffffffffffffffffffffffffffffffff1916901b7bffffffffffffffffffffffffffffffffffffffffffffffffffffffff1916176bffffffffffffffffffffffff191693505050505b92915050565b60008083839050116151e5576040517f08c379a000000000000000000000000000000000000000000000000000000000815260040180806020018281038252604b815260200180618337604b913960600191505060405180910390fd5b60006084359050602084849050101561520957600884849050026101000381901c90505b61521586823388615c1a565b600073ffffffffffffffffffffffffffffffffffffffff163373ffffffffffffffffffffffffffffffffffffffff16636352211e876040518263ffffffff1660e01b81526004018082815260200191505060206040518083038186803b15801561527e57600080fd5b505afa158015615292573d6000803e3d6000fd5b505050506040513d60208110156152a857600080fd5b810190808051906020019092919050505073ffffffffffffffffffffffffffffffffffffffff161415615326576040517f08c379a00000000000000000000000000000000000000000000000000000000081526004018080602001828103825260278152602001806180b56027913960400191505060405180910390fd5b63150b7a0260e01b915050949350505050565b600073ffffffffffffffffffffffffffffffffffffffff16600b600085815260200190815260200160002060009054906101000a900473ffffffffffffffffffffffffffffffffffffffff1673ffffffffffffffffffffffffffffffffffffffff1614156153f2576040517f08c379a0000000000000000000000000000000000000000000000000000000008152600401808060200182810382526029815260200180617c9f6029913960400191505060405180910390fd5b600081141561540057615604565b60006016600085815260200190815260200160002060008473ffffffffffffffffffffffffffffffffffffffff1673ffffffffffffffffffffffffffffffffffffffff168152602001908152602001600020549050600081141561553e5760146000858152602001908152602001600020805490506015600086815260200190815260200160002060008573ffffffffffffffffffffffffffffffffffffffff1673ffffffffffffffffffffffffffffffffffffffff1681526020019081526020016000208190555060146000858152602001908152602001600020839080600181540180825580915050600190039060005260206000200160009091909190916101000a81548173ffffffffffffffffffffffffffffffffffffffff021916908373ffffffffffffffffffffffffffffffffffffffff1602179055505b816016600086815260200190815260200160002060008573ffffffffffffffffffffffffffffffffffffffff1673ffffffffffffffffffffffffffffffffffffffff168152602001908152602001600020600082825401925050819055508273ffffffffffffffffffffffffffffffffffffffff16848673ffffffffffffffffffffffffffffffffffffffff167f684ce28ace37552c6bfb98b7cceda8ed55327078eafb5dfb31218e0856382763856040518082815260200191505060405180910390a4505b50505050565b60006012600085815260200190815260200160002060008473ffffffffffffffffffffffffffffffffffffffff1673ffffffffffffffffffffffffffffffffffffffff168152602001908152602001600020600083815260200190815260200160002054905060008114156156e7576040517f08c379a000000000000000000000000000000000000000000000000000000000815260040180806020018281038252601f8152602001807f4368696c6420746f6b656e206e6f74206f776e656420627920746f6b656e2e0081525060200191505060405180910390fd5b600060016011600087815260200190815260200160002060008673ffffffffffffffffffffffffffffffffffffffff1673ffffffffffffffffffffffffffffffffffffffff1681526020019081526020016000208054905003905060006011600087815260200190815260200160002060008673ffffffffffffffffffffffffffffffffffffffff1673ffffffffffffffffffffffffffffffffffffffff168152602001908152602001600020828154811061579f57fe5b906000526020600020015490508084141561588857806011600088815260200190815260200160002060008773ffffffffffffffffffffffffffffffffffffffff1673ffffffffffffffffffffffffffffffffffffffff168152602001908152602001600020600185038154811061581357fe5b9060005260206000200181905550826012600088815260200190815260200160002060008773ffffffffffffffffffffffffffffffffffffffff1673ffffffffffffffffffffffffffffffffffffffff1681526020019081526020016000206000838152602001908152602001600020819055505b6011600087815260200190815260200160002060008673ffffffffffffffffffffffffffffffffffffffff1673ffffffffffffffffffffffffffffffffffffffff1681526020019081526020016000208054806158e157fe5b600190038181906000526020600020016000905590556012600087815260200190815260200160002060008673ffffffffffffffffffffffffffffffffffffffff1673ffffffffffffffffffffffffffffffffffffffff168152602001908152602001600020600085815260200190815260200160002060009055601360008673ffffffffffffffffffffffffffffffffffffffff1673ffffffffffffffffffffffffffffffffffffffff1681526020019081526020016000206000858152602001908152602001600020600090556000821415615c125760006001600f6000898152602001908152602001600020805490500390506000600f600089815260200190815260200160002082815481106159f757fe5b9060005260206000200160009054906101000a900473ffffffffffffffffffffffffffffffffffffffff1690508073ffffffffffffffffffffffffffffffffffffffff168773ffffffffffffffffffffffffffffffffffffffff1614615b6a576000601060008a815260200190815260200160002060008973ffffffffffffffffffffffffffffffffffffffff1673ffffffffffffffffffffffffffffffffffffffff16815260200190815260200160002054905081600f60008b81526020019081526020016000208281548110615acb57fe5b9060005260206000200160006101000a81548173ffffffffffffffffffffffffffffffffffffffff021916908373ffffffffffffffffffffffffffffffffffffffff16021790555080601060008b815260200190815260200160002060008473ffffffffffffffffffffffffffffffffffffffff1673ffffffffffffffffffffffffffffffffffffffff16815260200190815260200160002081905550505b600f6000898152602001908152602001600020805480615b8657fe5b6001900381819060005260206000200160006101000a81549073ffffffffffffffffffffffffffffffffffffffff021916905590556010600089815260200190815260200160002060008873ffffffffffffffffffffffffffffffffffffffff1673ffffffffffffffffffffffffffffffffffffffff1681526020019081526020016000206000905550505b505050505050565b600073ffffffffffffffffffffffffffffffffffffffff16600b600085815260200190815260200160002060009054906101000a900473ffffffffffffffffffffffffffffffffffffffff1673ffffffffffffffffffffffffffffffffffffffff161415615cd3576040517f08c379a0000000000000000000000000000000000000000000000000000000008152600401808060200182810382526029815260200180617c9f6029913960400191505060405180910390fd5b60006012600085815260200190815260200160002060008473ffffffffffffffffffffffffffffffffffffffff1673ffffffffffffffffffffffffffffffffffffffff16815260200190815260200160002060008381526020019081526020016000205414615d8d576040517f08c379a0000000000000000000000000000000000000000000000000000000008152600401808060200182810382526037815260200180617fc26037913960400191505060405180910390fd5b60006011600085815260200190815260200160002060008473ffffffffffffffffffffffffffffffffffffffff1673ffffffffffffffffffffffffffffffffffffffff1681526020019081526020016000208054905090506000811415615ece57600f6000858152602001908152602001600020805490506010600086815260200190815260200160002060008573ffffffffffffffffffffffffffffffffffffffff1673ffffffffffffffffffffffffffffffffffffffff16815260200190815260200160002081905550600f6000858152602001908152602001600020839080600181540180825580915050600190039060005260206000200160009091909190916101000a81548173ffffffffffffffffffffffffffffffffffffffff021916908373ffffffffffffffffffffffffffffffffffffffff1602179055505b6011600085815260200190815260200160002060008473ffffffffffffffffffffffffffffffffffffffff1673ffffffffffffffffffffffffffffffffffffffff168152602001908152602001600020829080600181540180825580915050600190039060005260206000200160009091909190915055600181016012600086815260200190815260200160002060008573ffffffffffffffffffffffffffffffffffffffff1673ffffffffffffffffffffffffffffffffffffffff16815260200190815260200160002060008481526020019081526020016000208190555083601360008573ffffffffffffffffffffffffffffffffffffffff1673ffffffffffffffffffffffffffffffffffffffff1681526020019081526020016000206000848152602001908152602001600020819055508273ffffffffffffffffffffffffffffffffffffffff16848673ffffffffffffffffffffffffffffffffffffffff167f0371ddf2288ad1ba92626a7e31c86a9d006e592cfe57d7d946ef08b13457c08b856040518082815260200191505060405180910390a45050505050565b600061607e826000016170ab565b9050919050565b600073ffffffffffffffffffffffffffffffffffffffff168373ffffffffffffffffffffffffffffffffffffffff16141561610b576040517f08c379a00000000000000000000000000000000000000000000000000000000081526004018080602001828103825260218152602001806182f56021913960400191505060405180910390fd5b8273ffffffffffffffffffffffffffffffffffffffff16600b600083815260200190815260200160002060009054906101000a900473ffffffffffffffffffffffffffffffffffffffff1673ffffffffffffffffffffffffffffffffffffffff16146161df576040517f08c379a000000000000000000000000000000000000000000000000000000000815260040180806020018281038252601e8152602001807f436f6d706f7361626c65546f6b656e3a204e6f7420746865206f776e6572000081525060200191505060405180910390fd5b600073ffffffffffffffffffffffffffffffffffffffff168273ffffffffffffffffffffffffffffffffffffffff161415616282576040517f08c379a000000000000000000000000000000000000000000000000000000000815260040180806020018281038252601f8152602001807f436f6d706f7361626c65546f6b656e3a20546f2063616e27742062652030780081525060200191505060405180910390fd5b8273ffffffffffffffffffffffffffffffffffffffff163373ffffffffffffffffffffffffffffffffffffffff161461656457600080606063ed81cdda3085604051602401808373ffffffffffffffffffffffffffffffffffffffff168152602001828152602001925050506040516020818303038152906040529060e01b6020820180517bffffffffffffffffffffffffffffffffffffffffffffffffffffffff83818316178352505050509050602081825160208401895afa9150811561634a57805192505b6001151582151514156163db5763cd740db560e01b7bffffffffffffffffffffffffffffffffffffffffffffffffffffffff191660e084901c14156163da576040517f08c379a000000000000000000000000000000000000000000000000000000000815260040180806020018281038252603c815260200180617e15603c913960400191505060405180910390fd5b5b600e60008773ffffffffffffffffffffffffffffffffffffffff1673ffffffffffffffffffffffffffffffffffffffff16815260200190815260200160002060003373ffffffffffffffffffffffffffffffffffffffff1673ffffffffffffffffffffffffffffffffffffffff16815260200190815260200160002060009054906101000a900460ff168061650b57503373ffffffffffffffffffffffffffffffffffffffff16600c60008873ffffffffffffffffffffffffffffffffffffffff1673ffffffffffffffffffffffffffffffffffffffff168152602001908152602001600020600086815260200190815260200160002060009054906101000a900473ffffffffffffffffffffffffffffffffffffffff1673ffffffffffffffffffffffffffffffffffffffff16145b616560576040517f08c379a000000000000000000000000000000000000000000000000000000000815260040180806020018281038252603b81526020018061814f603b913960400191505060405180910390fd5b5050505b600073ffffffffffffffffffffffffffffffffffffffff16600c60008573ffffffffffffffffffffffffffffffffffffffff1673ffffffffffffffffffffffffffffffffffffffff168152602001908152602001600020600083815260200190815260200160002060009054906101000a900473ffffffffffffffffffffffffffffffffffffffff1673ffffffffffffffffffffffffffffffffffffffff16146166d857600c60008473ffffffffffffffffffffffffffffffffffffffff1673ffffffffffffffffffffffffffffffffffffffff168152602001908152602001600020600082815260200190815260200160002060006101000a81549073ffffffffffffffffffffffffffffffffffffffff021916905580600073ffffffffffffffffffffffffffffffffffffffff168473ffffffffffffffffffffffffffffffffffffffff167f8c5be1e5ebec7d5bd14f71427d1e84f3dd0314c0f7b2291e5b200ac8c7c3b92560405160405180910390a45b8173ffffffffffffffffffffffffffffffffffffffff168373ffffffffffffffffffffffffffffffffffffffff1614616846576000600d60008573ffffffffffffffffffffffffffffffffffffffff1673ffffffffffffffffffffffffffffffffffffffff168152602001908152602001600020541161675457fe5b600d60008473ffffffffffffffffffffffffffffffffffffffff1673ffffffffffffffffffffffffffffffffffffffff168152602001908152602001600020600081548092919060019003919050555081600b600083815260200190815260200160002060006101000a81548173ffffffffffffffffffffffffffffffffffffffff021916908373ffffffffffffffffffffffffffffffffffffffff160217905550600d60008373ffffffffffffffffffffffffffffffffffffffff1673ffffffffffffffffffffffffffffffffffffffff168152602001908152602001600020600081548092919060010191905055505b808273ffffffffffffffffffffffffffffffffffffffff168473ffffffffffffffffffffffffffffffffffffffff167fddf252ad1be2c89b69c2b068fc378daa952ba7f163c4a11628f55a4df523b3ef60405160405180910390a4505050565b60006168b583600001836170bc565b60001c905092915050565b6000806000806168d3866000018661713f565b915091508160001c8160001c9350935050509250929050565b60008114156168fa57616c69565b60006016600085815260200190815260200160002060008473ffffffffffffffffffffffffffffffffffffffff1673ffffffffffffffffffffffffffffffffffffffff168152602001908152602001600020549050818110156169a8576040517f08c379a0000000000000000000000000000000000000000000000000000000008152600401808060200182810382526038815260200180617ecb6038913960400191505060405180910390fd5b60008282039050806016600087815260200190815260200160002060008673ffffffffffffffffffffffffffffffffffffffff1673ffffffffffffffffffffffffffffffffffffffff168152602001908152602001600020819055506000811415616c66576000600160146000888152602001908152602001600020805490500390506000601460008881526020019081526020016000208281548110616a4b57fe5b9060005260206000200160009054906101000a900473ffffffffffffffffffffffffffffffffffffffff1690508073ffffffffffffffffffffffffffffffffffffffff168673ffffffffffffffffffffffffffffffffffffffff1614616bbe5760006015600089815260200190815260200160002060008873ffffffffffffffffffffffffffffffffffffffff1673ffffffffffffffffffffffffffffffffffffffff16815260200190815260200160002054905081601460008a81526020019081526020016000208281548110616b1f57fe5b9060005260206000200160006101000a81548173ffffffffffffffffffffffffffffffffffffffff021916908373ffffffffffffffffffffffffffffffffffffffff16021790555080601560008a815260200190815260200160002060008473ffffffffffffffffffffffffffffffffffffffff1673ffffffffffffffffffffffffffffffffffffffff16815260200190815260200160002081905550505b60146000888152602001908152602001600020805480616bda57fe5b6001900381819060005260206000200160006101000a81549073ffffffffffffffffffffffffffffffffffffffff021916905590556015600088815260200190815260200160002060008773ffffffffffffffffffffffffffffffffffffffff1673ffffffffffffffffffffffffffffffffffffffff1681526020019081526020016000206000905550505b50505b505050565b600033905090565b6000616c8182616def565b616cd6576040517f08c379a000000000000000000000000000000000000000000000000000000000815260040180806020018281038252602c815260200180617e9f602c913960400191505060405180910390fd5b6000616ce183612c6b565b90508073ffffffffffffffffffffffffffffffffffffffff168473ffffffffffffffffffffffffffffffffffffffff161480616d5057508373ffffffffffffffffffffffffffffffffffffffff16616d3884611948565b73ffffffffffffffffffffffffffffffffffffffff16145b80616d615750616d608185614c15565b5b91505092915050565b616d758484846171d8565b616d818484848461741b565b616dd6576040517f08c379a0000000000000000000000000000000000000000000000000000000008152600401808060200182810382526032815260200180617ce96032913960400191505060405180910390fd5b50505050565b600080823b905060008111915050919050565b6000616e0582600261763490919063ffffffff16565b9050919050565b60606000821415616e54576040518060400160405280600181526020017f30000000000000000000000000000000000000000000000000000000000000008152509050616f4e565b600082905060005b60008214616e7e578080600101915050600a8281616e7657fe5b049150616e5c565b60608167ffffffffffffffff81118015616e9757600080fd5b506040519080825280601f01601f191660200182016040528015616eca5781602001600182028036833780820191505090505b50905060006001830390508593505b60008414616f4657600a8481616eeb57fe5b0660300160f81b82828060019003935081518110616f0557fe5b60200101907effffffffffffffffffffffffffffffffffffffffffffffffffffffffffffff1916908160001a905350600a8481616f3e57fe5b049350616ed9565b819450505050505b919050565b600080601360008573ffffffffffffffffffffffffffffffffffffffff1673ffffffffffffffffffffffffffffffffffffffff16815260200190815260200160002060008481526020019081526020016000205490506000811180617019575060006012600083815260200190815260200160002060008673ffffffffffffffffffffffffffffffffffffffff1673ffffffffffffffffffffffffffffffffffffffff168152602001908152602001600020600085815260200190815260200160002054115b61706e576040517f08c379a00000000000000000000000000000000000000000000000000000000081526004018080602001828103825260218152602001806183166021913960400191505060405180910390fd5b600b600082815260200190815260200160002060009054906101000a900473ffffffffffffffffffffffffffffffffffffffff1691509250929050565b600081600001805490509050919050565b60008183600001805490501161711d576040517f08c379a0000000000000000000000000000000000000000000000000000000008152600401808060200182810382526022815260200180617c7d6022913960400191505060405180910390fd5b82600001828154811061712c57fe5b9060005260206000200154905092915050565b600080828460000180549050116171a1576040517f08c379a00000000000000000000000000000000000000000000000000000000081526004018080602001828103825260228152602001806180936022913960400191505060405180910390fd5b60008460000184815481106171b257fe5b906000526020600020906002020190508060000154816001015492509250509250929050565b8273ffffffffffffffffffffffffffffffffffffffff166171f882612c6b565b73ffffffffffffffffffffffffffffffffffffffff1614617264576040517f08c379a00000000000000000000000000000000000000000000000000000000081526004018080602001828103825260298152602001806181266029913960400191505060405180910390fd5b600073ffffffffffffffffffffffffffffffffffffffff168273ffffffffffffffffffffffffffffffffffffffff1614156172ea576040517f08c379a0000000000000000000000000000000000000000000000000000000008152600401808060200182810382526024815260200180617df16024913960400191505060405180910390fd5b6172f583838361764e565b617300600082617653565b61735181600160008673ffffffffffffffffffffffffffffffffffffffff1673ffffffffffffffffffffffffffffffffffffffff16815260200190815260200160002061770c90919063ffffffff16565b506173a381600160008573ffffffffffffffffffffffffffffffffffffffff1673ffffffffffffffffffffffffffffffffffffffff16815260200190815260200160002061772690919063ffffffff16565b506173ba818360026177409092919063ffffffff16565b50808273ffffffffffffffffffffffffffffffffffffffff168473ffffffffffffffffffffffffffffffffffffffff167fddf252ad1be2c89b69c2b068fc378daa952ba7f163c4a11628f55a4df523b3ef60405160405180910390a4505050565b600061743c8473ffffffffffffffffffffffffffffffffffffffff16616ddc565b617449576001905061762c565b60606175b363150b7a0260e01b61745e616c6e565b888787604051602401808573ffffffffffffffffffffffffffffffffffffffff1681526020018473ffffffffffffffffffffffffffffffffffffffff16815260200183815260200180602001828103825283818151815260200191508051906020019080838360005b838110156174e25780820151818401526020810190506174c7565b50505050905090810190601f16801561750f5780820380516001836020036101000a031916815260200191505b5095505050505050604051602081830303815290604052907bffffffffffffffffffffffffffffffffffffffffffffffffffffffff19166020820180517bffffffffffffffffffffffffffffffffffffffffffffffffffffffff8381831617835250505050604051806060016040528060328152602001617ce9603291398773ffffffffffffffffffffffffffffffffffffffff166177759092919063ffffffff16565b905060008180602001905160208110156175cc57600080fd5b8101908080519060200190929190505050905063150b7a0260e01b7bffffffffffffffffffffffffffffffffffffffffffffffffffffffff1916817bffffffffffffffffffffffffffffffffffffffffffffffffffffffff191614925050505b949350505050565b6000617646836000018360001b61778d565b905092915050565b505050565b816004600083815260200190815260200160002060006101000a81548173ffffffffffffffffffffffffffffffffffffffff021916908373ffffffffffffffffffffffffffffffffffffffff160217905550808273ffffffffffffffffffffffffffffffffffffffff166176c683612c6b565b73ffffffffffffffffffffffffffffffffffffffff167f8c5be1e5ebec7d5bd14f71427d1e84f3dd0314c0f7b2291e5b200ac8c7c3b92560405160405180910390a45050565b600061771e836000018360001b6177b0565b905092915050565b6000617738836000018360001b617898565b905092915050565b600061776c846000018460001b8473ffffffffffffffffffffffffffffffffffffffff1660001b617908565b90509392505050565b606061778484846000856179e4565b90509392505050565b600080836001016000848152602001908152602001600020541415905092915050565b6000808360010160008481526020019081526020016000205490506000811461788c57600060018203905060006001866000018054905003905060008660000182815481106177fb57fe5b906000526020600020015490508087600001848154811061781857fe5b906000526020600020018190555060018301876001016000838152602001908152602001600020819055508660000180548061785057fe5b60019003818190600052602060002001600090559055866001016000878152602001908152602001600020600090556001945050505050617892565b60009150505b92915050565b60006178a48383617b8d565b6178fd578260000182908060018154018082558091505060019003906000526020600020016000909190919091505582600001805490508360010160008481526020019081526020016000208190555060019050617902565b600090505b92915050565b60008084600101600085815260200190815260200160002054905060008114156179af578460000160405180604001604052808681526020018581525090806001815401808255809150506001900390600052602060002090600202016000909190919091506000820151816000015560208201518160010155505084600001805490508560010160008681526020019081526020016000208190555060019150506179dd565b828560000160018303815481106179c257fe5b90600052602060002090600202016001018190555060009150505b9392505050565b606082471015617a3f576040517f08c379a0000000000000000000000000000000000000000000000000000000008152600401808060200182810382526026815260200180617e796026913960400191505060405180910390fd5b617a4885616ddc565b617aba576040517f08c379a000000000000000000000000000000000000000000000000000000000815260040180806020018281038252601d8152602001807f416464726573733a2063616c6c20746f206e6f6e2d636f6e747261637400000081525060200191505060405180910390fd5b600060608673ffffffffffffffffffffffffffffffffffffffff1685876040518082805190602001908083835b60208310617b0a5780518252602082019150602081019050602083039250617ae7565b6001836020036101000a03801982511681845116808217855250505050505090500191505060006040518083038185875af1925050503d8060008114617b6c576040519150601f19603f3d011682016040523d82523d6000602084013e617b71565b606091505b5091509150617b81828286617bb0565b92505050949350505050565b600080836001016000848152602001908152602001600020541415905092915050565b60608315617bc057829050617c75565b600083511115617bd35782518084602001fd5b816040517f08c379a00000000000000000000000000000000000000000000000000000000081526004018080602001828103825283818151815260200191508051906020019080838360005b83811015617c3a578082015181840152602081019050617c1f565b50505050905090810190601f168015617c675780820380516001836020036101000a031916815260200191505b509250505060405180910390fd5b939250505056fe456e756d657261626c655365743a20696e646578206f7574206f6620626f756e6473436f6d706f7361626c65546f6b656e3a205f746f6b656e496420646f6573206e6f742065786973742e436f6d706f7361626c65546f6b656e3a204f776e6572206973206e6f74207365744552433732313a207472616e7366657220746f206e6f6e20455243373231526563656976657220696d706c656d656e746572436f6d706f7361626c65546f6b656e3a205f64617461206d75737420636f6e7461696e2074686520746f6b656e496420746f207472616e736665722074686520746f6b656e20746f2e436f6e7472616374206164647265737320646f6573206e6f7420657869737420666f72207468697320746f6b656e20616e6420696e6465782e436f6d706f7361626c65546f6b656e3a204552433230207472616e73666572206661696c65642e436f6d706f7361626c65546f6b656e3a2056616c75652067726561746572207468616e2072656d61696e696e674552433732313a207472616e7366657220746f20746865207a65726f2061646472657373436f6d706f7361626c65546f6b656e3a20546f6b656e206973206368696c64206f66206f7468657220746f7020646f776e20636f6d706f7361626c65436f6d706f7361626c65546f6b656e3a20746f6b656e496420213d205f66726f6d546f6b656e4964416464726573733a20696e73756666696369656e742062616c616e636520666f722063616c6c4552433732313a206f70657261746f7220717565727920666f72206e6f6e6578697374656e7420746f6b656e436f6d706f7361626c65546f6b656e3a204e6f7420656e6f75676820746f6b656e20617661696c61626c6520746f207472616e736665722e436f6d706f7361626c65546f6b656e3a2053656e646572206e6f7420617070726f766564436f6d706f7361626c65546f6b656e3a204572726f7220696e20617070726f76616c436f6d706f7361626c65546f6b656e3a206d73672e73656e646572206973206e6f74206120636f6e7472616374436f6d706f7361626c65546f6b656e3a206e6f7420616c6c6f77656420746f206765744552433230436f6d706f7361626c65546f6b656e3a204f776e6572206e6f7420737065636966696564436f6d706f7361626c65546f6b656e3a204368696c6420746f6b656e2068617320616c7265616479206265656e2072656365697665642e436f6d706f7361626c65546f6b656e3a20746f6b656e4964207c7c205f6368696c64546f6b656e4964206e6f7420666f756e64546f6b656e20646f6573206e6f74206f776e2061206368696c6420746f6b656e20617420636f6e7472616374206164647265737320616e6420696e6465782e436f6d706f7361626c65546f6b656e3a20455243323233207472616e73666572206661696c65642e456e756d657261626c654d61703a20696e646578206f7574206f6620626f756e6473436f6d706f7361626c65546f6b656e3a204368696c6420746f6b656e206e6f74206f776e65642e436f6d706f7361626c65546f6b656e3a20436f6e7472616374206164647265737320646f6573206e6f7420657869737420666f72207468697320746f6b656e20616e6420696e6465782e4552433732313a207472616e73666572206f6620746f6b656e2074686174206973206e6f74206f776e436f6d706f7361626c65546f6b656e3a2053656e646572206e6f7420616e206f70657261746f72206f7220617070726f76656420616464726573734552433732314d657461646174613a2055524920717565727920666f72206e6f6e6578697374656e7420746f6b656e436f6d706f7361626c65546f6b656e3a204f776e65722063616e2774206265203078436f6d706f7361626c65546f6b656e3a2053656e646572206973206e6f742074686520726f6f74206f776e65725f64617461206d75737420636f6e7461696e207468652075696e7432353620746f6b656e496420746f207472616e7366657220746865206368696c6420746f6b656e20746f2e436f6d706f7361626c65546f6b656e3a2063616c6c20746f20616c6c6f77616e6365206661696c6564436f6d706f7361626c65546f6b656e3a2073656e646572206973206e6f7420746865206f776e65724552433732313a207472616e736665722063616c6c6572206973206e6f74206f776e6572206e6f7220617070726f766564436f6d706f7361626c65546f6b656e3a204f70657261746f722063616e2774206265203078436f6d706f7361626c65546f6b656e3a2046726f6d2063616e2774206265203078436f6d706f7361626c65546f6b656e3a204e6f20706172656e74546f6b656e4964436f6d706f7361626c65546f6b656e3a205f64617461206d75737420636f6e7461696e2074686520746f6b656e496420746f207472616e7366657220746865206368696c6420746f6b656ea2646970667358221220f52f286d6815105b0937e54b84ff1c21a31629acf19821e384f9e36476a2bcfd64736f6c634300060c0033",
  "immutableReferences": {},
  "source": "// SPDX-License-Identifier: MIT\npragma solidity >=0.6.0 <0.7.0;\n\n// import \"@openzeppelin/contracts/token/ERC721/ERC721.sol\";\nimport \"../ERC721/ERC721.sol\";\nimport \"@openzeppelin/contracts/token/ERC721/IERC721Receiver.sol\";\nimport \"@openzeppelin/contracts/utils/Address.sol\";\n\nimport \"../interfaces/erc998/IERC998ERC20TopDown.sol\";\nimport \"../interfaces/erc998/IERC998ERC721BottomUp.sol\";\nimport \"../interfaces/erc998/IERC998ERC721TopDown.sol\";\n\ncontract ComposableToken is ERC721, ERC998ERC721TopDown, ERC998ERC721TopDownEnumerable, IERC998ERC20TopDown, ERC998ERC20TopDownEnumerable {\n\n    using Address for address;\n\n    // return this.rootOwnerOf.selector ^ this.rootOwnerOfChild.selector ^\n    //   this.tokenOwnerOf.selector ^ this.ownerOfChild.selector;\n    // bytes32 constant ERC998_MAGIC_VALUE = 0xcd740db5;\n    bytes4 constant ERC998_MAGIC_VALUE = 0xcd740db5;\n\n    uint256 tokenCount = 0;\n\n    // tokenId => token owner\n    mapping(uint256 => address) internal tokenIdToTokenOwner;\n\n    // root token owner address => (tokenId => approved address)\n    mapping(address => mapping(uint256 => address)) internal rootOwnerAndTokenIdToApprovedAddress;\n\n    // token owner address => token count\n    mapping(address => uint256) internal tokenOwnerToTokenCount;\n\n    // token owner => (operator address => bool)\n    mapping(address => mapping(address => bool)) internal tokenOwnerToOperators;\n\n    // Equals to `bytes4(keccak256(\"onERC721Received(address,address,uint256,bytes)\"))`\n    // which can be also obtained as `IERC721Receiver(0).onERC721Received.selector`\n    bytes4 private constant _ERC721_RECEIVED = 0x150b7a02;\n\n    constructor(string memory name, string memory symbol, string memory baseURI) ERC721(name, symbol) public {\n        _setBaseURI(baseURI);\n    }\n\n    // wrapper on minting new 721\n    function mint(address _to) public returns (uint256) {\n        tokenCount++;\n        uint256 tokenCount_ = tokenCount;\n        tokenIdToTokenOwner[tokenCount_] = _to;\n        tokenOwnerToTokenCount[_to]++;\n        return tokenCount_;\n    }\n\n    ////////////////////////////////////////////////////////\n    // ERC721 implementation\n    ////////////////////////////////////////////////////////\n\n    // function isContract(address _addr) internal view returns (bool) {\n    //     uint256 size;\n    //     assembly { size := extcodesize(_addr) }\n    //     return size > 0;\n    // }\n\n    function rootOwnerOf(uint256 _tokenId) public view override returns (bytes32 rootOwner) {\n        return rootOwnerOfChild(address(0), _tokenId);\n    }\n\n    // returns the owner at the top of the tree of composables\n    // Use Cases handled:\n    // Case 1: Token owner is this contract and token.\n    // Case 2: Token owner is other top-down composable\n    // Case 3: Token owner is other contract\n    // Case 4: Token owner is user\n    function rootOwnerOfChild(address _childContract, uint256 _childTokenId) public view override returns (bytes32 rootOwner) {\n        address rootOwnerAddress;\n        if (_childContract != address(0)) {\n            (rootOwnerAddress, _childTokenId) = _ownerOfChild(_childContract, _childTokenId);\n        }\n        else {\n            rootOwnerAddress = tokenIdToTokenOwner[_childTokenId];\n        }\n        // Case 1: Token owner is this contract and token.\n        while (rootOwnerAddress == address(this)) {\n            (rootOwnerAddress, _childTokenId) = _ownerOfChild(rootOwnerAddress, _childTokenId);\n        }\n\n        bool callSuccess;\n        // bytes memory _calldata;\n        // 0xed81cdda == rootOwnerOfChild(address,uint256)\n        bytes memory _calldata = abi.encodeWithSelector(0xed81cdda, address(this), _childTokenId);\n        assembly {\n            callSuccess := staticcall(gas(), rootOwnerAddress, add(_calldata, 0x20), mload(_calldata), _calldata, 0x20)\n            if callSuccess {\n                rootOwner := mload(_calldata)\n            }\n        }\n        if(callSuccess == true && rootOwner >> 224 == ERC998_MAGIC_VALUE) {\n            // Case 2: Token owner is other top-down composable\n            return rootOwner;\n        }\n        else {\n            // Case 3: Token owner is other contract\n            // Or\n            // Case 4: Token owner is user\n            // return ERC998_MAGIC_VALUE << 224 | bytes32(rootOwnerAddress);\n            return ERC998_MAGIC_VALUE << 224 | bytes20(rootOwnerAddress);\n        }\n    }\n\n\n    // returns the owner at the top of the tree of composables\n\n    function ownerOf(uint256 _tokenId) public view override returns (address tokenOwner) {\n        tokenOwner = tokenIdToTokenOwner[_tokenId];\n        require(tokenOwner != address(0), \"ComposableToken: Owner is not set\");\n        return tokenOwner;\n    }\n\n    function balanceOf(address _tokenOwner) public view override returns (uint256) {\n        require(_tokenOwner != address(0), \"ComposableToken: Owner not specified\");\n        return tokenOwnerToTokenCount[_tokenOwner];\n    }\n\n\n    function approve(address _approved, uint256 _tokenId) public override {\n        // address rootOwner = address(rootOwnerOf(_tokenId));\n        address rootOwner = address(bytes20(rootOwnerOf(_tokenId)));\n        require(rootOwner == msg.sender || tokenOwnerToOperators[rootOwner][msg.sender], \"ComposableToken: Error in approval\");\n        rootOwnerAndTokenIdToApprovedAddress[rootOwner][_tokenId] = _approved;\n        emit Approval(rootOwner, _approved, _tokenId);\n    }\n\n    function getApproved(uint256 _tokenId) public override view returns (address)  {\n        // address rootOwner = address(rootOwnerOf(_tokenId));\n        address rootOwner = address(bytes20(rootOwnerOf(_tokenId)));\n        return rootOwnerAndTokenIdToApprovedAddress[rootOwner][_tokenId];\n    }\n\n    function setApprovalForAll(address _operator, bool _approved) public override {\n        require(_operator != address(0), \"ComposableToken: Operator can't be 0x\");\n        tokenOwnerToOperators[msg.sender][_operator] = _approved;\n        emit ApprovalForAll(msg.sender, _operator, _approved);\n    }\n\n    function isApprovedForAll(address _owner, address _operator) public view override returns (bool)  {\n        require(_owner != address(0), \"ComposableToken: Owner can't be 0x\");\n        require(_operator != address(0), \"ComposableToken: Operator can't be 0x\");\n        return tokenOwnerToOperators[_owner][_operator];\n    }\n\n\n    function _transferFrom(address _from, address _to, uint256 _tokenId) private {\n        require(_from != address(0), \"ComposableToken: From can't be 0x\");\n        require(tokenIdToTokenOwner[_tokenId] == _from, \"ComposableToken: Not the owner\");\n        require(_to != address(0), \"ComposableToken: To can't be 0x\");\n\n        if(msg.sender != _from) {\n            bytes32 rootOwner;\n            bool callSuccess;\n            // 0xed81cdda == rootOwnerOfChild(address,uint256)\n            bytes memory _calldata = abi.encodeWithSelector(0xed81cdda, address(this), _tokenId);\n            assembly {\n                callSuccess := staticcall(gas(), _from, add(_calldata, 0x20), mload(_calldata), _calldata, 0x20)\n                if callSuccess {\n                    rootOwner := mload(_calldata)\n                }\n            }\n            if(callSuccess == true) {\n                require(rootOwner >> 224 != ERC998_MAGIC_VALUE, \"ComposableToken: Token is child of other top down composable\");\n            }\n            require(tokenOwnerToOperators[_from][msg.sender] ||\n            rootOwnerAndTokenIdToApprovedAddress[_from][_tokenId] == msg.sender, \"ComposableToken: Sender not an operator or approved address\");\n        }\n\n        // clear approval\n        if (rootOwnerAndTokenIdToApprovedAddress[_from][_tokenId] != address(0)) {\n            delete rootOwnerAndTokenIdToApprovedAddress[_from][_tokenId];\n            emit Approval(_from, address(0), _tokenId);\n        }\n\n        // remove and transfer token\n        if (_from != _to) {\n            assert(tokenOwnerToTokenCount[_from] > 0);\n            tokenOwnerToTokenCount[_from]--;\n            tokenIdToTokenOwner[_tokenId] = _to;\n            tokenOwnerToTokenCount[_to]++;\n        }\n        emit Transfer(_from, _to, _tokenId);\n\n    }\n\n    function transferFrom(address _from, address _to, uint256 _tokenId) public override {\n        _transferFrom(_from, _to, _tokenId);\n    }\n\n    // function safeTransferFrom(address _from, address _to, uint256 _tokenId) external {\n    //     _transferFrom(_from, _to, _tokenId);\n    //     if (_to.isContract()) {\n    //         bytes4 retval = IERC721Receiver(_to).onERC721Received(msg.sender, _from, _tokenId, \"\");\n    //         require(retval == _ERC721_RECEIVED, \"ComposableToken: Failed to IERC721Receiver\");\n    //     }\n    // }\n\n    // function safeTransferFrom(address _from, address _to, uint256 _tokenId, bytes calldata _data) external {\n    //     _transferFrom(_from, _to, _tokenId);\n    //     if (_to.isContract()) {\n    //         bytes4 retval = IERC721Receiver(_to).onERC721Received(msg.sender, _from, _tokenId, _data);\n    //         require(retval == _ERC721_RECEIVED, \"ComposableToken: Failed to IERC721Receiver\");\n    //     }\n    // }\n\n    ////////////////////////////////////////////////////////\n    // ERC998ERC721 and ERC998ERC721Enumerable implementation\n    ////////////////////////////////////////////////////////\n\n    // tokenId => child contract\n    mapping(uint256 => address[]) private childContracts;\n\n    // tokenId => (child address => contract index+1)\n    mapping(uint256 => mapping(address => uint256)) private childContractIndex;\n\n    // tokenId => (child address => array of child tokens)\n    mapping(uint256 => mapping(address => uint256[])) private childTokens;\n\n    // tokenId => (child address => (child token => child index+1)\n    mapping(uint256 => mapping(address => mapping(uint256 => uint256))) private childTokenIndex;\n\n    // child address => childId => tokenId\n    mapping(address => mapping(uint256 => uint256)) internal childTokenOwner;\n\n\n    function removeChild(uint256 _tokenId, address _childContract, uint256 _childTokenId) private {\n        uint256 tokenIndex = childTokenIndex[_tokenId][_childContract][_childTokenId];\n        require(tokenIndex != 0, \"Child token not owned by token.\");\n\n        // remove child token\n        uint256 lastTokenIndex = childTokens[_tokenId][_childContract].length - 1;\n        uint256 lastToken = childTokens[_tokenId][_childContract][lastTokenIndex];\n        if (_childTokenId == lastToken) {\n            childTokens[_tokenId][_childContract][tokenIndex - 1] = lastToken;\n            childTokenIndex[_tokenId][_childContract][lastToken] = tokenIndex;\n        }\n        // childTokens[_tokenId][_childContract].length--;\n        childTokens[_tokenId][_childContract].pop();\n        delete childTokenIndex[_tokenId][_childContract][_childTokenId];\n        delete childTokenOwner[_childContract][_childTokenId];\n\n        // remove contract\n        if (lastTokenIndex == 0) {\n            uint256 lastContractIndex = childContracts[_tokenId].length - 1;\n            address lastContract = childContracts[_tokenId][lastContractIndex];\n            if (_childContract != lastContract) {\n                uint256 contractIndex = childContractIndex[_tokenId][_childContract];\n                childContracts[_tokenId][contractIndex] = lastContract;\n                childContractIndex[_tokenId][lastContract] = contractIndex;\n            }\n            // childContracts[_tokenId].length--;\n            childContracts[_tokenId].pop();\n            delete childContractIndex[_tokenId][_childContract];\n        }\n    }\n\n    function safeTransferChild(uint256 _fromTokenId, address _to, address _childContract, uint256 _childTokenId) external override {\n        uint256 tokenId = childTokenOwner[_childContract][_childTokenId];\n        require(tokenId > 0 || childTokenIndex[tokenId][_childContract][_childTokenId] > 0,\n                \"ComposableToken: tokenId || _childTokenId not found\");\n        require(tokenId == _fromTokenId, \"ComposableToken: tokenId != _fromTokenId\");\n        require(_to != address(0), \"ComposableToken: cannot be 0x\");\n        // address rootOwner = address(rootOwnerOf(tokenId));\n        address rootOwner = address(bytes20(rootOwnerOf(tokenId)));\n        require(rootOwner == msg.sender || tokenOwnerToOperators[rootOwner][msg.sender] ||\n                rootOwnerAndTokenIdToApprovedAddress[rootOwner][tokenId] == msg.sender, \"ComposableToken: sender is not the owner\");\n        removeChild(tokenId, _childContract, _childTokenId);\n        ERC721(_childContract).safeTransferFrom(address(this), _to, _childTokenId);\n        emit TransferChild(tokenId, _to, _childContract, _childTokenId);\n    }\n\n    function safeTransferChild(uint256 _fromTokenId,\n                               address _to,\n                               address _childContract,\n                               uint256 _childTokenId,\n                               bytes calldata _data) external override {\n\n        uint256 tokenId = childTokenOwner[_childContract][_childTokenId];\n        require(tokenId > 0 || childTokenIndex[tokenId][_childContract][_childTokenId] > 0,\n                \"ComposableToken: tokenId || _childTokenId not found\");\n        require(tokenId == _fromTokenId, \"ComposableToken: tokenId != _fromTokenId\");\n        require(_to != address(0), \"ComposableToken: cannot be 0x\");\n        // address rootOwner = address(rootOwnerOf(tokenId));\n        address rootOwner = address(bytes20(rootOwnerOf(tokenId)));\n        require(rootOwner == msg.sender || tokenOwnerToOperators[rootOwner][msg.sender] ||\n                rootOwnerAndTokenIdToApprovedAddress[rootOwner][tokenId] == msg.sender, \"ComposableToken: sender is not the owner\");\n        removeChild(tokenId, _childContract, _childTokenId);\n        ERC721(_childContract).safeTransferFrom(address(this), _to, _childTokenId, _data);\n        emit TransferChild(tokenId, _to, _childContract, _childTokenId);\n    }\n\n    function transferChild(uint256 _fromTokenId, address _to, address _childContract, uint256 _childTokenId) external override {\n        uint256 tokenId = childTokenOwner[_childContract][_childTokenId];\n        require(tokenId > 0 || childTokenIndex[tokenId][_childContract][_childTokenId] > 0,\n                \"ComposableToken: tokenId || _childTokenId not found\");\n        require(tokenId == _fromTokenId, \"ComposableToken: tokenId != _fromTokenId\");\n        require(_to != address(0), \"ComposableToken: cannot be 0x\");\n        // address rootOwner = address(rootOwnerOf(tokenId));\n        address rootOwner = address(bytes20(rootOwnerOf(tokenId)));\n        require(rootOwner == msg.sender || tokenOwnerToOperators[rootOwner][msg.sender] ||\n                rootOwnerAndTokenIdToApprovedAddress[rootOwner][tokenId] == msg.sender, \"ComposableToken: sender is not the owner\");\n        removeChild(tokenId, _childContract, _childTokenId);\n        //this is here to be compatible with cryptokitties and other old contracts that require being owner and approved\n        // before transferring.\n        //does not work with current standard which does not allow approving self, so we must let it fail in that case.\n        //0x095ea7b3 == \"approve(address,uint256)\"\n        bytes memory _calldata = abi.encodeWithSelector(0x095ea7b3, address(this), _childTokenId);\n        assembly {\n            let success := call(gas(), _childContract, 0, add(_calldata, 0x20), mload(_calldata), _calldata, 0)\n        }\n        ERC721(_childContract).transferFrom(address(this), _to, _childTokenId);\n        emit TransferChild(tokenId, _to, _childContract, _childTokenId);\n    }\n\n    function transferChildToParent(uint256 _fromTokenId,\n                                   address _toContract,\n                                   uint256 _toTokenId,\n                                   address _childContract,\n                                   uint256 _childTokenId,\n                                   bytes calldata _data) external override {\n        uint256 tokenId = childTokenOwner[_childContract][_childTokenId];\n        require(tokenId > 0 || childTokenIndex[tokenId][_childContract][_childTokenId] > 0,\n                \"ComposableToken: tokenId || _childTokenId not found\");\n        require(tokenId == _fromTokenId, \"ComposableToken: tokenId != _fromTokenId\");\n        require(_toContract != address(0), \"ComposableToken: cannot be 0x\");\n        // address rootOwner = address(rootOwnerOf(tokenId));\n        address rootOwner = address(bytes20(rootOwnerOf(tokenId)));\n        require(rootOwner == msg.sender || tokenOwnerToOperators[rootOwner][msg.sender] ||\n            rootOwnerAndTokenIdToApprovedAddress[rootOwner][tokenId] == msg.sender, \"ComposableToken: sender is not the owner\");\n        removeChild(_fromTokenId, _childContract, _childTokenId);\n        ERC998ERC721BottomUp(_childContract).transferToParent(address(this), _toContract, _toTokenId, _childTokenId, _data);\n        emit TransferChild(_fromTokenId, _toContract, _childContract, _childTokenId);\n    }\n\n\n    // this contract has to be approved first in _childContract\n    function getChild(address _from, uint256 _tokenId, address _childContract, uint256 _childTokenId) external override {\n        receiveChild(_from, _tokenId, _childContract, _childTokenId);\n        require(_from == msg.sender ||\n                ERC721(_childContract).isApprovedForAll(_from, msg.sender) ||\n                ERC721(_childContract).getApproved(_childTokenId) == msg.sender,\n                \"ComposableToken: Sender not approved\");\n        ERC721(_childContract).transferFrom(_from, address(this), _childTokenId);\n\n    }\n\n    function onERC721Received(address _from, uint256 _childTokenId, bytes calldata _data) external returns (bytes4) {\n        require(_data.length > 0, \"ComposableToken: _data must contain the tokenId to transfer the child token\");\n        // convert up to 32 bytes of_data to uint256, owner nft tokenId passed as uint in bytes\n        uint256 tokenId;\n        assembly {tokenId := calldataload(132)}\n        if (_data.length < 32) {\n            tokenId = tokenId >> 256 - _data.length * 8;\n        }\n        receiveChild(_from, tokenId, msg.sender, _childTokenId);\n        require(ERC721(msg.sender).ownerOf(_childTokenId) != address(0), \"ComposableToken: Child token not owned.\");\n        return _ERC721_RECEIVED;\n    }\n\n\n    function onERC721Received(address _operator, address _from, uint256 _childTokenId, bytes calldata _data) external override returns (bytes4) {\n        require(_data.length > 0, \"_data must contain the uint256 tokenId to transfer the child token to.\");\n        // convert up to 32 bytes of_data to uint256, owner nft tokenId passed as uint in bytes\n        uint256 tokenId;\n        assembly {tokenId := calldataload(164)}\n        if (_data.length < 32) {\n            tokenId = tokenId >> 256 - _data.length * 8;\n        }\n        receiveChild(_from, tokenId, msg.sender, _childTokenId);\n        require(ERC721(msg.sender).ownerOf(_childTokenId) != address(0), \"ComposableToken: Child token not owned.\");\n        return _ERC721_RECEIVED;\n    }\n\n\n    function receiveChild(address _from, uint256 _tokenId, address _childContract, uint256 _childTokenId) private {\n        require(tokenIdToTokenOwner[_tokenId] != address(0), \"ComposableToken: _tokenId does not exist.\");\n        require(childTokenIndex[_tokenId][_childContract][_childTokenId] == 0, \"ComposableToken: Child token has already been received.\");\n        uint256 childTokensLength = childTokens[_tokenId][_childContract].length;\n        if (childTokensLength == 0) {\n            childContractIndex[_tokenId][_childContract] = childContracts[_tokenId].length;\n            childContracts[_tokenId].push(_childContract);\n        }\n        childTokens[_tokenId][_childContract].push(_childTokenId);\n        childTokenIndex[_tokenId][_childContract][_childTokenId] = childTokensLength + 1;\n        childTokenOwner[_childContract][_childTokenId] = _tokenId;\n        emit ReceivedChild(_from, _tokenId, _childContract, _childTokenId);\n    }\n\n    function _ownerOfChild(address _childContract,\n                           uint256 _childTokenId) internal view returns (address parentTokenOwner, uint256 parentTokenId) {\n        parentTokenId = childTokenOwner[_childContract][_childTokenId];\n        require(parentTokenId > 0 || childTokenIndex[parentTokenId][_childContract][_childTokenId] > 0,\n                \"ComposableToken: No parentTokenId\");\n        return (tokenIdToTokenOwner[parentTokenId], parentTokenId);\n    }\n\n    function ownerOfChild(address _childContract,\n                          uint256 _childTokenId) external view override returns (bytes32 parentTokenOwner, uint256 parentTokenId) {\n        parentTokenId = childTokenOwner[_childContract][_childTokenId];\n        require(parentTokenId > 0 || childTokenIndex[parentTokenId][_childContract][_childTokenId] > 0,\n                \"ComposableToken: No parentTokenId\");\n        // return (ERC998_MAGIC_VALUE << 224 | bytes32(tokenIdToTokenOwner[parentTokenId]), parentTokenId);\n        return (ERC998_MAGIC_VALUE << 224 | bytes20(tokenIdToTokenOwner[parentTokenId]), parentTokenId);\n    }\n\n    function childExists(address _childContract, uint256 _childTokenId) external view returns (bool) {\n        uint256 tokenId = childTokenOwner[_childContract][_childTokenId];\n        return childTokenIndex[tokenId][_childContract][_childTokenId] != 0;\n    }\n\n    function totalChildContracts(uint256 _tokenId) external view override returns (uint256) {\n        return childContracts[_tokenId].length;\n    }\n\n    function childContractByIndex(uint256 _tokenId, uint256 _index) external view override returns (address childContract) {\n        require(_index < childContracts[_tokenId].length, \"Contract address does not exist for this token and index.\");\n        return childContracts[_tokenId][_index];\n    }\n\n    function totalChildTokens(uint256 _tokenId, address _childContract) external view override returns (uint256) {\n        return childTokens[_tokenId][_childContract].length;\n    }\n\n    function childTokenByIndex(uint256 _tokenId, address _childContract, uint256 _index) external view override returns (uint256 childTokenId) {\n        require(_index < childTokens[_tokenId][_childContract].length, \"Token does not own a child token at contract address and index.\");\n        return childTokens[_tokenId][_childContract][_index];\n    }\n\n    ////////////////////////////////////////////////////////\n    // ERC998ERC223 and ERC998ERC223Enumerable implementation\n    ////////////////////////////////////////////////////////\n\n    // tokenId => token contract\n    mapping(uint256 => address[]) erc20Contracts;\n\n    // tokenId => (token contract => token contract index)\n    mapping(uint256 => mapping(address => uint256)) erc20ContractIndex;\n\n    // tokenId => (token contract => balance)\n    mapping(uint256 => mapping(address => uint256)) erc20Balances;\n\n    function balanceOfERC20(uint256 _tokenId, address _erc20Contract) external view override returns (uint256) {\n        return erc20Balances[_tokenId][_erc20Contract];\n    }\n\n    function removeERC20(uint256 _tokenId, address _erc20Contract, uint256 _value) private {\n        if (_value == 0) {\n            return;\n        }\n        uint256 erc20Balance = erc20Balances[_tokenId][_erc20Contract];\n        require(erc20Balance >= _value, \"ComposableToken: Not enough token available to transfer.\");\n        uint256 newERC20Balance = erc20Balance - _value;\n        erc20Balances[_tokenId][_erc20Contract] = newERC20Balance;\n        if (newERC20Balance == 0) {\n            uint256 lastContractIndex = erc20Contracts[_tokenId].length - 1;\n            address lastContract = erc20Contracts[_tokenId][lastContractIndex];\n            if (_erc20Contract != lastContract) {\n                uint256 contractIndex = erc20ContractIndex[_tokenId][_erc20Contract];\n                erc20Contracts[_tokenId][contractIndex] = lastContract;\n                erc20ContractIndex[_tokenId][lastContract] = contractIndex;\n            }\n            // erc20Contracts[_tokenId].length--;\n            erc20Contracts[_tokenId].pop();\n            delete erc20ContractIndex[_tokenId][_erc20Contract];\n        }\n    }\n\n\n    function transferERC20(uint256 _tokenId, address _to, address _erc20Contract, uint256 _value) external override {\n        require(_to != address(0), \"ComposableToken: to can't be 0x\");\n        // address rootOwner = address(rootOwnerOf(_tokenId));\n        address rootOwner = address(bytes20(rootOwnerOf(_tokenId)));\n        require(rootOwner == msg.sender || tokenOwnerToOperators[rootOwner][msg.sender] ||\n        rootOwnerAndTokenIdToApprovedAddress[rootOwner][_tokenId] == msg.sender, \"ComposableToken: Sender is not the root owner\");\n        removeERC20(_tokenId, _erc20Contract, _value);\n        require(ERC20AndERC223(_erc20Contract).transfer(_to, _value), \"ComposableToken: ERC20 transfer failed.\");\n        emit TransferERC20(_tokenId, _to, _erc20Contract, _value);\n    }\n\n    // implementation of ERC 223\n    function transferERC223(uint256 _tokenId, address _to, address _erc223Contract, uint256 _value, bytes calldata _data) external override {\n        require(_to != address(0), \"ComposableToken: to can't be 0x\");\n        // address rootOwner = address(rootOwnerOf(_tokenId));\n        address rootOwner = address(bytes20(rootOwnerOf(_tokenId)));\n        require(rootOwner == msg.sender || tokenOwnerToOperators[rootOwner][msg.sender] ||\n        rootOwnerAndTokenIdToApprovedAddress[rootOwner][_tokenId] == msg.sender, \"ComposableToken: Sender is not the root owner\");\n        removeERC20(_tokenId, _erc223Contract, _value);\n        require(ERC20AndERC223(_erc223Contract).transfer(_to, _value, _data), \"ComposableToken: ERC223 transfer failed.\");\n        emit TransferERC20(_tokenId, _to, _erc223Contract, _value);\n    }\n\n    // this contract has to be approved first by _erc20Contract\n    function getERC20(address _from, uint256 _tokenId, address _erc20Contract, uint256 _value) public override {\n        bool allowed = _from == msg.sender;\n        if (!allowed) {\n            uint256 remaining;\n            // 0xdd62ed3e == allowance(address,address)\n            bytes memory _calldata = abi.encodeWithSelector(0xdd62ed3e, _from, msg.sender);\n            bool callSuccess;\n            assembly {\n                callSuccess := staticcall(gas(), _erc20Contract, add(_calldata, 0x20), mload(_calldata), _calldata, 0x20)\n                if callSuccess {\n                    remaining := mload(_calldata)\n                }\n            }\n            require(callSuccess, \"ComposableToken: call to allowance failed\");\n            require(remaining >= _value, \"ComposableToken: Value greater than remaining\");\n            allowed = true;\n        }\n        require(allowed, \"ComposableToken: not allowed to getERC20\");\n        erc20Received(_from, _tokenId, _erc20Contract, _value);\n        require(ERC20AndERC223(_erc20Contract).transferFrom(_from, address(this), _value), \"ComposableToken: ERC20 transfer failed.\");\n    }\n\n    function erc20Received(address _from, uint256 _tokenId, address _erc20Contract, uint256 _value) private {\n        require(tokenIdToTokenOwner[_tokenId] != address(0), \"ComposableToken: _tokenId does not exist.\");\n        if (_value == 0) {\n            return;\n        }\n        uint256 erc20Balance = erc20Balances[_tokenId][_erc20Contract];\n        if (erc20Balance == 0) {\n            erc20ContractIndex[_tokenId][_erc20Contract] = erc20Contracts[_tokenId].length;\n            erc20Contracts[_tokenId].push(_erc20Contract);\n        }\n        erc20Balances[_tokenId][_erc20Contract] += _value;\n        emit ReceivedERC20(_from, _tokenId, _erc20Contract, _value);\n    }\n\n    // used by ERC 223\n    function tokenFallback(address _from, uint256 _value, bytes calldata _data) external override {\n        require(_data.length > 0, \"ComposableToken: _data must contain the tokenId to transfer the token to.\");\n        require(address(msg.sender).isContract(), \"ComposableToken: msg.sender is not a contract\");\n        /**************************************\n        * TODO move to library\n        **************************************/\n        // convert up to 32 bytes of_data to uint256, owner nft tokenId passed as uint in bytes\n        uint256 tokenId;\n        assembly {\n            tokenId := calldataload(132)\n        }\n        if (_data.length < 32) {\n            tokenId = tokenId >> 256 - _data.length * 8;\n        }\n        //END TODO\n        erc20Received(_from, tokenId, msg.sender, _value);\n    }\n\n\n    function erc20ContractByIndex(uint256 _tokenId, uint256 _index) external view override returns (address) {\n        require(_index < erc20Contracts[_tokenId].length, \"ComposableToken: Contract address does not exist for this token and index.\");\n        return erc20Contracts[_tokenId][_index];\n    }\n\n    function totalERC20Contracts(uint256 _tokenId) external view override returns (uint256) {\n        return erc20Contracts[_tokenId].length;\n    }\n}",
  "sourcePath": "/Users/santteegt/dataDAO/datadao/src/frontend/contracts/erc998/ComposableToken.sol",
  "compiler": {
    "name": "solc",
    "version": "0.6.12+commit.27d51765.Emscripten.clang"
  },
  "schemaVersion": "3.2.4",
  "updatedAt": "2021-01-09T16:07:29.718Z",
  "devdoc": {
    "kind": "dev",
    "methods": {
      "baseURI()": {
        "details": "Returns the base URI set via {_setBaseURI}. This will be automatically added as a prefix in {tokenURI} to each token's URI, or to the token ID if no specific URI is set for that token ID."
      },
      "name()": {
        "details": "See {IERC721Metadata-name}."
      },
      "safeTransferFrom(address,address,uint256)": {
        "details": "See {IERC721-safeTransferFrom}."
      },
      "safeTransferFrom(address,address,uint256,bytes)": {
        "details": "See {IERC721-safeTransferFrom}."
      },
      "supportsInterface(bytes4)": {
        "details": "See {IERC165-supportsInterface}. Time complexity O(1), guaranteed to always use less than 30 000 gas."
      },
      "symbol()": {
        "details": "See {IERC721Metadata-symbol}."
      },
      "tokenByIndex(uint256)": {
        "details": "See {IERC721Enumerable-tokenByIndex}."
      },
      "tokenOfOwnerByIndex(address,uint256)": {
        "details": "See {IERC721Enumerable-tokenOfOwnerByIndex}."
      },
      "tokenURI(uint256)": {
        "details": "See {IERC721Metadata-tokenURI}."
      },
      "totalSupply()": {
        "details": "See {IERC721Enumerable-totalSupply}."
      }
    },
    "version": 1
  },
  "userdoc": {
    "kind": "user",
    "methods": {},
    "version": 1
  }
}