{
  "contractName": "MasterDataToken",
  "abi": [
    {
      "inputs": [
        {
          "internalType": "string",
          "name": "name",
          "type": "string"
        },
        {
          "internalType": "string",
          "name": "symbol",
          "type": "string"
        },
        {
          "internalType": "string",
          "name": "ipfsMetadata",
          "type": "string"
        },
        {
          "internalType": "uint256",
          "name": "minDataTokenAllowance",
          "type": "uint256"
        },
        {
          "internalType": "address",
          "name": "daoAddress",
          "type": "address"
        }
      ],
      "stateMutability": "nonpayable",
      "type": "constructor"
    },
    {
      "anonymous": false,
      "inputs": [
        {
          "indexed": true,
          "internalType": "address",
          "name": "owner",
          "type": "address"
        },
        {
          "indexed": true,
          "internalType": "address",
          "name": "approved",
          "type": "address"
        },
        {
          "indexed": true,
          "internalType": "uint256",
          "name": "tokenId",
          "type": "uint256"
        }
      ],
      "name": "Approval",
      "type": "event"
    },
    {
      "anonymous": false,
      "inputs": [
        {
          "indexed": true,
          "internalType": "address",
          "name": "owner",
          "type": "address"
        },
        {
          "indexed": true,
          "internalType": "address",
          "name": "operator",
          "type": "address"
        },
        {
          "indexed": false,
          "internalType": "bool",
          "name": "approved",
          "type": "bool"
        }
      ],
      "name": "ApprovalForAll",
      "type": "event"
    },
    {
      "anonymous": false,
      "inputs": [
        {
          "indexed": true,
          "internalType": "address",
          "name": "contributor",
          "type": "address"
        },
        {
          "indexed": true,
          "internalType": "address",
          "name": "dataToken",
          "type": "address"
        },
        {
          "indexed": false,
          "internalType": "uint256",
          "name": "records",
          "type": "uint256"
        }
      ],
      "name": "ContributionAdded",
      "type": "event"
    },
    {
      "anonymous": false,
      "inputs": [
        {
          "indexed": true,
          "internalType": "address",
          "name": "_from",
          "type": "address"
        },
        {
          "indexed": true,
          "internalType": "uint256",
          "name": "_tokenId",
          "type": "uint256"
        },
        {
          "indexed": true,
          "internalType": "address",
          "name": "_childContract",
          "type": "address"
        },
        {
          "indexed": false,
          "internalType": "uint256",
          "name": "_childTokenId",
          "type": "uint256"
        }
      ],
      "name": "ReceivedChild",
      "type": "event"
    },
    {
      "anonymous": false,
      "inputs": [
        {
          "indexed": true,
          "internalType": "address",
          "name": "_from",
          "type": "address"
        },
        {
          "indexed": true,
          "internalType": "uint256",
          "name": "_tokenId",
          "type": "uint256"
        },
        {
          "indexed": true,
          "internalType": "address",
          "name": "_erc20Contract",
          "type": "address"
        },
        {
          "indexed": false,
          "internalType": "uint256",
          "name": "_value",
          "type": "uint256"
        }
      ],
      "name": "ReceivedERC20",
      "type": "event"
    },
    {
      "anonymous": false,
      "inputs": [
        {
          "indexed": true,
          "internalType": "address",
          "name": "from",
          "type": "address"
        },
        {
          "indexed": true,
          "internalType": "address",
          "name": "to",
          "type": "address"
        },
        {
          "indexed": true,
          "internalType": "uint256",
          "name": "tokenId",
          "type": "uint256"
        }
      ],
      "name": "Transfer",
      "type": "event"
    },
    {
      "anonymous": false,
      "inputs": [
        {
          "indexed": true,
          "internalType": "uint256",
          "name": "tokenId",
          "type": "uint256"
        },
        {
          "indexed": true,
          "internalType": "address",
          "name": "_to",
          "type": "address"
        },
        {
          "indexed": true,
          "internalType": "address",
          "name": "_childContract",
          "type": "address"
        },
        {
          "indexed": false,
          "internalType": "uint256",
          "name": "_childTokenId",
          "type": "uint256"
        }
      ],
      "name": "TransferChild",
      "type": "event"
    },
    {
      "anonymous": false,
      "inputs": [
        {
          "indexed": true,
          "internalType": "uint256",
          "name": "_tokenId",
          "type": "uint256"
        },
        {
          "indexed": true,
          "internalType": "address",
          "name": "_to",
          "type": "address"
        },
        {
          "indexed": true,
          "internalType": "address",
          "name": "_erc20Contract",
          "type": "address"
        },
        {
          "indexed": false,
          "internalType": "uint256",
          "name": "_value",
          "type": "uint256"
        }
      ],
      "name": "TransferERC20",
      "type": "event"
    },
    {
      "inputs": [
        {
          "internalType": "address",
          "name": "_approved",
          "type": "address"
        },
        {
          "internalType": "uint256",
          "name": "_tokenId",
          "type": "uint256"
        }
      ],
      "name": "approve",
      "outputs": [],
      "stateMutability": "nonpayable",
      "type": "function"
    },
    {
      "inputs": [
        {
          "internalType": "address",
          "name": "_tokenOwner",
          "type": "address"
        }
      ],
      "name": "balanceOf",
      "outputs": [
        {
          "internalType": "uint256",
          "name": "",
          "type": "uint256"
        }
      ],
      "stateMutability": "view",
      "type": "function"
    },
    {
      "inputs": [
        {
          "internalType": "uint256",
          "name": "_tokenId",
          "type": "uint256"
        },
        {
          "internalType": "address",
          "name": "_erc20Contract",
          "type": "address"
        }
      ],
      "name": "balanceOfERC20",
      "outputs": [
        {
          "internalType": "uint256",
          "name": "",
          "type": "uint256"
        }
      ],
      "stateMutability": "view",
      "type": "function"
    },
    {
      "inputs": [],
      "name": "baseURI",
      "outputs": [
        {
          "internalType": "string",
          "name": "",
          "type": "string"
        }
      ],
      "stateMutability": "view",
      "type": "function"
    },
    {
      "inputs": [
        {
          "internalType": "uint256",
          "name": "_tokenId",
          "type": "uint256"
        },
        {
          "internalType": "uint256",
          "name": "_index",
          "type": "uint256"
        }
      ],
      "name": "childContractByIndex",
      "outputs": [
        {
          "internalType": "address",
          "name": "childContract",
          "type": "address"
        }
      ],
      "stateMutability": "view",
      "type": "function"
    },
    {
      "inputs": [
        {
          "internalType": "address",
          "name": "_childContract",
          "type": "address"
        },
        {
          "internalType": "uint256",
          "name": "_childTokenId",
          "type": "uint256"
        }
      ],
      "name": "childExists",
      "outputs": [
        {
          "internalType": "bool",
          "name": "",
          "type": "bool"
        }
      ],
      "stateMutability": "view",
      "type": "function"
    },
    {
      "inputs": [
        {
          "internalType": "uint256",
          "name": "_tokenId",
          "type": "uint256"
        },
        {
          "internalType": "address",
          "name": "_childContract",
          "type": "address"
        },
        {
          "internalType": "uint256",
          "name": "_index",
          "type": "uint256"
        }
      ],
      "name": "childTokenByIndex",
      "outputs": [
        {
          "internalType": "uint256",
          "name": "childTokenId",
          "type": "uint256"
        }
      ],
      "stateMutability": "view",
      "type": "function"
    },
    {
      "inputs": [
        {
          "internalType": "uint256",
          "name": "_tokenId",
          "type": "uint256"
        },
        {
          "internalType": "uint256",
          "name": "_index",
          "type": "uint256"
        }
      ],
      "name": "erc20ContractByIndex",
      "outputs": [
        {
          "internalType": "address",
          "name": "",
          "type": "address"
        }
      ],
      "stateMutability": "view",
      "type": "function"
    },
    {
      "inputs": [
        {
          "internalType": "uint256",
          "name": "_tokenId",
          "type": "uint256"
        }
      ],
      "name": "getApproved",
      "outputs": [
        {
          "internalType": "address",
          "name": "",
          "type": "address"
        }
      ],
      "stateMutability": "view",
      "type": "function"
    },
    {
      "inputs": [
        {
          "internalType": "address",
          "name": "_from",
          "type": "address"
        },
        {
          "internalType": "uint256",
          "name": "_tokenId",
          "type": "uint256"
        },
        {
          "internalType": "address",
          "name": "_childContract",
          "type": "address"
        },
        {
          "internalType": "uint256",
          "name": "_childTokenId",
          "type": "uint256"
        }
      ],
      "name": "getChild",
      "outputs": [],
      "stateMutability": "nonpayable",
      "type": "function"
    },
    {
      "inputs": [
        {
          "internalType": "address",
          "name": "_from",
          "type": "address"
        },
        {
          "internalType": "uint256",
          "name": "_tokenId",
          "type": "uint256"
        },
        {
          "internalType": "address",
          "name": "_erc20Contract",
          "type": "address"
        },
        {
          "internalType": "uint256",
          "name": "_value",
          "type": "uint256"
        }
      ],
      "name": "getERC20",
      "outputs": [],
      "stateMutability": "nonpayable",
      "type": "function"
    },
    {
      "inputs": [
        {
          "internalType": "address",
          "name": "_owner",
          "type": "address"
        },
        {
          "internalType": "address",
          "name": "_operator",
          "type": "address"
        }
      ],
      "name": "isApprovedForAll",
      "outputs": [
        {
          "internalType": "bool",
          "name": "",
          "type": "bool"
        }
      ],
      "stateMutability": "view",
      "type": "function"
    },
    {
      "inputs": [
        {
          "internalType": "address",
          "name": "_to",
          "type": "address"
        }
      ],
      "name": "mint",
      "outputs": [
        {
          "internalType": "uint256",
          "name": "",
          "type": "uint256"
        }
      ],
      "stateMutability": "nonpayable",
      "type": "function"
    },
    {
      "inputs": [],
      "name": "name",
      "outputs": [
        {
          "internalType": "string",
          "name": "",
          "type": "string"
        }
      ],
      "stateMutability": "view",
      "type": "function"
    },
    {
      "inputs": [
        {
          "internalType": "address",
          "name": "_operator",
          "type": "address"
        },
        {
          "internalType": "address",
          "name": "_from",
          "type": "address"
        },
        {
          "internalType": "uint256",
          "name": "_childTokenId",
          "type": "uint256"
        },
        {
          "internalType": "bytes",
          "name": "_data",
          "type": "bytes"
        }
      ],
      "name": "onERC721Received",
      "outputs": [
        {
          "internalType": "bytes4",
          "name": "",
          "type": "bytes4"
        }
      ],
      "stateMutability": "nonpayable",
      "type": "function"
    },
    {
      "inputs": [
        {
          "internalType": "address",
          "name": "_from",
          "type": "address"
        },
        {
          "internalType": "uint256",
          "name": "_childTokenId",
          "type": "uint256"
        },
        {
          "internalType": "bytes",
          "name": "_data",
          "type": "bytes"
        }
      ],
      "name": "onERC721Received",
      "outputs": [
        {
          "internalType": "bytes4",
          "name": "",
          "type": "bytes4"
        }
      ],
      "stateMutability": "nonpayable",
      "type": "function"
    },
    {
      "inputs": [
        {
          "internalType": "uint256",
          "name": "_tokenId",
          "type": "uint256"
        }
      ],
      "name": "ownerOf",
      "outputs": [
        {
          "internalType": "address",
          "name": "tokenOwner",
          "type": "address"
        }
      ],
      "stateMutability": "view",
      "type": "function"
    },
    {
      "inputs": [
        {
          "internalType": "address",
          "name": "_childContract",
          "type": "address"
        },
        {
          "internalType": "uint256",
          "name": "_childTokenId",
          "type": "uint256"
        }
      ],
      "name": "ownerOfChild",
      "outputs": [
        {
          "internalType": "bytes32",
          "name": "parentTokenOwner",
          "type": "bytes32"
        },
        {
          "internalType": "uint256",
          "name": "parentTokenId",
          "type": "uint256"
        }
      ],
      "stateMutability": "view",
      "type": "function"
    },
    {
      "inputs": [
        {
          "internalType": "uint256",
          "name": "_tokenId",
          "type": "uint256"
        }
      ],
      "name": "rootOwnerOf",
      "outputs": [
        {
          "internalType": "bytes32",
          "name": "rootOwner",
          "type": "bytes32"
        }
      ],
      "stateMutability": "view",
      "type": "function"
    },
    {
      "inputs": [
        {
          "internalType": "address",
          "name": "_childContract",
          "type": "address"
        },
        {
          "internalType": "uint256",
          "name": "_childTokenId",
          "type": "uint256"
        }
      ],
      "name": "rootOwnerOfChild",
      "outputs": [
        {
          "internalType": "bytes32",
          "name": "rootOwner",
          "type": "bytes32"
        }
      ],
      "stateMutability": "view",
      "type": "function"
    },
    {
      "inputs": [
        {
          "internalType": "uint256",
          "name": "_fromTokenId",
          "type": "uint256"
        },
        {
          "internalType": "address",
          "name": "_to",
          "type": "address"
        },
        {
          "internalType": "address",
          "name": "_childContract",
          "type": "address"
        },
        {
          "internalType": "uint256",
          "name": "_childTokenId",
          "type": "uint256"
        }
      ],
      "name": "safeTransferChild",
      "outputs": [],
      "stateMutability": "nonpayable",
      "type": "function"
    },
    {
      "inputs": [
        {
          "internalType": "uint256",
          "name": "_fromTokenId",
          "type": "uint256"
        },
        {
          "internalType": "address",
          "name": "_to",
          "type": "address"
        },
        {
          "internalType": "address",
          "name": "_childContract",
          "type": "address"
        },
        {
          "internalType": "uint256",
          "name": "_childTokenId",
          "type": "uint256"
        },
        {
          "internalType": "bytes",
          "name": "_data",
          "type": "bytes"
        }
      ],
      "name": "safeTransferChild",
      "outputs": [],
      "stateMutability": "nonpayable",
      "type": "function"
    },
    {
      "inputs": [
        {
          "internalType": "address",
          "name": "from",
          "type": "address"
        },
        {
          "internalType": "address",
          "name": "to",
          "type": "address"
        },
        {
          "internalType": "uint256",
          "name": "tokenId",
          "type": "uint256"
        }
      ],
      "name": "safeTransferFrom",
      "outputs": [],
      "stateMutability": "nonpayable",
      "type": "function"
    },
    {
      "inputs": [
        {
          "internalType": "address",
          "name": "from",
          "type": "address"
        },
        {
          "internalType": "address",
          "name": "to",
          "type": "address"
        },
        {
          "internalType": "uint256",
          "name": "tokenId",
          "type": "uint256"
        },
        {
          "internalType": "bytes",
          "name": "_data",
          "type": "bytes"
        }
      ],
      "name": "safeTransferFrom",
      "outputs": [],
      "stateMutability": "nonpayable",
      "type": "function"
    },
    {
      "inputs": [
        {
          "internalType": "address",
          "name": "_operator",
          "type": "address"
        },
        {
          "internalType": "bool",
          "name": "_approved",
          "type": "bool"
        }
      ],
      "name": "setApprovalForAll",
      "outputs": [],
      "stateMutability": "nonpayable",
      "type": "function"
    },
    {
      "inputs": [
        {
          "internalType": "bytes4",
          "name": "interfaceId",
          "type": "bytes4"
        }
      ],
      "name": "supportsInterface",
      "outputs": [
        {
          "internalType": "bool",
          "name": "",
          "type": "bool"
        }
      ],
      "stateMutability": "view",
      "type": "function"
    },
    {
      "inputs": [],
      "name": "symbol",
      "outputs": [
        {
          "internalType": "string",
          "name": "",
          "type": "string"
        }
      ],
      "stateMutability": "view",
      "type": "function"
    },
    {
      "inputs": [
        {
          "internalType": "uint256",
          "name": "index",
          "type": "uint256"
        }
      ],
      "name": "tokenByIndex",
      "outputs": [
        {
          "internalType": "uint256",
          "name": "",
          "type": "uint256"
        }
      ],
      "stateMutability": "view",
      "type": "function"
    },
    {
      "inputs": [
        {
          "internalType": "address",
          "name": "_from",
          "type": "address"
        },
        {
          "internalType": "uint256",
          "name": "_value",
          "type": "uint256"
        },
        {
          "internalType": "bytes",
          "name": "_data",
          "type": "bytes"
        }
      ],
      "name": "tokenFallback",
      "outputs": [],
      "stateMutability": "nonpayable",
      "type": "function"
    },
    {
      "inputs": [
        {
          "internalType": "address",
          "name": "owner",
          "type": "address"
        },
        {
          "internalType": "uint256",
          "name": "index",
          "type": "uint256"
        }
      ],
      "name": "tokenOfOwnerByIndex",
      "outputs": [
        {
          "internalType": "uint256",
          "name": "",
          "type": "uint256"
        }
      ],
      "stateMutability": "view",
      "type": "function"
    },
    {
      "inputs": [
        {
          "internalType": "uint256",
          "name": "tokenId",
          "type": "uint256"
        }
      ],
      "name": "tokenURI",
      "outputs": [
        {
          "internalType": "string",
          "name": "",
          "type": "string"
        }
      ],
      "stateMutability": "view",
      "type": "function"
    },
    {
      "inputs": [
        {
          "internalType": "uint256",
          "name": "_tokenId",
          "type": "uint256"
        }
      ],
      "name": "totalChildContracts",
      "outputs": [
        {
          "internalType": "uint256",
          "name": "",
          "type": "uint256"
        }
      ],
      "stateMutability": "view",
      "type": "function"
    },
    {
      "inputs": [
        {
          "internalType": "uint256",
          "name": "_tokenId",
          "type": "uint256"
        },
        {
          "internalType": "address",
          "name": "_childContract",
          "type": "address"
        }
      ],
      "name": "totalChildTokens",
      "outputs": [
        {
          "internalType": "uint256",
          "name": "",
          "type": "uint256"
        }
      ],
      "stateMutability": "view",
      "type": "function"
    },
    {
      "inputs": [
        {
          "internalType": "uint256",
          "name": "_tokenId",
          "type": "uint256"
        }
      ],
      "name": "totalERC20Contracts",
      "outputs": [
        {
          "internalType": "uint256",
          "name": "",
          "type": "uint256"
        }
      ],
      "stateMutability": "view",
      "type": "function"
    },
    {
      "inputs": [],
      "name": "totalSupply",
      "outputs": [
        {
          "internalType": "uint256",
          "name": "",
          "type": "uint256"
        }
      ],
      "stateMutability": "view",
      "type": "function"
    },
    {
      "inputs": [
        {
          "internalType": "uint256",
          "name": "_fromTokenId",
          "type": "uint256"
        },
        {
          "internalType": "address",
          "name": "_to",
          "type": "address"
        },
        {
          "internalType": "address",
          "name": "_childContract",
          "type": "address"
        },
        {
          "internalType": "uint256",
          "name": "_childTokenId",
          "type": "uint256"
        }
      ],
      "name": "transferChild",
      "outputs": [],
      "stateMutability": "nonpayable",
      "type": "function"
    },
    {
      "inputs": [
        {
          "internalType": "uint256",
          "name": "_fromTokenId",
          "type": "uint256"
        },
        {
          "internalType": "address",
          "name": "_toContract",
          "type": "address"
        },
        {
          "internalType": "uint256",
          "name": "_toTokenId",
          "type": "uint256"
        },
        {
          "internalType": "address",
          "name": "_childContract",
          "type": "address"
        },
        {
          "internalType": "uint256",
          "name": "_childTokenId",
          "type": "uint256"
        },
        {
          "internalType": "bytes",
          "name": "_data",
          "type": "bytes"
        }
      ],
      "name": "transferChildToParent",
      "outputs": [],
      "stateMutability": "nonpayable",
      "type": "function"
    },
    {
      "inputs": [
        {
          "internalType": "uint256",
          "name": "_tokenId",
          "type": "uint256"
        },
        {
          "internalType": "address",
          "name": "_to",
          "type": "address"
        },
        {
          "internalType": "address",
          "name": "_erc20Contract",
          "type": "address"
        },
        {
          "internalType": "uint256",
          "name": "_value",
          "type": "uint256"
        }
      ],
      "name": "transferERC20",
      "outputs": [],
      "stateMutability": "nonpayable",
      "type": "function"
    },
    {
      "inputs": [
        {
          "internalType": "uint256",
          "name": "_tokenId",
          "type": "uint256"
        },
        {
          "internalType": "address",
          "name": "_to",
          "type": "address"
        },
        {
          "internalType": "address",
          "name": "_erc223Contract",
          "type": "address"
        },
        {
          "internalType": "uint256",
          "name": "_value",
          "type": "uint256"
        },
        {
          "internalType": "bytes",
          "name": "_data",
          "type": "bytes"
        }
      ],
      "name": "transferERC223",
      "outputs": [],
      "stateMutability": "nonpayable",
      "type": "function"
    },
    {
      "inputs": [
        {
          "internalType": "address",
          "name": "_from",
          "type": "address"
        },
        {
          "internalType": "address",
          "name": "_to",
          "type": "address"
        },
        {
          "internalType": "uint256",
          "name": "_tokenId",
          "type": "uint256"
        }
      ],
      "name": "transferFrom",
      "outputs": [],
      "stateMutability": "nonpayable",
      "type": "function"
    },
    {
      "inputs": [
        {
          "internalType": "string",
          "name": "name",
          "type": "string"
        },
        {
          "internalType": "string",
          "name": "symbol",
          "type": "string"
        },
        {
          "internalType": "string",
          "name": "ipfsMetadata",
          "type": "string"
        },
        {
          "internalType": "uint256",
          "name": "minDatatokenAllowance",
          "type": "uint256"
        },
        {
          "internalType": "address",
          "name": "daoAddress",
          "type": "address"
        }
      ],
      "name": "initialize",
      "outputs": [
        {
          "internalType": "bool",
          "name": "",
          "type": "bool"
        }
      ],
      "stateMutability": "nonpayable",
      "type": "function"
    },
    {
      "inputs": [
        {
          "internalType": "address",
          "name": "_datatoken",
          "type": "address"
        },
        {
          "internalType": "uint256",
          "name": "_records",
          "type": "uint256"
        }
      ],
      "name": "contribute",
      "outputs": [
        {
          "internalType": "bool",
          "name": "",
          "type": "bool"
        }
      ],
      "stateMutability": "nonpayable",
      "type": "function"
    },
    {
      "inputs": [],
      "name": "owner",
      "outputs": [
        {
          "internalType": "address",
          "name": "",
          "type": "address"
        }
      ],
      "stateMutability": "view",
      "type": "function"
    },
    {
      "inputs": [],
      "name": "isInitialized",
      "outputs": [
        {
          "internalType": "bool",
          "name": "",
          "type": "bool"
        }
      ],
      "stateMutability": "view",
      "type": "function"
    },
    {
      "inputs": [],
      "name": "totalRecords",
      "outputs": [
        {
          "internalType": "uint256",
          "name": "",
          "type": "uint256"
        }
      ],
      "stateMutability": "view",
      "type": "function"
    }
  ],
  "bytecode": "0x60806040526000600a556000601d553480156200001b57600080fd5b506040516200971d3803806200971d833981810160405260a08110156200004157600080fd5b81019080805160405193929190846401000000008211156200006257600080fd5b838201915060208201858111156200007957600080fd5b82518660018202830111640100000000821117156200009757600080fd5b8083526020830192505050908051906020019080838360005b83811015620000cd578082015181840152602081019050620000b0565b50505050905090810190601f168015620000fb5780820380516001836020036101000a031916815260200191505b50604052602001805160405193929190846401000000008211156200011f57600080fd5b838201915060208201858111156200013657600080fd5b82518660018202830111640100000000821117156200015457600080fd5b8083526020830192505050908051906020019080838360005b838110156200018a5780820151818401526020810190506200016d565b50505050905090810190601f168015620001b85780820380516001836020036101000a031916815260200191505b5060405260200180516040519392919084640100000000821115620001dc57600080fd5b83820191506020820185811115620001f357600080fd5b82518660018202830111640100000000821117156200021157600080fd5b8083526020830192505050908051906020019080838360005b83811015620002475780820151818401526020810190506200022a565b50505050905090810190601f168015620002755780820380516001836020036101000a031916815260200191505b5060405260200180519060200190929190805190602001909291905050508484604051806020016040528060008152508282620002bf6301ffc9a760e01b6200037060201b60201c565b8160069080519060200190620002d792919062000635565b508060079080519060200190620002f092919062000635565b50620003096380ac58cd60e01b6200037060201b60201c565b62000321635b5e139f60e01b6200037060201b60201c565b6200033963780e9d6360e01b6200037060201b60201c565b50506200034c816200047960201b60201c565b5050506200036485858585856200049560201b60201c565b505050505050620006db565b63ffffffff60e01b817bffffffffffffffffffffffffffffffffffffffffffffffffffffffff191614156200040d576040517f08c379a000000000000000000000000000000000000000000000000000000000815260040180806020018281038252601c8152602001807f4552433136353a20696e76616c696420696e746572666163652069640000000081525060200191505060405180910390fd5b6001600080837bffffffffffffffffffffffffffffffffffffffffffffffffffffffff19167bffffffffffffffffffffffffffffffffffffffffffffffffffffffff1916815260200190815260200160002060006101000a81548160ff02191690831515021790555050565b80600990805190602001906200049192919062000635565b5050565b600080831415620004f2576040517f08c379a0000000000000000000000000000000000000000000000000000000008152600401808060200182810382526038815260200180620096e56038913960400191505060405180910390fd5b600073ffffffffffffffffffffffffffffffffffffffff168273ffffffffffffffffffffffffffffffffffffffff16146200056e5781601a60006101000a81548173ffffffffffffffffffffffffffffffffffffffff021916908373ffffffffffffffffffffffffffffffffffffffff160217905550620005bf565b6200057e6200062d60201b60201c565b601a60006101000a81548173ffffffffffffffffffffffffffffffffffffffff021916908373ffffffffffffffffffffffffffffffffffffffff1602179055505b8560179080519060200190620005d792919062000635565b508460189080519060200190620005f092919062000635565b5082601c8190555062000609846200047960201b60201c565b6001601a60146101000a81548160ff02191690831515021790555095945050505050565b600033905090565b828054600181600116156101000203166002900490600052602060002090601f016020900481019282601f106200067857805160ff1916838001178555620006a9565b82800160010185558215620006a9579182015b82811115620006a85782518255916020019190600101906200068b565b5b509050620006b89190620006bc565b5090565b5b80821115620006d7576000816000905550600101620006bd565b5090565b618ffa80620006eb6000396000f3fe608060405234801561001057600080fd5b506004361061027f5760003560e01c80636352211e1161015c578063a7811732116100ce578063d49d1bac11610087578063d49d1bac14611442578063e226ed221461150f578063e985e9c514611571578063eadb80b8146115eb578063ed81cdda14611654578063f0b9e5ba146116b65761027f565b8063a7811732146110c1578063b88d4fde14611103578063ba6b5f9614611208578063bef44f1814611280578063c0ee0b8a146112f8578063c87b56dd1461139b5761027f565b80638418cd99116101205780638418cd9914610e475780638d81f51e14610eab5780638da5cb5b14610f785780638da7d0b514610fac57806395d89b4114610fee578063a22cb465146110715761027f565b80636352211e14610c445780636a62784214610c9c5780636c0360eb14610cf457806370a0823114610d77578063830ef41b14610dcf5761027f565b80631d98f3c5116101f5578063392e53cd116101b9578063392e53cd14610a6c57806342842e0e14610a8c57806343a61a8e14610afa5780634f6ccce714610b3c5780635680a3ad14610b7e578063627c81ff14610be25761027f565b80631d98f3c51461075f57806323b872dd146107d75780632f745c591461084557806330a8ff4e146108a757806335b21ceb14610a0a5761027f565b8063095ea7b311610247578063095ea7b3146105115780630d5a621b1461055f578063125f8974146105c1578063150b7a02146105df578063160b01a1146106d557806318160ddd146107415761027f565b806301ffc9a71461028457806306fdde03146102e757806307cff6f21461036a578063081812fc146103e257806308937f621461043a575b600080fd5b6102cf6004803603602081101561029a57600080fd5b8101908080357bffffffffffffffffffffffffffffffffffffffffffffffffffffffff1916906020019092919050505061178c565b60405180821515815260200191505060405180910390f35b6102ef6117f3565b6040518080602001828103825283818151815260200191508051906020019080838360005b8381101561032f578082015181840152602081019050610314565b50505050905090810190601f16801561035c5780820380516001836020036101000a031916815260200191505b509250505060405180910390f35b6103e06004803603608081101561038057600080fd5b81019080803573ffffffffffffffffffffffffffffffffffffffff16906020019092919080359060200190929190803573ffffffffffffffffffffffffffffffffffffffff16906020019092919080359060200190929190505050611895565b005b61040e600480360360208110156103f857600080fd5b8101908080359060200190929190505050611bb8565b604051808273ffffffffffffffffffffffffffffffffffffffff16815260200191505060405180910390f35b61050f600480360360c081101561045057600080fd5b8101908080359060200190929190803573ffffffffffffffffffffffffffffffffffffffff16906020019092919080359060200190929190803573ffffffffffffffffffffffffffffffffffffffff16906020019092919080359060200190929190803590602001906401000000008111156104cb57600080fd5b8201836020820111156104dd57600080fd5b803590602001918460018302840111640100000000831117156104ff57600080fd5b9091929391929390505050611c42565b005b61055d6004803603604081101561052757600080fd5b81019080803573ffffffffffffffffffffffffffffffffffffffff16906020019092919080359060200190929190505050612181565b005b6105956004803603604081101561057557600080fd5b810190808035906020019092919080359060200190929190505050612395565b604051808273ffffffffffffffffffffffffffffffffffffffff16815260200191505060405180910390f35b6105c9612456565b6040518082815260200191505060405180910390f35b6106a0600480360360808110156105f557600080fd5b81019080803573ffffffffffffffffffffffffffffffffffffffff169060200190929190803573ffffffffffffffffffffffffffffffffffffffff169060200190929190803590602001909291908035906020019064010000000081111561065c57600080fd5b82018360208201111561066e57600080fd5b8035906020019184600183028401116401000000008311171561069057600080fd5b9091929391929390505050612460565b60405180827bffffffffffffffffffffffffffffffffffffffffffffffffffffffff1916815260200191505060405180910390f35b61072b600480360360608110156106eb57600080fd5b8101908080359060200190929190803573ffffffffffffffffffffffffffffffffffffffff16906020019092919080359060200190929190505050612612565b6040518082815260200191505060405180910390f35b61074961272e565b6040518082815260200191505060405180910390f35b6107d56004803603608081101561077557600080fd5b8101908080359060200190929190803573ffffffffffffffffffffffffffffffffffffffff169060200190929190803573ffffffffffffffffffffffffffffffffffffffff1690602001909291908035906020019092919050505061273f565b005b610843600480360360608110156107ed57600080fd5b81019080803573ffffffffffffffffffffffffffffffffffffffff169060200190929190803573ffffffffffffffffffffffffffffffffffffffff16906020019092919080359060200190929190505050612c3f565b005b6108916004803603604081101561085b57600080fd5b81019080803573ffffffffffffffffffffffffffffffffffffffff16906020019092919080359060200190929190505050612c4f565b6040518082815260200191505060405180910390f35b6109f2600480360360a08110156108bd57600080fd5b81019080803590602001906401000000008111156108da57600080fd5b8201836020820111156108ec57600080fd5b8035906020019184600183028401116401000000008311171561090e57600080fd5b90919293919293908035906020019064010000000081111561092f57600080fd5b82018360208201111561094157600080fd5b8035906020019184600183028401116401000000008311171561096357600080fd5b90919293919293908035906020019064010000000081111561098457600080fd5b82018360208201111561099657600080fd5b803590602001918460018302840111640100000000831117156109b857600080fd5b909192939192939080359060200190929190803573ffffffffffffffffffffffffffffffffffffffff169060200190929190505050612caa565b60405180821515815260200191505060405180910390f35b610a5660048036036040811015610a2057600080fd5b8101908080359060200190929190803573ffffffffffffffffffffffffffffffffffffffff169060200190929190505050612d93565b6040518082815260200191505060405180910390f35b610a74612df1565b60405180821515815260200191505060405180910390f35b610af860048036036060811015610aa257600080fd5b81019080803573ffffffffffffffffffffffffffffffffffffffff169060200190929190803573ffffffffffffffffffffffffffffffffffffffff16906020019092919080359060200190929190505050612e08565b005b610b2660048036036020811015610b1057600080fd5b8101908080359060200190929190505050612e28565b6040518082815260200191505060405180910390f35b610b6860048036036020811015610b5257600080fd5b8101908080359060200190929190505050612e3c565b6040518082815260200191505060405180910390f35b610bca60048036036040811015610b9457600080fd5b81019080803573ffffffffffffffffffffffffffffffffffffffff16906020019092919080359060200190929190505050612e5f565b60405180821515815260200191505060405180910390f35b610c1860048036036040811015610bf857600080fd5b810190808035906020019092919080359060200190929190505050612f24565b604051808273ffffffffffffffffffffffffffffffffffffffff16815260200191505060405180910390f35b610c7060048036036020811015610c5a57600080fd5b8101908080359060200190929190505050612fe5565b604051808273ffffffffffffffffffffffffffffffffffffffff16815260200191505060405180910390f35b610cde60048036036020811015610cb257600080fd5b81019080803573ffffffffffffffffffffffffffffffffffffffff1690602001909291905050506130a8565b6040518082815260200191505060405180910390f35b610cfc61316d565b6040518080602001828103825283818151815260200191508051906020019080838360005b83811015610d3c578082015181840152602081019050610d21565b50505050905090810190601f168015610d695780820380516001836020036101000a031916815260200191505b509250505060405180910390f35b610db960048036036020811015610d8d57600080fd5b81019080803573ffffffffffffffffffffffffffffffffffffffff16906020019092919050505061320f565b6040518082815260200191505060405180910390f35b610e4560048036036080811015610de557600080fd5b8101908080359060200190929190803573ffffffffffffffffffffffffffffffffffffffff169060200190929190803573ffffffffffffffffffffffffffffffffffffffff169060200190929190803590602001909291905050506132dd565b005b610e9360048036036040811015610e5d57600080fd5b81019080803573ffffffffffffffffffffffffffffffffffffffff169060200190929190803590602001909291905050506136c4565b60405180821515815260200191505060405180910390f35b610f76600480360360a0811015610ec157600080fd5b8101908080359060200190929190803573ffffffffffffffffffffffffffffffffffffffff169060200190929190803573ffffffffffffffffffffffffffffffffffffffff1690602001909291908035906020019092919080359060200190640100000000811115610f3257600080fd5b820183602082011115610f4457600080fd5b80359060200191846001830284011164010000000083111715610f6657600080fd5b9091929391929390505050613bde565b005b610f80614114565b604051808273ffffffffffffffffffffffffffffffffffffffff16815260200191505060405180910390f35b610fd860048036036020811015610fc257600080fd5b810190808035906020019092919050505061413e565b6040518082815260200191505060405180910390f35b610ff661415e565b6040518080602001828103825283818151815260200191508051906020019080838360005b8381101561103657808201518184015260208101905061101b565b50505050905090810190601f1680156110635780820380516001836020036101000a031916815260200191505b509250505060405180910390f35b6110bf6004803603604081101561108757600080fd5b81019080803573ffffffffffffffffffffffffffffffffffffffff169060200190929190803515159060200190929190505050614200565b005b6110ed600480360360208110156110d757600080fd5b8101908080359060200190929190505050614385565b6040518082815260200191505060405180910390f35b6112066004803603608081101561111957600080fd5b81019080803573ffffffffffffffffffffffffffffffffffffffff169060200190929190803573ffffffffffffffffffffffffffffffffffffffff169060200190929190803590602001909291908035906020019064010000000081111561118057600080fd5b82018360208201111561119257600080fd5b803590602001918460018302840111640100000000831117156111b457600080fd5b91908080601f016020809104026020016040519081016040528093929190818152602001838380828437600081840152601f19601f8201169050808301925050505050505091929192905050506143a5565b005b61127e6004803603608081101561121e57600080fd5b81019080803573ffffffffffffffffffffffffffffffffffffffff16906020019092919080359060200190929190803573ffffffffffffffffffffffffffffffffffffffff1690602001909291908035906020019092919050505061441d565b005b6112f66004803603608081101561129657600080fd5b8101908080359060200190929190803573ffffffffffffffffffffffffffffffffffffffff169060200190929190803573ffffffffffffffffffffffffffffffffffffffff169060200190929190803590602001909291905050506146e2565b005b6113996004803603606081101561130e57600080fd5b81019080803573ffffffffffffffffffffffffffffffffffffffff169060200190929190803590602001909291908035906020019064010000000081111561135557600080fd5b82018360208201111561136757600080fd5b8035906020019184600183028401116401000000008311171561138957600080fd5b9091929391929390505050614c6b565b005b6113c7600480360360208110156113b157600080fd5b8101908080359060200190929190505050614d72565b6040518080602001828103825283818151815260200191508051906020019080838360005b838110156114075780820151818401526020810190506113ec565b50505050905090810190601f1680156114345780820380516001836020036101000a031916815260200191505b509250505060405180910390f35b61150d600480360360a081101561145857600080fd5b8101908080359060200190929190803573ffffffffffffffffffffffffffffffffffffffff169060200190929190803573ffffffffffffffffffffffffffffffffffffffff16906020019092919080359060200190929190803590602001906401000000008111156114c957600080fd5b8201836020820111156114db57600080fd5b803590602001918460018302840111640100000000831117156114fd57600080fd5b909192939192939050505061505b565b005b61155b6004803603604081101561152557600080fd5b8101908080359060200190929190803573ffffffffffffffffffffffffffffffffffffffff169060200190929190505050615478565b6040518082815260200191505060405180910390f35b6115d36004803603604081101561158757600080fd5b81019080803573ffffffffffffffffffffffffffffffffffffffff169060200190929190803573ffffffffffffffffffffffffffffffffffffffff1690602001909291905050506154d3565b60405180821515815260200191505060405180910390f35b6116376004803603604081101561160157600080fd5b81019080803573ffffffffffffffffffffffffffffffffffffffff16906020019092919080359060200190929190505050615672565b604051808381526020018281526020019250505060405180910390f35b6116a06004803603604081101561166a57600080fd5b81019080803573ffffffffffffffffffffffffffffffffffffffff1690602001909291908035906020019092919050505061582d565b6040518082815260200191505060405180910390f35b611757600480360360608110156116cc57600080fd5b81019080803573ffffffffffffffffffffffffffffffffffffffff169060200190929190803590602001909291908035906020019064010000000081111561171357600080fd5b82018360208201111561172557600080fd5b8035906020019184600183028401116401000000008311171561174757600080fd5b9091929391929390505050615a46565b60405180827bffffffffffffffffffffffffffffffffffffffffffffffffffffffff1916815260200191505060405180910390f35b6000806000837bffffffffffffffffffffffffffffffffffffffffffffffffffffffff19167bffffffffffffffffffffffffffffffffffffffffffffffffffffffff1916815260200190815260200160002060009054906101000a900460ff169050919050565b606060068054600181600116156101000203166002900480601f01602080910402602001604051908101604052809291908181526020018280546001816001161561010002031660029004801561188b5780601f106118605761010080835404028352916020019161188b565b820191906000526020600020905b81548152906001019060200180831161186e57829003601f168201915b5050505050905090565b60003373ffffffffffffffffffffffffffffffffffffffff168573ffffffffffffffffffffffffffffffffffffffff1614905080611a30576000606063dd62ed3e8733604051602401808373ffffffffffffffffffffffffffffffffffffffff1681526020018273ffffffffffffffffffffffffffffffffffffffff168152602001925050506040516020818303038152906040529060e01b6020820180517bffffffffffffffffffffffffffffffffffffffffffffffffffffffff838183161783525050505090506000602082835160208501895afa9050801561197957815192505b806119cf576040517f08c379a0000000000000000000000000000000000000000000000000000000008152600401808060200182810382526029815260200180618e916029913960400191505060405180910390fd5b84831015611a28576040517f08c379a000000000000000000000000000000000000000000000000000000000815260040180806020018281038252602d815260200180618979602d913960400191505060405180910390fd5b600193505050505b80611a86576040517f08c379a0000000000000000000000000000000000000000000000000000000008152600401808060200182810382526028815260200180618b626028913960400191505060405180910390fd5b611a9285858585615bf7565b8273ffffffffffffffffffffffffffffffffffffffff166323b872dd8630856040518463ffffffff1660e01b8152600401808473ffffffffffffffffffffffffffffffffffffffff1681526020018373ffffffffffffffffffffffffffffffffffffffff1681526020018281526020019350505050602060405180830381600087803b158015611b2157600080fd5b505af1158015611b35573d6000803e3d6000fd5b505050506040513d6020811015611b4b57600080fd5b8101908080519060200190929190505050611bb1576040517f08c379a00000000000000000000000000000000000000000000000000000000081526004018080602001828103825260278152602001806189526027913960400191505060405180910390fd5b5050505050565b600080611bc483612e28565b60601c9050600c60008273ffffffffffffffffffffffffffffffffffffffff1673ffffffffffffffffffffffffffffffffffffffff168152602001908152602001600020600084815260200190815260200160002060009054906101000a900473ffffffffffffffffffffffffffffffffffffffff16915050919050565b6000601360008673ffffffffffffffffffffffffffffffffffffffff1673ffffffffffffffffffffffffffffffffffffffff16815260200190815260200160002060008581526020019081526020016000205490506000811180611d07575060006012600083815260200190815260200160002060008773ffffffffffffffffffffffffffffffffffffffff1673ffffffffffffffffffffffffffffffffffffffff168152602001908152602001600020600086815260200190815260200160002054115b611d5c576040517f08c379a0000000000000000000000000000000000000000000000000000000008152600401808060200182810382526033815260200180618be56033913960400191505060405180910390fd5b878114611db4576040517f08c379a0000000000000000000000000000000000000000000000000000000008152600401808060200182810382526028815260200180618a3d6028913960400191505060405180910390fd5b600073ffffffffffffffffffffffffffffffffffffffff168773ffffffffffffffffffffffffffffffffffffffff161415611e57576040517f08c379a000000000000000000000000000000000000000000000000000000000815260040180806020018281038252601d8152602001807f436f6d706f7361626c65546f6b656e3a2063616e6e6f7420626520307800000081525060200191505060405180910390fd5b6000611e6282612e28565b60601c90503373ffffffffffffffffffffffffffffffffffffffff168173ffffffffffffffffffffffffffffffffffffffff161480611f275750600e60008273ffffffffffffffffffffffffffffffffffffffff1673ffffffffffffffffffffffffffffffffffffffff16815260200190815260200160002060003373ffffffffffffffffffffffffffffffffffffffff1673ffffffffffffffffffffffffffffffffffffffff16815260200190815260200160002060009054906101000a900460ff165b80611fcd57503373ffffffffffffffffffffffffffffffffffffffff16600c60008373ffffffffffffffffffffffffffffffffffffffff1673ffffffffffffffffffffffffffffffffffffffff168152602001908152602001600020600084815260200190815260200160002060009054906101000a900473ffffffffffffffffffffffffffffffffffffffff1673ffffffffffffffffffffffffffffffffffffffff16145b612022576040517f08c379a0000000000000000000000000000000000000000000000000000000008152600401808060200182810382526028815260200180618eba6028913960400191505060405180910390fd5b61202d898787615ec8565b8573ffffffffffffffffffffffffffffffffffffffff1663f50acfa0308a8a8989896040518763ffffffff1660e01b8152600401808773ffffffffffffffffffffffffffffffffffffffff1681526020018673ffffffffffffffffffffffffffffffffffffffff168152602001858152602001848152602001806020018281038252848482818152602001925080828437600081840152601f19601f820116905080830192505050975050505050505050600060405180830381600087803b1580156120f857600080fd5b505af115801561210c573d6000803e3d6000fd5b505050508573ffffffffffffffffffffffffffffffffffffffff168873ffffffffffffffffffffffffffffffffffffffff168a7f0ef52e516fb5aec15a5d3587e5480481b702b26db93c8430eca78b61990fd3f6886040518082815260200191505060405180910390a4505050505050505050565b600061218c82612e28565b60601c90503373ffffffffffffffffffffffffffffffffffffffff168173ffffffffffffffffffffffffffffffffffffffff1614806122515750600e60008273ffffffffffffffffffffffffffffffffffffffff1673ffffffffffffffffffffffffffffffffffffffff16815260200190815260200160002060003373ffffffffffffffffffffffffffffffffffffffff1673ffffffffffffffffffffffffffffffffffffffff16815260200190815260200160002060009054906101000a900460ff165b6122a6576040517f08c379a0000000000000000000000000000000000000000000000000000000008152600401808060200182810382526022815260200180618b136022913960400191505060405180910390fd5b82600c60008373ffffffffffffffffffffffffffffffffffffffff1673ffffffffffffffffffffffffffffffffffffffff168152602001908152602001600020600084815260200190815260200160002060006101000a81548173ffffffffffffffffffffffffffffffffffffffff021916908373ffffffffffffffffffffffffffffffffffffffff160217905550818373ffffffffffffffffffffffffffffffffffffffff168273ffffffffffffffffffffffffffffffffffffffff167f8c5be1e5ebec7d5bd14f71427d1e84f3dd0314c0f7b2291e5b200ac8c7c3b92560405160405180910390a4505050565b6000600f6000848152602001908152602001600020805490508210612405576040517f08c379a00000000000000000000000000000000000000000000000000000000081526004018080602001828103825260398152602001806189196039913960400191505060405180910390fd5b600f6000848152602001908152602001600020828154811061242357fe5b9060005260206000200160009054906101000a900473ffffffffffffffffffffffffffffffffffffffff16905092915050565b6000601d54905090565b60008083839050116124bd576040517f08c379a0000000000000000000000000000000000000000000000000000000008152600401808060200182810382526046815260200180618e266046913960600191505060405180910390fd5b600060a435905060208484905010156124e157600884849050026101000381901c90505b6124ed868233886164d8565b600073ffffffffffffffffffffffffffffffffffffffff163373ffffffffffffffffffffffffffffffffffffffff16636352211e876040518263ffffffff1660e01b81526004018082815260200191505060206040518083038186803b15801561255657600080fd5b505afa15801561256a573d6000803e3d6000fd5b505050506040513d602081101561258057600080fd5b810190808051906020019092919050505073ffffffffffffffffffffffffffffffffffffffff1614156125fe576040517f08c379a0000000000000000000000000000000000000000000000000000000008152600401808060200182810382526027815260200180618cd36027913960400191505060405180910390fd5b63150b7a0260e01b91505095945050505050565b60006011600085815260200190815260200160002060008473ffffffffffffffffffffffffffffffffffffffff1673ffffffffffffffffffffffffffffffffffffffff1681526020019081526020016000208054905082106126bf576040517f08c379a000000000000000000000000000000000000000000000000000000000815260040180806020018281038252603f815260200180618c18603f913960400191505060405180910390fd5b6011600085815260200190815260200160002060008473ffffffffffffffffffffffffffffffffffffffff1673ffffffffffffffffffffffffffffffffffffffff168152602001908152602001600020828154811061271a57fe5b906000526020600020015490509392505050565b600061273a600261692e565b905090565b6000601360008473ffffffffffffffffffffffffffffffffffffffff1673ffffffffffffffffffffffffffffffffffffffff16815260200190815260200160002060008381526020019081526020016000205490506000811180612804575060006012600083815260200190815260200160002060008573ffffffffffffffffffffffffffffffffffffffff1673ffffffffffffffffffffffffffffffffffffffff168152602001908152602001600020600084815260200190815260200160002054115b612859576040517f08c379a0000000000000000000000000000000000000000000000000000000008152600401808060200182810382526033815260200180618be56033913960400191505060405180910390fd5b8481146128b1576040517f08c379a0000000000000000000000000000000000000000000000000000000008152600401808060200182810382526028815260200180618a3d6028913960400191505060405180910390fd5b600073ffffffffffffffffffffffffffffffffffffffff168473ffffffffffffffffffffffffffffffffffffffff161415612954576040517f08c379a000000000000000000000000000000000000000000000000000000000815260040180806020018281038252601d8152602001807f436f6d706f7361626c65546f6b656e3a2063616e6e6f7420626520307800000081525060200191505060405180910390fd5b600061295f82612e28565b60601c90503373ffffffffffffffffffffffffffffffffffffffff168173ffffffffffffffffffffffffffffffffffffffff161480612a245750600e60008273ffffffffffffffffffffffffffffffffffffffff1673ffffffffffffffffffffffffffffffffffffffff16815260200190815260200160002060003373ffffffffffffffffffffffffffffffffffffffff1673ffffffffffffffffffffffffffffffffffffffff16815260200190815260200160002060009054906101000a900460ff165b80612aca57503373ffffffffffffffffffffffffffffffffffffffff16600c60008373ffffffffffffffffffffffffffffffffffffffff1673ffffffffffffffffffffffffffffffffffffffff168152602001908152602001600020600084815260200190815260200160002060009054906101000a900473ffffffffffffffffffffffffffffffffffffffff1673ffffffffffffffffffffffffffffffffffffffff16145b612b1f576040517f08c379a0000000000000000000000000000000000000000000000000000000008152600401808060200182810382526028815260200180618eba6028913960400191505060405180910390fd5b612b2a828585615ec8565b8373ffffffffffffffffffffffffffffffffffffffff166342842e0e3087866040518463ffffffff1660e01b8152600401808473ffffffffffffffffffffffffffffffffffffffff1681526020018373ffffffffffffffffffffffffffffffffffffffff1681526020018281526020019350505050600060405180830381600087803b158015612bb957600080fd5b505af1158015612bcd573d6000803e3d6000fd5b505050508373ffffffffffffffffffffffffffffffffffffffff168573ffffffffffffffffffffffffffffffffffffffff16837f0ef52e516fb5aec15a5d3587e5480481b702b26db93c8430eca78b61990fd3f6866040518082815260200191505060405180910390a4505050505050565b612c4a838383616943565b505050565b6000612ca282600160008673ffffffffffffffffffffffffffffffffffffffff1673ffffffffffffffffffffffffffffffffffffffff16815260200190815260200160002061716490919063ffffffff16565b905092915050565b6000612d8589898080601f016020809104026020016040519081016040528093929190818152602001838380828437600081840152601f19601f8201169050808301925050505050505088888080601f016020809104026020016040519081016040528093929190818152602001838380828437600081840152601f19601f8201169050808301925050505050505087878080601f016020809104026020016040519081016040528093929190818152602001838380828437600081840152601f19601f82011690508083019250505050505050868661717e565b905098975050505050505050565b60006011600084815260200190815260200160002060008373ffffffffffffffffffffffffffffffffffffffff1673ffffffffffffffffffffffffffffffffffffffff16815260200190815260200160002080549050905092915050565b6000601a60149054906101000a900460ff16905090565b612e23838383604051806020016040528060008152506143a5565b505050565b6000612e3560008361582d565b9050919050565b600080612e538360026172fe90919063ffffffff16565b50905080915050919050565b600080601360008573ffffffffffffffffffffffffffffffffffffffff1673ffffffffffffffffffffffffffffffffffffffff168152602001908152602001600020600084815260200190815260200160002054905060006012600083815260200190815260200160002060008673ffffffffffffffffffffffffffffffffffffffff1673ffffffffffffffffffffffffffffffffffffffff168152602001908152602001600020600085815260200190815260200160002054141591505092915050565b600060146000848152602001908152602001600020805490508210612f94576040517f08c379a000000000000000000000000000000000000000000000000000000000815260040180806020018281038252604a815260200180618cfa604a913960600191505060405180910390fd5b601460008481526020019081526020016000208281548110612fb257fe5b9060005260206000200160009054906101000a900473ffffffffffffffffffffffffffffffffffffffff16905092915050565b6000600b600083815260200190815260200160002060009054906101000a900473ffffffffffffffffffffffffffffffffffffffff169050600073ffffffffffffffffffffffffffffffffffffffff168173ffffffffffffffffffffffffffffffffffffffff1614156130a3576040517f08c379a00000000000000000000000000000000000000000000000000000000081526004018080602001828103825260218152602001806188456021913960400191505060405180910390fd5b919050565b6000600a600081548092919060010191905055506000600a54905082600b600083815260200190815260200160002060006101000a81548173ffffffffffffffffffffffffffffffffffffffff021916908373ffffffffffffffffffffffffffffffffffffffff160217905550600d60008473ffffffffffffffffffffffffffffffffffffffff1673ffffffffffffffffffffffffffffffffffffffff1681526020019081526020016000206000815480929190600101919050555080915050919050565b606060098054600181600116156101000203166002900480601f0160208091040260200160405190810160405280929190818152602001828054600181600116156101000203166002900480156132055780601f106131da57610100808354040283529160200191613205565b820191906000526020600020905b8154815290600101906020018083116131e857829003601f168201915b5050505050905090565b60008073ffffffffffffffffffffffffffffffffffffffff168273ffffffffffffffffffffffffffffffffffffffff161415613296576040517f08c379a0000000000000000000000000000000000000000000000000000000008152600401808060200182810382526024815260200180618b8a6024913960400191505060405180910390fd5b600d60008373ffffffffffffffffffffffffffffffffffffffff1673ffffffffffffffffffffffffffffffffffffffff168152602001908152602001600020549050919050565b600073ffffffffffffffffffffffffffffffffffffffff168373ffffffffffffffffffffffffffffffffffffffff161415613380576040517f08c379a000000000000000000000000000000000000000000000000000000000815260040180806020018281038252601f8152602001807f436f6d706f7361626c65546f6b656e3a20746f2063616e27742062652030780081525060200191505060405180910390fd5b600061338b85612e28565b60601c90503373ffffffffffffffffffffffffffffffffffffffff168173ffffffffffffffffffffffffffffffffffffffff1614806134505750600e60008273ffffffffffffffffffffffffffffffffffffffff1673ffffffffffffffffffffffffffffffffffffffff16815260200190815260200160002060003373ffffffffffffffffffffffffffffffffffffffff1673ffffffffffffffffffffffffffffffffffffffff16815260200190815260200160002060009054906101000a900460ff165b806134f657503373ffffffffffffffffffffffffffffffffffffffff16600c60008373ffffffffffffffffffffffffffffffffffffffff1673ffffffffffffffffffffffffffffffffffffffff168152602001908152602001600020600087815260200190815260200160002060009054906101000a900473ffffffffffffffffffffffffffffffffffffffff1673ffffffffffffffffffffffffffffffffffffffff16145b61354b576040517f08c379a000000000000000000000000000000000000000000000000000000000815260040180806020018281038252602d815260200180618df9602d913960400191505060405180910390fd5b61355685848461732a565b8273ffffffffffffffffffffffffffffffffffffffff1663a9059cbb85846040518363ffffffff1660e01b8152600401808373ffffffffffffffffffffffffffffffffffffffff16815260200182815260200192505050602060405180830381600087803b1580156135c757600080fd5b505af11580156135db573d6000803e3d6000fd5b505050506040513d60208110156135f157600080fd5b8101908080519060200190929190505050613657576040517f08c379a00000000000000000000000000000000000000000000000000000000081526004018080602001828103825260278152602001806189526027913960400191505060405180910390fd5b8273ffffffffffffffffffffffffffffffffffffffff168473ffffffffffffffffffffffffffffffffffffffff16867fa8352277873fc0d2b233b8127433da351a4164fa701ed6ff79655694222932c4856040518082815260200191505060405180910390a45050505050565b600080821161371e576040517f08c379a0000000000000000000000000000000000000000000000000000000008152600401808060200182810382526032815260200180618c576032913960400191505060405180910390fd5b600083905060008173ffffffffffffffffffffffffffffffffffffffff1663075461726040518163ffffffff1660e01b815260040160206040518083038186803b15801561376b57600080fd5b505afa15801561377f573d6000803e3d6000fd5b505050506040513d602081101561379557600080fd5b81019080805190602001909291905050509050601c548273ffffffffffffffffffffffffffffffffffffffff1663dd62ed3e83306040518363ffffffff1660e01b8152600401808373ffffffffffffffffffffffffffffffffffffffff1681526020018273ffffffffffffffffffffffffffffffffffffffff1681526020019250505060206040518083038186803b15801561383057600080fd5b505afa158015613844573d6000803e3d6000fd5b505050506040513d602081101561385a57600080fd5b810190808051906020019092919050505010156138c2576040517f08c379a0000000000000000000000000000000000000000000000000000000008152600401808060200182810382526025815260200180618e6c6025913960400191505060405180910390fd5b8173ffffffffffffffffffffffffffffffffffffffff166323b872dd8230601c546040518463ffffffff1660e01b8152600401808473ffffffffffffffffffffffffffffffffffffffff1681526020018373ffffffffffffffffffffffffffffffffffffffff1681526020018281526020019350505050602060405180830381600087803b15801561395357600080fd5b505af1158015613967573d6000803e3d6000fd5b505050506040513d602081101561397d57600080fd5b81019080805190602001909291905050506139e3576040517f08c379a0000000000000000000000000000000000000000000000000000000008152600401808060200182810382526037815260200180618a066037913960400191505060405180910390fd5b601e60008273ffffffffffffffffffffffffffffffffffffffff1673ffffffffffffffffffffffffffffffffffffffff168152602001908152602001600020859080600181540180825580915050600190039060005260206000200160009091909190916101000a81548173ffffffffffffffffffffffffffffffffffffffff021916908373ffffffffffffffffffffffffffffffffffffffff160217905550613ad584601f60008873ffffffffffffffffffffffffffffffffffffffff1673ffffffffffffffffffffffffffffffffffffffff168152602001908152602001600020546176ac90919063ffffffff16565b601f60008773ffffffffffffffffffffffffffffffffffffffff1673ffffffffffffffffffffffffffffffffffffffff16815260200190815260200160002081905550613b2d84601d546176ac90919063ffffffff16565b508473ffffffffffffffffffffffffffffffffffffffff168173ffffffffffffffffffffffffffffffffffffffff167fcd384a6f1a58e5f331e7c0f316ec0d7253246d5d9888892fed2184ff3b081f2b601f60008973ffffffffffffffffffffffffffffffffffffffff1673ffffffffffffffffffffffffffffffffffffffff168152602001908152602001600020546040518082815260200191505060405180910390a360019250505092915050565b6000601360008673ffffffffffffffffffffffffffffffffffffffff1673ffffffffffffffffffffffffffffffffffffffff16815260200190815260200160002060008581526020019081526020016000205490506000811180613ca3575060006012600083815260200190815260200160002060008773ffffffffffffffffffffffffffffffffffffffff1673ffffffffffffffffffffffffffffffffffffffff168152602001908152602001600020600086815260200190815260200160002054115b613cf8576040517f08c379a0000000000000000000000000000000000000000000000000000000008152600401808060200182810382526033815260200180618be56033913960400191505060405180910390fd5b868114613d50576040517f08c379a0000000000000000000000000000000000000000000000000000000008152600401808060200182810382526028815260200180618a3d6028913960400191505060405180910390fd5b600073ffffffffffffffffffffffffffffffffffffffff168673ffffffffffffffffffffffffffffffffffffffff161415613df3576040517f08c379a000000000000000000000000000000000000000000000000000000000815260040180806020018281038252601d8152602001807f436f6d706f7361626c65546f6b656e3a2063616e6e6f7420626520307800000081525060200191505060405180910390fd5b6000613dfe82612e28565b60601c90503373ffffffffffffffffffffffffffffffffffffffff168173ffffffffffffffffffffffffffffffffffffffff161480613ec35750600e60008273ffffffffffffffffffffffffffffffffffffffff1673ffffffffffffffffffffffffffffffffffffffff16815260200190815260200160002060003373ffffffffffffffffffffffffffffffffffffffff1673ffffffffffffffffffffffffffffffffffffffff16815260200190815260200160002060009054906101000a900460ff165b80613f6957503373ffffffffffffffffffffffffffffffffffffffff16600c60008373ffffffffffffffffffffffffffffffffffffffff1673ffffffffffffffffffffffffffffffffffffffff168152602001908152602001600020600084815260200190815260200160002060009054906101000a900473ffffffffffffffffffffffffffffffffffffffff1673ffffffffffffffffffffffffffffffffffffffff16145b613fbe576040517f08c379a0000000000000000000000000000000000000000000000000000000008152600401808060200182810382526028815260200180618eba6028913960400191505060405180910390fd5b613fc9828787615ec8565b8573ffffffffffffffffffffffffffffffffffffffff1663b88d4fde30898888886040518663ffffffff1660e01b8152600401808673ffffffffffffffffffffffffffffffffffffffff1681526020018573ffffffffffffffffffffffffffffffffffffffff168152602001848152602001806020018281038252848482818152602001925080828437600081840152601f19601f8201169050808301925050509650505050505050600060405180830381600087803b15801561408c57600080fd5b505af11580156140a0573d6000803e3d6000fd5b505050508573ffffffffffffffffffffffffffffffffffffffff168773ffffffffffffffffffffffffffffffffffffffff16837f0ef52e516fb5aec15a5d3587e5480481b702b26db93c8430eca78b61990fd3f6886040518082815260200191505060405180910390a45050505050505050565b6000601a60009054906101000a900473ffffffffffffffffffffffffffffffffffffffff16905090565b6000600f6000838152602001908152602001600020805490509050919050565b606060078054600181600116156101000203166002900480601f0160208091040260200160405190810160405280929190818152602001828054600181600116156101000203166002900480156141f65780601f106141cb576101008083540402835291602001916141f6565b820191906000526020600020905b8154815290600101906020018083116141d957829003601f168201915b5050505050905090565b600073ffffffffffffffffffffffffffffffffffffffff168273ffffffffffffffffffffffffffffffffffffffff161415614286576040517f08c379a0000000000000000000000000000000000000000000000000000000008152600401808060200182810382526025815260200180618f136025913960400191505060405180910390fd5b80600e60003373ffffffffffffffffffffffffffffffffffffffff1673ffffffffffffffffffffffffffffffffffffffff16815260200190815260200160002060008473ffffffffffffffffffffffffffffffffffffffff1673ffffffffffffffffffffffffffffffffffffffff16815260200190815260200160002060006101000a81548160ff0219169083151502179055508173ffffffffffffffffffffffffffffffffffffffff163373ffffffffffffffffffffffffffffffffffffffff167f17307eab39ab6107e8899845ad3d59bd9653f200f220920489ca2b5937696c318360405180821515815260200191505060405180910390a35050565b600060146000838152602001908152602001600020805490509050919050565b6143b66143b0617734565b8361773c565b61440b576040517f08c379a0000000000000000000000000000000000000000000000000000000008152600401808060200182810382526031815260200180618ee26031913960400191505060405180910390fd5b61441784848484617830565b50505050565b614429848484846164d8565b3373ffffffffffffffffffffffffffffffffffffffff168473ffffffffffffffffffffffffffffffffffffffff16148061451f57508173ffffffffffffffffffffffffffffffffffffffff1663e985e9c585336040518363ffffffff1660e01b8152600401808373ffffffffffffffffffffffffffffffffffffffff1681526020018273ffffffffffffffffffffffffffffffffffffffff1681526020019250505060206040518083038186803b1580156144e357600080fd5b505afa1580156144f7573d6000803e3d6000fd5b505050506040513d602081101561450d57600080fd5b81019080805190602001909291905050505b806145e057503373ffffffffffffffffffffffffffffffffffffffff168273ffffffffffffffffffffffffffffffffffffffff1663081812fc836040518263ffffffff1660e01b81526004018082815260200191505060206040518083038186803b15801561458d57600080fd5b505afa1580156145a1573d6000803e3d6000fd5b505050506040513d60208110156145b757600080fd5b810190808051906020019092919050505073ffffffffffffffffffffffffffffffffffffffff16145b614635576040517f08c379a0000000000000000000000000000000000000000000000000000000008152600401808060200182810382526024815260200180618aef6024913960400191505060405180910390fd5b8173ffffffffffffffffffffffffffffffffffffffff166323b872dd8530846040518463ffffffff1660e01b8152600401808473ffffffffffffffffffffffffffffffffffffffff1681526020018373ffffffffffffffffffffffffffffffffffffffff1681526020018281526020019350505050600060405180830381600087803b1580156146c457600080fd5b505af11580156146d8573d6000803e3d6000fd5b5050505050505050565b6000601360008473ffffffffffffffffffffffffffffffffffffffff1673ffffffffffffffffffffffffffffffffffffffff168152602001908152602001600020600083815260200190815260200160002054905060008111806147a7575060006012600083815260200190815260200160002060008573ffffffffffffffffffffffffffffffffffffffff1673ffffffffffffffffffffffffffffffffffffffff168152602001908152602001600020600084815260200190815260200160002054115b6147fc576040517f08c379a0000000000000000000000000000000000000000000000000000000008152600401808060200182810382526033815260200180618be56033913960400191505060405180910390fd5b848114614854576040517f08c379a0000000000000000000000000000000000000000000000000000000008152600401808060200182810382526028815260200180618a3d6028913960400191505060405180910390fd5b600073ffffffffffffffffffffffffffffffffffffffff168473ffffffffffffffffffffffffffffffffffffffff1614156148f7576040517f08c379a000000000000000000000000000000000000000000000000000000000815260040180806020018281038252601d8152602001807f436f6d706f7361626c65546f6b656e3a2063616e6e6f7420626520307800000081525060200191505060405180910390fd5b600061490282612e28565b60601c90503373ffffffffffffffffffffffffffffffffffffffff168173ffffffffffffffffffffffffffffffffffffffff1614806149c75750600e60008273ffffffffffffffffffffffffffffffffffffffff1673ffffffffffffffffffffffffffffffffffffffff16815260200190815260200160002060003373ffffffffffffffffffffffffffffffffffffffff1673ffffffffffffffffffffffffffffffffffffffff16815260200190815260200160002060009054906101000a900460ff165b80614a6d57503373ffffffffffffffffffffffffffffffffffffffff16600c60008373ffffffffffffffffffffffffffffffffffffffff1673ffffffffffffffffffffffffffffffffffffffff168152602001908152602001600020600084815260200190815260200160002060009054906101000a900473ffffffffffffffffffffffffffffffffffffffff1673ffffffffffffffffffffffffffffffffffffffff16145b614ac2576040517f08c379a0000000000000000000000000000000000000000000000000000000008152600401808060200182810382526028815260200180618eba6028913960400191505060405180910390fd5b614acd828585615ec8565b606063095ea7b33085604051602401808373ffffffffffffffffffffffffffffffffffffffff168152602001828152602001925050506040516020818303038152906040529060e01b6020820180517bffffffffffffffffffffffffffffffffffffffffffffffffffffffff838183161783525050505090506000818251602084016000895af1508473ffffffffffffffffffffffffffffffffffffffff166323b872dd3088876040518463ffffffff1660e01b8152600401808473ffffffffffffffffffffffffffffffffffffffff1681526020018373ffffffffffffffffffffffffffffffffffffffff1681526020018281526020019350505050600060405180830381600087803b158015614be457600080fd5b505af1158015614bf8573d6000803e3d6000fd5b505050508473ffffffffffffffffffffffffffffffffffffffff168673ffffffffffffffffffffffffffffffffffffffff16847f0ef52e516fb5aec15a5d3587e5480481b702b26db93c8430eca78b61990fd3f6876040518082815260200191505060405180910390a450505050505050565b60008282905011614cc7576040517f08c379a00000000000000000000000000000000000000000000000000000000081526004018080602001828103825260498152602001806188d06049913960600191505060405180910390fd5b614ce63373ffffffffffffffffffffffffffffffffffffffff166178a2565b614d3b576040517f08c379a000000000000000000000000000000000000000000000000000000000815260040180806020018281038252602d815260200180618b35602d913960400191505060405180910390fd5b600060843590506020838390501015614d5f57600883839050026101000381901c90505b614d6b85823387615bf7565b5050505050565b6060614d7d826178b5565b614dd2576040517f08c379a000000000000000000000000000000000000000000000000000000000815260040180806020018281038252602f815260200180618da8602f913960400191505060405180910390fd5b6060600860008481526020019081526020016000208054600181600116156101000203166002900480601f016020809104026020016040519081016040528092919081815260200182805460018160011615610100020316600290048015614e7b5780601f10614e5057610100808354040283529160200191614e7b565b820191906000526020600020905b815481529060010190602001808311614e5e57829003601f168201915b50505050509050600060098054600181600116156101000203166002900490501415614eaa5780915050615056565b600081511115614f83576009816040516020018083805460018160011615610100020316600290048015614f155780601f10614ef3576101008083540402835291820191614f15565b820191906000526020600020905b815481529060010190602001808311614f01575b505082805190602001908083835b60208310614f465780518252602082019150602081019050602083039250614f23565b6001836020036101000a03801982511681845116808217855250505050505090500192505050604051602081830303815290604052915050615056565b6009614f8e846178d2565b6040516020018083805460018160011615610100020316600290048015614fec5780601f10614fca576101008083540402835291820191614fec565b820191906000526020600020905b815481529060010190602001808311614fd8575b505082805190602001908083835b6020831061501d5780518252602082019150602081019050602083039250614ffa565b6001836020036101000a038019825116818451168082178552505050505050905001925050506040516020818303038152906040529150505b919050565b600073ffffffffffffffffffffffffffffffffffffffff168573ffffffffffffffffffffffffffffffffffffffff1614156150fe576040517f08c379a000000000000000000000000000000000000000000000000000000000815260040180806020018281038252601f8152602001807f436f6d706f7361626c65546f6b656e3a20746f2063616e27742062652030780081525060200191505060405180910390fd5b600061510987612e28565b60601c90503373ffffffffffffffffffffffffffffffffffffffff168173ffffffffffffffffffffffffffffffffffffffff1614806151ce5750600e60008273ffffffffffffffffffffffffffffffffffffffff1673ffffffffffffffffffffffffffffffffffffffff16815260200190815260200160002060003373ffffffffffffffffffffffffffffffffffffffff1673ffffffffffffffffffffffffffffffffffffffff16815260200190815260200160002060009054906101000a900460ff165b8061527457503373ffffffffffffffffffffffffffffffffffffffff16600c60008373ffffffffffffffffffffffffffffffffffffffff1673ffffffffffffffffffffffffffffffffffffffff168152602001908152602001600020600089815260200190815260200160002060009054906101000a900473ffffffffffffffffffffffffffffffffffffffff1673ffffffffffffffffffffffffffffffffffffffff16145b6152c9576040517f08c379a000000000000000000000000000000000000000000000000000000000815260040180806020018281038252602d815260200180618df9602d913960400191505060405180910390fd5b6152d487868661732a565b8473ffffffffffffffffffffffffffffffffffffffff1663be45fd62878686866040518563ffffffff1660e01b8152600401808573ffffffffffffffffffffffffffffffffffffffff168152602001848152602001806020018281038252848482818152602001925080828437600081840152601f19601f82011690508083019250505095505050505050602060405180830381600087803b15801561537957600080fd5b505af115801561538d573d6000803e3d6000fd5b505050506040513d60208110156153a357600080fd5b8101908080519060200190929190505050615409576040517f08c379a0000000000000000000000000000000000000000000000000000000008152600401808060200182810382526028815260200180618c896028913960400191505060405180910390fd5b8473ffffffffffffffffffffffffffffffffffffffff168673ffffffffffffffffffffffffffffffffffffffff16887fa8352277873fc0d2b233b8127433da351a4164fa701ed6ff79655694222932c4876040518082815260200191505060405180910390a450505050505050565b60006016600084815260200190815260200160002060008373ffffffffffffffffffffffffffffffffffffffff1673ffffffffffffffffffffffffffffffffffffffff16815260200190815260200160002054905092915050565b60008073ffffffffffffffffffffffffffffffffffffffff168373ffffffffffffffffffffffffffffffffffffffff16141561555a576040517f08c379a0000000000000000000000000000000000000000000000000000000008152600401808060200182810382526022815260200180618dd76022913960400191505060405180910390fd5b600073ffffffffffffffffffffffffffffffffffffffff168273ffffffffffffffffffffffffffffffffffffffff1614156155e0576040517f08c379a0000000000000000000000000000000000000000000000000000000008152600401808060200182810382526025815260200180618f136025913960400191505060405180910390fd5b600e60008473ffffffffffffffffffffffffffffffffffffffff1673ffffffffffffffffffffffffffffffffffffffff16815260200190815260200160002060008373ffffffffffffffffffffffffffffffffffffffff1673ffffffffffffffffffffffffffffffffffffffff16815260200190815260200160002060009054906101000a900460ff16905092915050565b600080601360008573ffffffffffffffffffffffffffffffffffffffff1673ffffffffffffffffffffffffffffffffffffffff16815260200190815260200160002060008481526020019081526020016000205490506000811180615738575060006012600083815260200190815260200160002060008673ffffffffffffffffffffffffffffffffffffffff1673ffffffffffffffffffffffffffffffffffffffff168152602001908152602001600020600085815260200190815260200160002054115b61578d576040517f08c379a0000000000000000000000000000000000000000000000000000000008152600401808060200182810382526021815260200180618f596021913960400191505060405180910390fd5b600b600082815260200190815260200160002060009054906101000a900473ffffffffffffffffffffffffffffffffffffffff1660601b60e063cd740db560e01b7bffffffffffffffffffffffffffffffffffffffffffffffffffffffff1916901b7bffffffffffffffffffffffffffffffffffffffffffffffffffffffff19161781816bffffffffffffffffffffffff19169150915091509250929050565b600080600073ffffffffffffffffffffffffffffffffffffffff168473ffffffffffffffffffffffffffffffffffffffff161461587b5761586e8484617a19565b80945081925050506158b2565b600b600084815260200190815260200160002060009054906101000a900473ffffffffffffffffffffffffffffffffffffffff1690505b5b3073ffffffffffffffffffffffffffffffffffffffff168173ffffffffffffffffffffffffffffffffffffffff1614156158fe576158f18184617a19565b80945081925050506158b3565b6000606063ed81cdda3086604051602401808373ffffffffffffffffffffffffffffffffffffffff168152602001828152602001925050506040516020818303038152906040529060e01b6020820180517bffffffffffffffffffffffffffffffffffffffffffffffffffffffff83818316178352505050509050602081825160208401865afa9150811561599257805193505b600115158215151480156159cf575063cd740db560e01b7bffffffffffffffffffffffffffffffffffffffffffffffffffffffff191660e085901c145b156159dc57505050615a40565b8260601b60e063cd740db560e01b7bffffffffffffffffffffffffffffffffffffffffffffffffffffffff1916901b7bffffffffffffffffffffffffffffffffffffffffffffffffffffffff1916176bffffffffffffffffffffffff191693505050505b92915050565b6000808383905011615aa3576040517f08c379a000000000000000000000000000000000000000000000000000000000815260040180806020018281038252604b815260200180618f7a604b913960600191505060405180910390fd5b600060843590506020848490501015615ac757600884849050026101000381901c90505b615ad3868233886164d8565b600073ffffffffffffffffffffffffffffffffffffffff163373ffffffffffffffffffffffffffffffffffffffff16636352211e876040518263ffffffff1660e01b81526004018082815260200191505060206040518083038186803b158015615b3c57600080fd5b505afa158015615b50573d6000803e3d6000fd5b505050506040513d6020811015615b6657600080fd5b810190808051906020019092919050505073ffffffffffffffffffffffffffffffffffffffff161415615be4576040517f08c379a0000000000000000000000000000000000000000000000000000000008152600401808060200182810382526027815260200180618cd36027913960400191505060405180910390fd5b63150b7a0260e01b915050949350505050565b600073ffffffffffffffffffffffffffffffffffffffff16600b600085815260200190815260200160002060009054906101000a900473ffffffffffffffffffffffffffffffffffffffff1673ffffffffffffffffffffffffffffffffffffffff161415615cb0576040517f08c379a000000000000000000000000000000000000000000000000000000000815260040180806020018281038252602981526020018061881c6029913960400191505060405180910390fd5b6000811415615cbe57615ec2565b60006016600085815260200190815260200160002060008473ffffffffffffffffffffffffffffffffffffffff1673ffffffffffffffffffffffffffffffffffffffff1681526020019081526020016000205490506000811415615dfc5760146000858152602001908152602001600020805490506015600086815260200190815260200160002060008573ffffffffffffffffffffffffffffffffffffffff1673ffffffffffffffffffffffffffffffffffffffff1681526020019081526020016000208190555060146000858152602001908152602001600020839080600181540180825580915050600190039060005260206000200160009091909190916101000a81548173ffffffffffffffffffffffffffffffffffffffff021916908373ffffffffffffffffffffffffffffffffffffffff1602179055505b816016600086815260200190815260200160002060008573ffffffffffffffffffffffffffffffffffffffff1673ffffffffffffffffffffffffffffffffffffffff168152602001908152602001600020600082825401925050819055508273ffffffffffffffffffffffffffffffffffffffff16848673ffffffffffffffffffffffffffffffffffffffff167f684ce28ace37552c6bfb98b7cceda8ed55327078eafb5dfb31218e0856382763856040518082815260200191505060405180910390a4505b50505050565b60006012600085815260200190815260200160002060008473ffffffffffffffffffffffffffffffffffffffff1673ffffffffffffffffffffffffffffffffffffffff16815260200190815260200160002060008381526020019081526020016000205490506000811415615fa5576040517f08c379a000000000000000000000000000000000000000000000000000000000815260040180806020018281038252601f8152602001807f4368696c6420746f6b656e206e6f74206f776e656420627920746f6b656e2e0081525060200191505060405180910390fd5b600060016011600087815260200190815260200160002060008673ffffffffffffffffffffffffffffffffffffffff1673ffffffffffffffffffffffffffffffffffffffff1681526020019081526020016000208054905003905060006011600087815260200190815260200160002060008673ffffffffffffffffffffffffffffffffffffffff1673ffffffffffffffffffffffffffffffffffffffff168152602001908152602001600020828154811061605d57fe5b906000526020600020015490508084141561614657806011600088815260200190815260200160002060008773ffffffffffffffffffffffffffffffffffffffff1673ffffffffffffffffffffffffffffffffffffffff16815260200190815260200160002060018503815481106160d157fe5b9060005260206000200181905550826012600088815260200190815260200160002060008773ffffffffffffffffffffffffffffffffffffffff1673ffffffffffffffffffffffffffffffffffffffff1681526020019081526020016000206000838152602001908152602001600020819055505b6011600087815260200190815260200160002060008673ffffffffffffffffffffffffffffffffffffffff1673ffffffffffffffffffffffffffffffffffffffff16815260200190815260200160002080548061619f57fe5b600190038181906000526020600020016000905590556012600087815260200190815260200160002060008673ffffffffffffffffffffffffffffffffffffffff1673ffffffffffffffffffffffffffffffffffffffff168152602001908152602001600020600085815260200190815260200160002060009055601360008673ffffffffffffffffffffffffffffffffffffffff1673ffffffffffffffffffffffffffffffffffffffff16815260200190815260200160002060008581526020019081526020016000206000905560008214156164d05760006001600f6000898152602001908152602001600020805490500390506000600f600089815260200190815260200160002082815481106162b557fe5b9060005260206000200160009054906101000a900473ffffffffffffffffffffffffffffffffffffffff1690508073ffffffffffffffffffffffffffffffffffffffff168773ffffffffffffffffffffffffffffffffffffffff1614616428576000601060008a815260200190815260200160002060008973ffffffffffffffffffffffffffffffffffffffff1673ffffffffffffffffffffffffffffffffffffffff16815260200190815260200160002054905081600f60008b8152602001908152602001600020828154811061638957fe5b9060005260206000200160006101000a81548173ffffffffffffffffffffffffffffffffffffffff021916908373ffffffffffffffffffffffffffffffffffffffff16021790555080601060008b815260200190815260200160002060008473ffffffffffffffffffffffffffffffffffffffff1673ffffffffffffffffffffffffffffffffffffffff16815260200190815260200160002081905550505b600f600089815260200190815260200160002080548061644457fe5b6001900381819060005260206000200160006101000a81549073ffffffffffffffffffffffffffffffffffffffff021916905590556010600089815260200190815260200160002060008873ffffffffffffffffffffffffffffffffffffffff1673ffffffffffffffffffffffffffffffffffffffff1681526020019081526020016000206000905550505b505050505050565b600073ffffffffffffffffffffffffffffffffffffffff16600b600085815260200190815260200160002060009054906101000a900473ffffffffffffffffffffffffffffffffffffffff1673ffffffffffffffffffffffffffffffffffffffff161415616591576040517f08c379a000000000000000000000000000000000000000000000000000000000815260040180806020018281038252602981526020018061881c6029913960400191505060405180910390fd5b60006012600085815260200190815260200160002060008473ffffffffffffffffffffffffffffffffffffffff1673ffffffffffffffffffffffffffffffffffffffff1681526020019081526020016000206000838152602001908152602001600020541461664b576040517f08c379a0000000000000000000000000000000000000000000000000000000008152600401808060200182810382526037815260200180618bae6037913960400191505060405180910390fd5b60006011600085815260200190815260200160002060008473ffffffffffffffffffffffffffffffffffffffff1673ffffffffffffffffffffffffffffffffffffffff168152602001908152602001600020805490509050600081141561678c57600f6000858152602001908152602001600020805490506010600086815260200190815260200160002060008573ffffffffffffffffffffffffffffffffffffffff1673ffffffffffffffffffffffffffffffffffffffff16815260200190815260200160002081905550600f6000858152602001908152602001600020839080600181540180825580915050600190039060005260206000200160009091909190916101000a81548173ffffffffffffffffffffffffffffffffffffffff021916908373ffffffffffffffffffffffffffffffffffffffff1602179055505b6011600085815260200190815260200160002060008473ffffffffffffffffffffffffffffffffffffffff1673ffffffffffffffffffffffffffffffffffffffff168152602001908152602001600020829080600181540180825580915050600190039060005260206000200160009091909190915055600181016012600086815260200190815260200160002060008573ffffffffffffffffffffffffffffffffffffffff1673ffffffffffffffffffffffffffffffffffffffff16815260200190815260200160002060008481526020019081526020016000208190555083601360008573ffffffffffffffffffffffffffffffffffffffff1673ffffffffffffffffffffffffffffffffffffffff1681526020019081526020016000206000848152602001908152602001600020819055508273ffffffffffffffffffffffffffffffffffffffff16848673ffffffffffffffffffffffffffffffffffffffff167f0371ddf2288ad1ba92626a7e31c86a9d006e592cfe57d7d946ef08b13457c08b856040518082815260200191505060405180910390a45050505050565b600061693c82600001617b71565b9050919050565b600073ffffffffffffffffffffffffffffffffffffffff168373ffffffffffffffffffffffffffffffffffffffff1614156169c9576040517f08c379a0000000000000000000000000000000000000000000000000000000008152600401808060200182810382526021815260200180618f386021913960400191505060405180910390fd5b8273ffffffffffffffffffffffffffffffffffffffff16600b600083815260200190815260200160002060009054906101000a900473ffffffffffffffffffffffffffffffffffffffff1673ffffffffffffffffffffffffffffffffffffffff1614616a9d576040517f08c379a000000000000000000000000000000000000000000000000000000000815260040180806020018281038252601e8152602001807f436f6d706f7361626c65546f6b656e3a204e6f7420746865206f776e6572000081525060200191505060405180910390fd5b600073ffffffffffffffffffffffffffffffffffffffff168273ffffffffffffffffffffffffffffffffffffffff161415616b40576040517f08c379a000000000000000000000000000000000000000000000000000000000815260040180806020018281038252601f8152602001807f436f6d706f7361626c65546f6b656e3a20546f2063616e27742062652030780081525060200191505060405180910390fd5b8273ffffffffffffffffffffffffffffffffffffffff163373ffffffffffffffffffffffffffffffffffffffff1614616e2257600080606063ed81cdda3085604051602401808373ffffffffffffffffffffffffffffffffffffffff168152602001828152602001925050506040516020818303038152906040529060e01b6020820180517bffffffffffffffffffffffffffffffffffffffffffffffffffffffff83818316178352505050509050602081825160208401895afa91508115616c0857805192505b600115158215151415616c995763cd740db560e01b7bffffffffffffffffffffffffffffffffffffffffffffffffffffffff191660e084901c1415616c98576040517f08c379a000000000000000000000000000000000000000000000000000000000815260040180806020018281038252603c8152602001806189ca603c913960400191505060405180910390fd5b5b600e60008773ffffffffffffffffffffffffffffffffffffffff1673ffffffffffffffffffffffffffffffffffffffff16815260200190815260200160002060003373ffffffffffffffffffffffffffffffffffffffff1673ffffffffffffffffffffffffffffffffffffffff16815260200190815260200160002060009054906101000a900460ff1680616dc957503373ffffffffffffffffffffffffffffffffffffffff16600c60008873ffffffffffffffffffffffffffffffffffffffff1673ffffffffffffffffffffffffffffffffffffffff168152602001908152602001600020600086815260200190815260200160002060009054906101000a900473ffffffffffffffffffffffffffffffffffffffff1673ffffffffffffffffffffffffffffffffffffffff16145b616e1e576040517f08c379a000000000000000000000000000000000000000000000000000000000815260040180806020018281038252603b815260200180618d6d603b913960400191505060405180910390fd5b5050505b600073ffffffffffffffffffffffffffffffffffffffff16600c60008573ffffffffffffffffffffffffffffffffffffffff1673ffffffffffffffffffffffffffffffffffffffff168152602001908152602001600020600083815260200190815260200160002060009054906101000a900473ffffffffffffffffffffffffffffffffffffffff1673ffffffffffffffffffffffffffffffffffffffff1614616f9657600c60008473ffffffffffffffffffffffffffffffffffffffff1673ffffffffffffffffffffffffffffffffffffffff168152602001908152602001600020600082815260200190815260200160002060006101000a81549073ffffffffffffffffffffffffffffffffffffffff021916905580600073ffffffffffffffffffffffffffffffffffffffff168473ffffffffffffffffffffffffffffffffffffffff167f8c5be1e5ebec7d5bd14f71427d1e84f3dd0314c0f7b2291e5b200ac8c7c3b92560405160405180910390a45b8173ffffffffffffffffffffffffffffffffffffffff168373ffffffffffffffffffffffffffffffffffffffff1614617104576000600d60008573ffffffffffffffffffffffffffffffffffffffff1673ffffffffffffffffffffffffffffffffffffffff168152602001908152602001600020541161701257fe5b600d60008473ffffffffffffffffffffffffffffffffffffffff1673ffffffffffffffffffffffffffffffffffffffff168152602001908152602001600020600081548092919060019003919050555081600b600083815260200190815260200160002060006101000a81548173ffffffffffffffffffffffffffffffffffffffff021916908373ffffffffffffffffffffffffffffffffffffffff160217905550600d60008373ffffffffffffffffffffffffffffffffffffffff1673ffffffffffffffffffffffffffffffffffffffff168152602001908152602001600020600081548092919060010191905055505b808273ffffffffffffffffffffffffffffffffffffffff168473ffffffffffffffffffffffffffffffffffffffff167fddf252ad1be2c89b69c2b068fc378daa952ba7f163c4a11628f55a4df523b3ef60405160405180910390a4505050565b60006171738360000183617b82565b60001c905092915050565b6000808314156171d9576040517f08c379a00000000000000000000000000000000000000000000000000000000081526004018080602001828103825260388152602001806188666038913960400191505060405180910390fd5b600073ffffffffffffffffffffffffffffffffffffffff168273ffffffffffffffffffffffffffffffffffffffff16146172535781601a60006101000a81548173ffffffffffffffffffffffffffffffffffffffff021916908373ffffffffffffffffffffffffffffffffffffffff16021790555061729c565b61725b617734565b601a60006101000a81548173ffffffffffffffffffffffffffffffffffffffff021916908373ffffffffffffffffffffffffffffffffffffffff1602179055505b85601790805190602001906172b292919061875c565b5084601890805190602001906172c992919061875c565b5082601c819055506172da84617c05565b6001601a60146101000a81548160ff02191690831515021790555095945050505050565b6000806000806173118660000186617c1f565b915091508160001c8160001c9350935050509250929050565b6000811415617338576176a7565b60006016600085815260200190815260200160002060008473ffffffffffffffffffffffffffffffffffffffff1673ffffffffffffffffffffffffffffffffffffffff168152602001908152602001600020549050818110156173e6576040517f08c379a0000000000000000000000000000000000000000000000000000000008152600401808060200182810382526038815260200180618ab76038913960400191505060405180910390fd5b60008282039050806016600087815260200190815260200160002060008673ffffffffffffffffffffffffffffffffffffffff1673ffffffffffffffffffffffffffffffffffffffff1681526020019081526020016000208190555060008114156176a457600060016014600088815260200190815260200160002080549050039050600060146000888152602001908152602001600020828154811061748957fe5b9060005260206000200160009054906101000a900473ffffffffffffffffffffffffffffffffffffffff1690508073ffffffffffffffffffffffffffffffffffffffff168673ffffffffffffffffffffffffffffffffffffffff16146175fc5760006015600089815260200190815260200160002060008873ffffffffffffffffffffffffffffffffffffffff1673ffffffffffffffffffffffffffffffffffffffff16815260200190815260200160002054905081601460008a8152602001908152602001600020828154811061755d57fe5b9060005260206000200160006101000a81548173ffffffffffffffffffffffffffffffffffffffff021916908373ffffffffffffffffffffffffffffffffffffffff16021790555080601560008a815260200190815260200160002060008473ffffffffffffffffffffffffffffffffffffffff1673ffffffffffffffffffffffffffffffffffffffff16815260200190815260200160002081905550505b6014600088815260200190815260200160002080548061761857fe5b6001900381819060005260206000200160006101000a81549073ffffffffffffffffffffffffffffffffffffffff021916905590556015600088815260200190815260200160002060008773ffffffffffffffffffffffffffffffffffffffff1673ffffffffffffffffffffffffffffffffffffffff1681526020019081526020016000206000905550505b50505b505050565b60008082840190508381101561772a576040517f08c379a000000000000000000000000000000000000000000000000000000000815260040180806020018281038252601b8152602001807f536166654d6174683a206164646974696f6e206f766572666c6f77000000000081525060200191505060405180910390fd5b8091505092915050565b600033905090565b6000617747826178b5565b61779c576040517f08c379a000000000000000000000000000000000000000000000000000000000815260040180806020018281038252602c815260200180618a8b602c913960400191505060405180910390fd5b60006177a783612fe5565b90508073ffffffffffffffffffffffffffffffffffffffff168473ffffffffffffffffffffffffffffffffffffffff16148061781657508373ffffffffffffffffffffffffffffffffffffffff166177fe84611bb8565b73ffffffffffffffffffffffffffffffffffffffff16145b80617827575061782681856154d3565b5b91505092915050565b61783b848484617cb8565b61784784848484617efb565b61789c576040517f08c379a000000000000000000000000000000000000000000000000000000000815260040180806020018281038252603281526020018061889e6032913960400191505060405180910390fd5b50505050565b600080823b905060008111915050919050565b60006178cb82600261811490919063ffffffff16565b9050919050565b6060600082141561791a576040518060400160405280600181526020017f30000000000000000000000000000000000000000000000000000000000000008152509050617a14565b600082905060005b60008214617944578080600101915050600a828161793c57fe5b049150617922565b60608167ffffffffffffffff8111801561795d57600080fd5b506040519080825280601f01601f1916602001820160405280156179905781602001600182028036833780820191505090505b50905060006001830390508593505b60008414617a0c57600a84816179b157fe5b0660300160f81b828280600190039350815181106179cb57fe5b60200101907effffffffffffffffffffffffffffffffffffffffffffffffffffffffffffff1916908160001a905350600a8481617a0457fe5b04935061799f565b819450505050505b919050565b600080601360008573ffffffffffffffffffffffffffffffffffffffff1673ffffffffffffffffffffffffffffffffffffffff16815260200190815260200160002060008481526020019081526020016000205490506000811180617adf575060006012600083815260200190815260200160002060008673ffffffffffffffffffffffffffffffffffffffff1673ffffffffffffffffffffffffffffffffffffffff168152602001908152602001600020600085815260200190815260200160002054115b617b34576040517f08c379a0000000000000000000000000000000000000000000000000000000008152600401808060200182810382526021815260200180618f596021913960400191505060405180910390fd5b600b600082815260200190815260200160002060009054906101000a900473ffffffffffffffffffffffffffffffffffffffff1691509250929050565b600081600001805490509050919050565b600081836000018054905011617be3576040517f08c379a00000000000000000000000000000000000000000000000000000000081526004018080602001828103825260228152602001806187fa6022913960400191505060405180910390fd5b826000018281548110617bf257fe5b9060005260206000200154905092915050565b8060099080519060200190617c1b92919061875c565b5050565b60008082846000018054905011617c81576040517f08c379a0000000000000000000000000000000000000000000000000000000008152600401808060200182810382526022815260200180618cb16022913960400191505060405180910390fd5b6000846000018481548110617c9257fe5b906000526020600020906002020190508060000154816001015492509250509250929050565b8273ffffffffffffffffffffffffffffffffffffffff16617cd882612fe5565b73ffffffffffffffffffffffffffffffffffffffff1614617d44576040517f08c379a0000000000000000000000000000000000000000000000000000000008152600401808060200182810382526029815260200180618d446029913960400191505060405180910390fd5b600073ffffffffffffffffffffffffffffffffffffffff168273ffffffffffffffffffffffffffffffffffffffff161415617dca576040517f08c379a00000000000000000000000000000000000000000000000000000000081526004018080602001828103825260248152602001806189a66024913960400191505060405180910390fd5b617dd583838361812e565b617de0600082618133565b617e3181600160008673ffffffffffffffffffffffffffffffffffffffff1673ffffffffffffffffffffffffffffffffffffffff1681526020019081526020016000206181ec90919063ffffffff16565b50617e8381600160008573ffffffffffffffffffffffffffffffffffffffff1673ffffffffffffffffffffffffffffffffffffffff16815260200190815260200160002061820690919063ffffffff16565b50617e9a818360026182209092919063ffffffff16565b50808273ffffffffffffffffffffffffffffffffffffffff168473ffffffffffffffffffffffffffffffffffffffff167fddf252ad1be2c89b69c2b068fc378daa952ba7f163c4a11628f55a4df523b3ef60405160405180910390a4505050565b6000617f1c8473ffffffffffffffffffffffffffffffffffffffff166178a2565b617f29576001905061810c565b606061809363150b7a0260e01b617f3e617734565b888787604051602401808573ffffffffffffffffffffffffffffffffffffffff1681526020018473ffffffffffffffffffffffffffffffffffffffff16815260200183815260200180602001828103825283818151815260200191508051906020019080838360005b83811015617fc2578082015181840152602081019050617fa7565b50505050905090810190601f168015617fef5780820380516001836020036101000a031916815260200191505b5095505050505050604051602081830303815290604052907bffffffffffffffffffffffffffffffffffffffffffffffffffffffff19166020820180517bffffffffffffffffffffffffffffffffffffffffffffffffffffffff838183161783525050505060405180606001604052806032815260200161889e603291398773ffffffffffffffffffffffffffffffffffffffff166182559092919063ffffffff16565b905060008180602001905160208110156180ac57600080fd5b8101908080519060200190929190505050905063150b7a0260e01b7bffffffffffffffffffffffffffffffffffffffffffffffffffffffff1916817bffffffffffffffffffffffffffffffffffffffffffffffffffffffff191614925050505b949350505050565b6000618126836000018360001b61826d565b905092915050565b505050565b816004600083815260200190815260200160002060006101000a81548173ffffffffffffffffffffffffffffffffffffffff021916908373ffffffffffffffffffffffffffffffffffffffff160217905550808273ffffffffffffffffffffffffffffffffffffffff166181a683612fe5565b73ffffffffffffffffffffffffffffffffffffffff167f8c5be1e5ebec7d5bd14f71427d1e84f3dd0314c0f7b2291e5b200ac8c7c3b92560405160405180910390a45050565b60006181fe836000018360001b618290565b905092915050565b6000618218836000018360001b618378565b905092915050565b600061824c846000018460001b8473ffffffffffffffffffffffffffffffffffffffff1660001b6183e8565b90509392505050565b606061826484846000856184c4565b90509392505050565b600080836001016000848152602001908152602001600020541415905092915050565b6000808360010160008481526020019081526020016000205490506000811461836c57600060018203905060006001866000018054905003905060008660000182815481106182db57fe5b90600052602060002001549050808760000184815481106182f857fe5b906000526020600020018190555060018301876001016000838152602001908152602001600020819055508660000180548061833057fe5b60019003818190600052602060002001600090559055866001016000878152602001908152602001600020600090556001945050505050618372565b60009150505b92915050565b6000618384838361866d565b6183dd5782600001829080600181540180825580915050600190039060005260206000200160009091909190915055826000018054905083600101600084815260200190815260200160002081905550600190506183e2565b600090505b92915050565b600080846001016000858152602001908152602001600020549050600081141561848f578460000160405180604001604052808681526020018581525090806001815401808255809150506001900390600052602060002090600202016000909190919091506000820151816000015560208201518160010155505084600001805490508560010160008681526020019081526020016000208190555060019150506184bd565b828560000160018303815481106184a257fe5b90600052602060002090600202016001018190555060009150505b9392505050565b60608247101561851f576040517f08c379a0000000000000000000000000000000000000000000000000000000008152600401808060200182810382526026815260200180618a656026913960400191505060405180910390fd5b618528856178a2565b61859a576040517f08c379a000000000000000000000000000000000000000000000000000000000815260040180806020018281038252601d8152602001807f416464726573733a2063616c6c20746f206e6f6e2d636f6e747261637400000081525060200191505060405180910390fd5b600060608673ffffffffffffffffffffffffffffffffffffffff1685876040518082805190602001908083835b602083106185ea57805182526020820191506020810190506020830392506185c7565b6001836020036101000a03801982511681845116808217855250505050505090500191505060006040518083038185875af1925050503d806000811461864c576040519150601f19603f3d011682016040523d82523d6000602084013e618651565b606091505b5091509150618661828286618690565b92505050949350505050565b600080836001016000848152602001908152602001600020541415905092915050565b606083156186a057829050618755565b6000835111156186b35782518084602001fd5b816040517f08c379a00000000000000000000000000000000000000000000000000000000081526004018080602001828103825283818151815260200191508051906020019080838360005b8381101561871a5780820151818401526020810190506186ff565b50505050905090810190601f1680156187475780820380516001836020036101000a031916815260200191505b509250505060405180910390fd5b9392505050565b828054600181600116156101000203166002900490600052602060002090601f016020900481019282601f1061879d57805160ff19168380011785556187cb565b828001600101855582156187cb579182015b828111156187ca5782518255916020019190600101906187af565b5b5090506187d891906187dc565b5090565b5b808211156187f55760008160009055506001016187dd565b509056fe456e756d657261626c655365743a20696e646578206f7574206f6620626f756e6473436f6d706f7361626c65546f6b656e3a205f746f6b656e496420646f6573206e6f742065786973742e436f6d706f7361626c65546f6b656e3a204f776e6572206973206e6f74207365744d617374657244617461546f6b656e3a204d696e20616c6c6f77616e6365206d7573742062652067726561746572207468616e207a65726f4552433732313a207472616e7366657220746f206e6f6e20455243373231526563656976657220696d706c656d656e746572436f6d706f7361626c65546f6b656e3a205f64617461206d75737420636f6e7461696e2074686520746f6b656e496420746f207472616e736665722074686520746f6b656e20746f2e436f6e7472616374206164647265737320646f6573206e6f7420657869737420666f72207468697320746f6b656e20616e6420696e6465782e436f6d706f7361626c65546f6b656e3a204552433230207472616e73666572206661696c65642e436f6d706f7361626c65546f6b656e3a2056616c75652067726561746572207468616e2072656d61696e696e674552433732313a207472616e7366657220746f20746865207a65726f2061646472657373436f6d706f7361626c65546f6b656e3a20546f6b656e206973206368696c64206f66206f7468657220746f7020646f776e20636f6d706f7361626c654d617374657244617461546f6b656e3a204661696c656420746f207472616e736665722064617461746f6b656e206c6971756964697479436f6d706f7361626c65546f6b656e3a20746f6b656e496420213d205f66726f6d546f6b656e4964416464726573733a20696e73756666696369656e742062616c616e636520666f722063616c6c4552433732313a206f70657261746f7220717565727920666f72206e6f6e6578697374656e7420746f6b656e436f6d706f7361626c65546f6b656e3a204e6f7420656e6f75676820746f6b656e20617661696c61626c6520746f207472616e736665722e436f6d706f7361626c65546f6b656e3a2053656e646572206e6f7420617070726f766564436f6d706f7361626c65546f6b656e3a204572726f7220696e20617070726f76616c436f6d706f7361626c65546f6b656e3a206d73672e73656e646572206973206e6f74206120636f6e7472616374436f6d706f7361626c65546f6b656e3a206e6f7420616c6c6f77656420746f206765744552433230436f6d706f7361626c65546f6b656e3a204f776e6572206e6f7420737065636966696564436f6d706f7361626c65546f6b656e3a204368696c6420746f6b656e2068617320616c7265616479206265656e2072656365697665642e436f6d706f7361626c65546f6b656e3a20746f6b656e4964207c7c205f6368696c64546f6b656e4964206e6f7420666f756e64546f6b656e20646f6573206e6f74206f776e2061206368696c6420746f6b656e20617420636f6e7472616374206164647265737320616e6420696e6465782e4d617374657244617461546f6b656e3a207265636f726473206d7573742062652067726561746572207468616e207a65726f436f6d706f7361626c65546f6b656e3a20455243323233207472616e73666572206661696c65642e456e756d657261626c654d61703a20696e646578206f7574206f6620626f756e6473436f6d706f7361626c65546f6b656e3a204368696c6420746f6b656e206e6f74206f776e65642e436f6d706f7361626c65546f6b656e3a20436f6e7472616374206164647265737320646f6573206e6f7420657869737420666f72207468697320746f6b656e20616e6420696e6465782e4552433732313a207472616e73666572206f6620746f6b656e2074686174206973206e6f74206f776e436f6d706f7361626c65546f6b656e3a2053656e646572206e6f7420616e206f70657261746f72206f7220617070726f76656420616464726573734552433732314d657461646174613a2055524920717565727920666f72206e6f6e6578697374656e7420746f6b656e436f6d706f7361626c65546f6b656e3a204f776e65722063616e2774206265203078436f6d706f7361626c65546f6b656e3a2053656e646572206973206e6f742074686520726f6f74206f776e65725f64617461206d75737420636f6e7461696e207468652075696e7432353620746f6b656e496420746f207472616e7366657220746865206368696c6420746f6b656e20746f2e4d617374657244617461546f6b656e3a206e6f7420656e6f75676820616c6c6f77616e6365436f6d706f7361626c65546f6b656e3a2063616c6c20746f20616c6c6f77616e6365206661696c6564436f6d706f7361626c65546f6b656e3a2073656e646572206973206e6f7420746865206f776e65724552433732313a207472616e736665722063616c6c6572206973206e6f74206f776e6572206e6f7220617070726f766564436f6d706f7361626c65546f6b656e3a204f70657261746f722063616e2774206265203078436f6d706f7361626c65546f6b656e3a2046726f6d2063616e2774206265203078436f6d706f7361626c65546f6b656e3a204e6f20706172656e74546f6b656e4964436f6d706f7361626c65546f6b656e3a205f64617461206d75737420636f6e7461696e2074686520746f6b656e496420746f207472616e7366657220746865206368696c6420746f6b656ea26469706673582212208848754b86a4ef85fde2dfe501a21b2df23f785eed478d9c54b8cfd9928d5eeb64736f6c634300060c00334d617374657244617461546f6b656e3a204d696e20616c6c6f77616e6365206d7573742062652067726561746572207468616e207a65726f",
  "immutableReferences": {},
  "source": "// SPDX-License-Identifier: MIT\npragma solidity >=0.6.0 <0.7.0;\n\nimport \"@openzeppelin/contracts/math/SafeMath.sol\";\n\nimport \"../erc998/ComposableToken.sol\";\nimport \"../interfaces/ocean/IERC20Template.sol\";\nimport \"../interfaces/IMasterDataToken.sol\";\n\ncontract MasterDataToken is IMasterDataToken, ComposableToken {\n\n    using SafeMath for uint256;\n\n    string  private _name;\n    string  private _symbol;\n    string private _baseURI;\n    address private _owner;\n    bool private _initialized;\n\n    address private _daoAddress;\n    uint256 private _minDatatokenAllowance;\n    uint256 private _totalRecords = 0;\n\n    mapping(address => address[]) internal contributions;\n    mapping(address => uint256) internal tokenToRecords;\n\n    /**\n     * @dev Throws if called by any account other than the owner.\n     */\n    modifier onlyOwner() {\n        require(_owner == _msgSender(), \"MasterDataToken: caller is not the owner\");\n        _;\n    }\n\n    constructor(string memory name,\n                string memory symbol,\n                string memory ipfsMetadata,\n                uint256 minDataTokenAllowance,\n                address daoAddress) ComposableToken(name, symbol, \"\") public {\n\n        _initialize(name, symbol, ipfsMetadata, minDataTokenAllowance, daoAddress);\n\n    }\n\n    function initialize(string calldata name,\n                        string calldata symbol,\n                        string calldata ipfsMetadata,\n                        uint256 minDatatokenAllowance,\n                        address daoAddress) external override returns (bool) {\n        return _initialize(name, symbol, ipfsMetadata, minDatatokenAllowance, daoAddress);\n    }\n\n    function _initialize(string memory name,\n                        string memory symbol,\n                        string memory ipfsMetadata,\n                        uint256 minDatatokenAllowance,\n                        address daoAddress) private returns (bool) {\n\n        require(minDatatokenAllowance != 0, \"MasterDataToken: Min allowance must be greater than zero\");\n\n        if (address(daoAddress) != address(0)) {\n            _owner = daoAddress;\n        } else {\n            _owner = _msgSender();\n        }\n\n        _name = name;\n        _symbol = symbol;\n        _minDatatokenAllowance = minDatatokenAllowance;\n        _setBaseURI(ipfsMetadata);\n        _initialized = true;\n\n    }\n\n    function contribute(address _datatoken, uint256 _records) external override returns (bool) {\n        require(_records > 0, \"MasterDataToken: records must be greater than zero\");\n        IERC20Template dataToken = IERC20Template(_datatoken);\n        address tokenOwner = dataToken.minter();\n\n        require(dataToken.allowance(tokenOwner, address(this)) >= _minDatatokenAllowance,\n                \"MasterDataToken: not enough allowance\");\n        require(dataToken.transferFrom(tokenOwner, address(this), _minDatatokenAllowance),\n                \"MasterDataToken: Failed to transfer datatoken liquidity\");\n\n        contributions[tokenOwner].push(_datatoken);\n        tokenToRecords[_datatoken] = tokenToRecords[_datatoken].add(_records);\n        _totalRecords.add(_records);\n\n        emit ContributionAdded(tokenOwner, _datatoken, tokenToRecords[_datatoken]);\n\n        return true;\n    }\n\n    /**\n     * @dev Returns the address of the current owner.\n     */\n    function owner() public view returns (address) {\n        return _owner;\n    }\n\n    function isInitialized() external view override returns(bool) {\n        return _initialized;\n    }\n\n    function totalRecords() external view override returns (uint256) {\n        return _totalRecords;\n    }\n}",
  "sourcePath": "/Users/santteegt/dataDAO/datadao/src/frontend/contracts/templates/MasterDataToken.sol",
  "compiler": {
    "name": "solc",
    "version": "0.6.12+commit.27d51765.Emscripten.clang"
  },
  "schemaVersion": "3.2.4",
  "updatedAt": "2021-01-09T16:07:29.782Z",
  "devdoc": {
    "kind": "dev",
    "methods": {
      "baseURI()": {
        "details": "Returns the base URI set via {_setBaseURI}. This will be automatically added as a prefix in {tokenURI} to each token's URI, or to the token ID if no specific URI is set for that token ID."
      },
      "name()": {
        "details": "See {IERC721Metadata-name}."
      },
      "owner()": {
        "details": "Returns the address of the current owner."
      },
      "safeTransferFrom(address,address,uint256)": {
        "details": "See {IERC721-safeTransferFrom}."
      },
      "safeTransferFrom(address,address,uint256,bytes)": {
        "details": "See {IERC721-safeTransferFrom}."
      },
      "supportsInterface(bytes4)": {
        "details": "See {IERC165-supportsInterface}. Time complexity O(1), guaranteed to always use less than 30 000 gas."
      },
      "symbol()": {
        "details": "See {IERC721Metadata-symbol}."
      },
      "tokenByIndex(uint256)": {
        "details": "See {IERC721Enumerable-tokenByIndex}."
      },
      "tokenOfOwnerByIndex(address,uint256)": {
        "details": "See {IERC721Enumerable-tokenOfOwnerByIndex}."
      },
      "tokenURI(uint256)": {
        "details": "See {IERC721Metadata-tokenURI}."
      },
      "totalSupply()": {
        "details": "See {IERC721Enumerable-totalSupply}."
      }
    },
    "version": 1
  },
  "userdoc": {
    "kind": "user",
    "methods": {},
    "version": 1
  }
}