{
  "contractName": "MasterDataTokenFactory",
  "abi": [
    {
      "inputs": [
        {
          "internalType": "address",
          "name": "template",
          "type": "address"
        }
      ],
      "stateMutability": "nonpayable",
      "type": "constructor"
    },
    {
      "anonymous": false,
      "inputs": [
        {
          "indexed": false,
          "internalType": "address",
          "name": "instance",
          "type": "address"
        }
      ],
      "name": "InstanceDeployed",
      "type": "event"
    },
    {
      "anonymous": false,
      "inputs": [
        {
          "indexed": true,
          "internalType": "address",
          "name": "tokenAddress",
          "type": "address"
        },
        {
          "indexed": true,
          "internalType": "address",
          "name": "owner",
          "type": "address"
        },
        {
          "indexed": true,
          "internalType": "address",
          "name": "daoAddress",
          "type": "address"
        },
        {
          "indexed": false,
          "internalType": "string",
          "name": "ipfsMetadata",
          "type": "string"
        },
        {
          "indexed": false,
          "internalType": "uint256",
          "name": "minDatatokenAllowance",
          "type": "uint256"
        },
        {
          "indexed": false,
          "internalType": "address",
          "name": "templateAddress",
          "type": "address"
        }
      ],
      "name": "MasterDataTokenCreated",
      "type": "event"
    },
    {
      "inputs": [],
      "name": "getMasterDataTokenCount",
      "outputs": [
        {
          "internalType": "uint256",
          "name": "",
          "type": "uint256"
        }
      ],
      "stateMutability": "view",
      "type": "function"
    },
    {
      "inputs": [],
      "name": "getTemplate",
      "outputs": [
        {
          "internalType": "address",
          "name": "",
          "type": "address"
        }
      ],
      "stateMutability": "view",
      "type": "function"
    },
    {
      "inputs": [
        {
          "internalType": "string",
          "name": "_name",
          "type": "string"
        },
        {
          "internalType": "string",
          "name": "_symbol",
          "type": "string"
        },
        {
          "internalType": "string",
          "name": "_ipfsMetadata",
          "type": "string"
        },
        {
          "internalType": "uint256",
          "name": "_minDatatokenAllowance",
          "type": "uint256"
        },
        {
          "internalType": "address",
          "name": "_daoAddress",
          "type": "address"
        }
      ],
      "name": "createMasterDataToken",
      "outputs": [
        {
          "internalType": "address",
          "name": "dataToken",
          "type": "address"
        }
      ],
      "stateMutability": "nonpayable",
      "type": "function"
    }
  ],
  "bytecode": "0x60806040526001805534801561001457600080fd5b506040516108a13803806108a18339818101604052602081101561003757600080fd5b8101908080519060200190929190505050600073ffffffffffffffffffffffffffffffffffffffff168173ffffffffffffffffffffffffffffffffffffffff16141580156100aa57506100a98173ffffffffffffffffffffffffffffffffffffffff1661014560201b61052e1760201c565b5b6100ff576040517f08c379a00000000000000000000000000000000000000000000000000000000081526004018080602001828103825260318152602001806108706031913960400191505060405180910390fd5b806000806101000a81548173ffffffffffffffffffffffffffffffffffffffff021916908373ffffffffffffffffffffffffffffffffffffffff16021790555050610158565b600080823b905060008111915050919050565b610709806101676000396000f3fe608060405234801561001057600080fd5b50600436106100415760003560e01c8063321c48f214610046578063530a42df1461007a578063d8a5c29714610098575b600080fd5b61004e61020f565b604051808273ffffffffffffffffffffffffffffffffffffffff16815260200191505060405180910390f35b610082610238565b6040518082815260200191505060405180910390f35b6101e3600480360360a08110156100ae57600080fd5b81019080803590602001906401000000008111156100cb57600080fd5b8201836020820111156100dd57600080fd5b803590602001918460018302840111640100000000831117156100ff57600080fd5b90919293919293908035906020019064010000000081111561012057600080fd5b82018360208201111561013257600080fd5b8035906020019184600183028401116401000000008311171561015457600080fd5b90919293919293908035906020019064010000000081111561017557600080fd5b82018360208201111561018757600080fd5b803590602001918460018302840111640100000000831117156101a957600080fd5b909192939192939080359060200190929190803573ffffffffffffffffffffffffffffffffffffffff169060200190929190505050610242565b604051808273ffffffffffffffffffffffffffffffffffffffff16815260200191505060405180910390f35b60008060009054906101000a900473ffffffffffffffffffffffffffffffffffffffff16905090565b6000600154905090565b60008061024d610541565b905061027860008054906101000a900473ffffffffffffffffffffffffffffffffffffffff16610549565b915060008290508073ffffffffffffffffffffffffffffffffffffffff166330a8ff4e8c8c8c8c8c8c8c8c6040518963ffffffff1660e01b8152600401808060200180602001806020018681526020018573ffffffffffffffffffffffffffffffffffffffff16815260200184810384528c8c82818152602001925080828437600081840152601f19601f82011690508083019250505084810383528a8a82818152602001925080828437600081840152601f19601f8201169050808301925050508481038252888882818152602001925080828437600081840152601f19601f8201169050808301925050509b505050505050505050505050602060405180830381600087803b15801561038c57600080fd5b505af11580156103a0573d6000803e3d6000fd5b505050506040513d60208110156103b657600080fd5b810190808051906020019092919050505061041c576040517f08c379a000000000000000000000000000000000000000000000000000000000815260040180806020018281038252604b815260200180610689604b913960600191505060405180910390fd5b8373ffffffffffffffffffffffffffffffffffffffff168273ffffffffffffffffffffffffffffffffffffffff168473ffffffffffffffffffffffffffffffffffffffff167f4f66b1f74e8f36df3000bf30e40dd067178d1e15cfa03e92cb235114f879eed38a8a8a60008054906101000a900473ffffffffffffffffffffffffffffffffffffffff1660405180806020018481526020018373ffffffffffffffffffffffffffffffffffffffff1681526020018281038252868682818152602001925080828437600081840152601f19601f8201169050808301925050509550505050505060405180910390a461051f6001805461060090919063ffffffff16565b50505098975050505050505050565b600080823b905060008111915050919050565b600033905090565b6000808260601b90506040517f3d602d80600a3d3981f3363d3d373d3d3d363d7300000000000000000000000081528160148201527f5af43d82803e903d91602b57fd5bf3000000000000000000000000000000000060288201526037816000f09250507f117c72e6c25f0a072e36e148df71468ce2f3dbe7defec5b2c257a6e3eb65278c82604051808273ffffffffffffffffffffffffffffffffffffffff16815260200191505060405180910390a150919050565b60008082840190508381101561067e576040517f08c379a000000000000000000000000000000000000000000000000000000000815260040180806020018281038252601b8152602001807f536166654d6174683a206164646974696f6e206f766572666c6f77000000000081525060200191505060405180910390fd5b809150509291505056fe4d617374657244617461546f6b656e466163746f72793a204661696c656420746f20696e697469616c697a652061206e6577204d617374657244617461546f6b656e20696e7374616e6365a2646970667358221220ef051472797be3b62db8f64f8c57ba2c1528c4246b6f5da32161679f31bdbd7364736f6c634300060c00334d617374657244617461546f6b656e466163746f72793a20496e76616c696420636f6e74726163742074656d706c617465",
  "immutableReferences": {},
  "source": "// SPDX-License-Identifier: MIT\npragma solidity >=0.6.0 <0.7.0;\n\nimport \"@openzeppelin/contracts/GSN/Context.sol\";\nimport \"@openzeppelin/contracts/math/SafeMath.sol\";\nimport \"@openzeppelin/contracts/utils/Address.sol\";\n\nimport \"./Deployer.sol\";\nimport \"../interfaces/IMasterDataToken.sol\";\n\n/**\n * @title MasterDataTokenFactory contract\n * @author\n *\n * @dev Implementation of NFTMarket Factory\n *\n *      MasterDataTokenFactory deploys A MasterDataToken proxy contracts.\n *      Proxy contract functionality is based on the ERC1167 standard\n *      https://eips.ethereum.org/EIPS/eip-1167\n */\ncontract MasterDataTokenFactory is Context, Deployer {\n\n    using SafeMath for uint256;\n    using Address for address;\n\n    address private _template;\n\n    uint256 private dataTokenCount = 1;\n\n    event MasterDataTokenCreated(address indexed tokenAddress,\n                                 address indexed owner,\n                                 address indexed daoAddress,\n                                 string ipfsMetadata,\n                                 uint256 minDatatokenAllowance,\n                                 address templateAddress);\n\n    constructor(address template) public {\n        require(template != address(0) && template.isContract(), 'MasterDataTokenFactory: Invalid contract template');\n        _template = template;\n    }\n\n    function getMasterDataTokenCount() external view returns (uint256) {\n        return dataTokenCount;\n    }\n\n    function getTemplate() external view returns (address) {\n        return address(_template);\n    }\n\n    function createMasterDataToken(string calldata _name,\n                                   string calldata _symbol,\n                                   string calldata _ipfsMetadata,\n                                   uint256 _minDatatokenAllowance,\n                                   address _daoAddress) public returns (address dataToken) {\n\n        address owner = _msgSender();\n        dataToken = deploy(_template);\n\n        IMasterDataToken masterDataToken = IMasterDataToken(dataToken);\n\n        require(masterDataToken.initialize(\n            _name,\n            _symbol,\n            _ipfsMetadata,\n            _minDatatokenAllowance,\n            _daoAddress\n        ), \"MasterDataTokenFactory: Failed to initialize a new MasterDataToken instance\");\n\n        emit MasterDataTokenCreated(\n            dataToken,\n            owner,\n            _daoAddress,\n            _ipfsMetadata,\n            _minDatatokenAllowance,\n            _template);\n\n        dataTokenCount.add(1);\n        return dataToken;\n    }\n\n}",
  "sourcePath": "/Users/santteegt/dataDAO/datadao/src/frontend/contracts/factory/MasterDataTokenFactory.sol",
  "compiler": {
    "name": "solc",
    "version": "0.6.12+commit.27d51765.Emscripten.clang"
  },
  "schemaVersion": "3.2.4",
  "updatedAt": "2021-01-09T16:07:29.757Z",
  "devdoc": {
    "author": "@dev Implementation of NFTMarket Factory      MasterDataTokenFactory deploys A MasterDataToken proxy contracts.      Proxy contract functionality is based on the ERC1167 standard      https://eips.ethereum.org/EIPS/eip-1167",
    "kind": "dev",
    "methods": {},
    "title": "MasterDataTokenFactory contract",
    "version": 1
  },
  "userdoc": {
    "kind": "user",
    "methods": {},
    "version": 1
  }
}