{
  "contractName": "MasterDataToken",
  "abi": [
    {
      "inputs": [
        {
          "internalType": "string",
          "name": "name",
          "type": "string"
        },
        {
          "internalType": "string",
          "name": "symbol",
          "type": "string"
        },
        {
          "internalType": "string",
          "name": "ipfsMetadata",
          "type": "string"
        },
        {
          "internalType": "uint256",
          "name": "minDataTokenAllowance",
          "type": "uint256"
        },
        {
          "internalType": "address",
          "name": "daoAddress",
          "type": "address"
        }
      ],
      "stateMutability": "nonpayable",
      "type": "constructor"
    },
    {
      "anonymous": false,
      "inputs": [
        {
          "indexed": true,
          "internalType": "address",
          "name": "owner",
          "type": "address"
        },
        {
          "indexed": true,
          "internalType": "address",
          "name": "approved",
          "type": "address"
        },
        {
          "indexed": true,
          "internalType": "uint256",
          "name": "tokenId",
          "type": "uint256"
        }
      ],
      "name": "Approval",
      "type": "event"
    },
    {
      "anonymous": false,
      "inputs": [
        {
          "indexed": true,
          "internalType": "address",
          "name": "owner",
          "type": "address"
        },
        {
          "indexed": true,
          "internalType": "address",
          "name": "operator",
          "type": "address"
        },
        {
          "indexed": false,
          "internalType": "bool",
          "name": "approved",
          "type": "bool"
        }
      ],
      "name": "ApprovalForAll",
      "type": "event"
    },
    {
      "anonymous": false,
      "inputs": [
        {
          "indexed": true,
          "internalType": "address",
          "name": "contributor",
          "type": "address"
        },
        {
          "indexed": true,
          "internalType": "address",
          "name": "dataToken",
          "type": "address"
        },
        {
          "indexed": false,
          "internalType": "uint256",
          "name": "records",
          "type": "uint256"
        }
      ],
      "name": "ContributionAdded",
      "type": "event"
    },
    {
      "anonymous": false,
      "inputs": [
        {
          "indexed": true,
          "internalType": "address",
          "name": "from",
          "type": "address"
        },
        {
          "indexed": true,
          "internalType": "address",
          "name": "to",
          "type": "address"
        },
        {
          "indexed": true,
          "internalType": "uint256",
          "name": "tokenId",
          "type": "uint256"
        }
      ],
      "name": "Transfer",
      "type": "event"
    },
    {
      "inputs": [
        {
          "internalType": "address",
          "name": "to",
          "type": "address"
        },
        {
          "internalType": "uint256",
          "name": "tokenId",
          "type": "uint256"
        }
      ],
      "name": "approve",
      "outputs": [],
      "stateMutability": "nonpayable",
      "type": "function"
    },
    {
      "inputs": [
        {
          "internalType": "address",
          "name": "owner",
          "type": "address"
        }
      ],
      "name": "balanceOf",
      "outputs": [
        {
          "internalType": "uint256",
          "name": "",
          "type": "uint256"
        }
      ],
      "stateMutability": "view",
      "type": "function"
    },
    {
      "inputs": [],
      "name": "baseURI",
      "outputs": [
        {
          "internalType": "string",
          "name": "",
          "type": "string"
        }
      ],
      "stateMutability": "view",
      "type": "function"
    },
    {
      "inputs": [
        {
          "internalType": "uint256",
          "name": "tokenId",
          "type": "uint256"
        }
      ],
      "name": "getApproved",
      "outputs": [
        {
          "internalType": "address",
          "name": "",
          "type": "address"
        }
      ],
      "stateMutability": "view",
      "type": "function"
    },
    {
      "inputs": [
        {
          "internalType": "address",
          "name": "owner",
          "type": "address"
        },
        {
          "internalType": "address",
          "name": "operator",
          "type": "address"
        }
      ],
      "name": "isApprovedForAll",
      "outputs": [
        {
          "internalType": "bool",
          "name": "",
          "type": "bool"
        }
      ],
      "stateMutability": "view",
      "type": "function"
    },
    {
      "inputs": [],
      "name": "name",
      "outputs": [
        {
          "internalType": "string",
          "name": "",
          "type": "string"
        }
      ],
      "stateMutability": "view",
      "type": "function"
    },
    {
      "inputs": [
        {
          "internalType": "uint256",
          "name": "tokenId",
          "type": "uint256"
        }
      ],
      "name": "ownerOf",
      "outputs": [
        {
          "internalType": "address",
          "name": "",
          "type": "address"
        }
      ],
      "stateMutability": "view",
      "type": "function"
    },
    {
      "inputs": [
        {
          "internalType": "address",
          "name": "from",
          "type": "address"
        },
        {
          "internalType": "address",
          "name": "to",
          "type": "address"
        },
        {
          "internalType": "uint256",
          "name": "tokenId",
          "type": "uint256"
        }
      ],
      "name": "safeTransferFrom",
      "outputs": [],
      "stateMutability": "nonpayable",
      "type": "function"
    },
    {
      "inputs": [
        {
          "internalType": "address",
          "name": "from",
          "type": "address"
        },
        {
          "internalType": "address",
          "name": "to",
          "type": "address"
        },
        {
          "internalType": "uint256",
          "name": "tokenId",
          "type": "uint256"
        },
        {
          "internalType": "bytes",
          "name": "_data",
          "type": "bytes"
        }
      ],
      "name": "safeTransferFrom",
      "outputs": [],
      "stateMutability": "nonpayable",
      "type": "function"
    },
    {
      "inputs": [
        {
          "internalType": "address",
          "name": "operator",
          "type": "address"
        },
        {
          "internalType": "bool",
          "name": "approved",
          "type": "bool"
        }
      ],
      "name": "setApprovalForAll",
      "outputs": [],
      "stateMutability": "nonpayable",
      "type": "function"
    },
    {
      "inputs": [
        {
          "internalType": "bytes4",
          "name": "interfaceId",
          "type": "bytes4"
        }
      ],
      "name": "supportsInterface",
      "outputs": [
        {
          "internalType": "bool",
          "name": "",
          "type": "bool"
        }
      ],
      "stateMutability": "view",
      "type": "function"
    },
    {
      "inputs": [],
      "name": "symbol",
      "outputs": [
        {
          "internalType": "string",
          "name": "",
          "type": "string"
        }
      ],
      "stateMutability": "view",
      "type": "function"
    },
    {
      "inputs": [
        {
          "internalType": "uint256",
          "name": "index",
          "type": "uint256"
        }
      ],
      "name": "tokenByIndex",
      "outputs": [
        {
          "internalType": "uint256",
          "name": "",
          "type": "uint256"
        }
      ],
      "stateMutability": "view",
      "type": "function"
    },
    {
      "inputs": [
        {
          "internalType": "address",
          "name": "owner",
          "type": "address"
        },
        {
          "internalType": "uint256",
          "name": "index",
          "type": "uint256"
        }
      ],
      "name": "tokenOfOwnerByIndex",
      "outputs": [
        {
          "internalType": "uint256",
          "name": "",
          "type": "uint256"
        }
      ],
      "stateMutability": "view",
      "type": "function"
    },
    {
      "inputs": [
        {
          "internalType": "uint256",
          "name": "tokenId",
          "type": "uint256"
        }
      ],
      "name": "tokenURI",
      "outputs": [
        {
          "internalType": "string",
          "name": "",
          "type": "string"
        }
      ],
      "stateMutability": "view",
      "type": "function"
    },
    {
      "inputs": [],
      "name": "totalSupply",
      "outputs": [
        {
          "internalType": "uint256",
          "name": "",
          "type": "uint256"
        }
      ],
      "stateMutability": "view",
      "type": "function"
    },
    {
      "inputs": [
        {
          "internalType": "address",
          "name": "from",
          "type": "address"
        },
        {
          "internalType": "address",
          "name": "to",
          "type": "address"
        },
        {
          "internalType": "uint256",
          "name": "tokenId",
          "type": "uint256"
        }
      ],
      "name": "transferFrom",
      "outputs": [],
      "stateMutability": "nonpayable",
      "type": "function"
    },
    {
      "inputs": [
        {
          "internalType": "string",
          "name": "name",
          "type": "string"
        },
        {
          "internalType": "string",
          "name": "symbol",
          "type": "string"
        },
        {
          "internalType": "string",
          "name": "ipfsMetadata",
          "type": "string"
        },
        {
          "internalType": "uint256",
          "name": "minDatatokenAllowance",
          "type": "uint256"
        },
        {
          "internalType": "address",
          "name": "daoAddress",
          "type": "address"
        }
      ],
      "name": "initialize",
      "outputs": [
        {
          "internalType": "bool",
          "name": "",
          "type": "bool"
        }
      ],
      "stateMutability": "nonpayable",
      "type": "function"
    },
    {
      "inputs": [
        {
          "internalType": "address",
          "name": "_datatoken",
          "type": "address"
        },
        {
          "internalType": "uint256",
          "name": "_records",
          "type": "uint256"
        }
      ],
      "name": "contribute",
      "outputs": [
        {
          "internalType": "bool",
          "name": "",
          "type": "bool"
        }
      ],
      "stateMutability": "nonpayable",
      "type": "function"
    },
    {
      "inputs": [],
      "name": "owner",
      "outputs": [
        {
          "internalType": "address",
          "name": "",
          "type": "address"
        }
      ],
      "stateMutability": "view",
      "type": "function"
    },
    {
      "inputs": [],
      "name": "isInitialized",
      "outputs": [
        {
          "internalType": "bool",
          "name": "",
          "type": "bool"
        }
      ],
      "stateMutability": "view",
      "type": "function"
    },
    {
      "inputs": [],
      "name": "totalRecords",
      "outputs": [
        {
          "internalType": "uint256",
          "name": "",
          "type": "uint256"
        }
      ],
      "stateMutability": "view",
      "type": "function"
    }
  ],
  "bytecode": "0x608060405260006010553480156200001657600080fd5b5060405162003a9c38038062003a9c833981810160405260a08110156200003c57600080fd5b81019080805160405193929190846401000000008211156200005d57600080fd5b838201915060208201858111156200007457600080fd5b82518660018202830111640100000000821117156200009257600080fd5b8083526020830192505050908051906020019080838360005b83811015620000c8578082015181840152602081019050620000ab565b50505050905090810190601f168015620000f65780820380516001836020036101000a031916815260200191505b50604052602001805160405193929190846401000000008211156200011a57600080fd5b838201915060208201858111156200013157600080fd5b82518660018202830111640100000000821117156200014f57600080fd5b8083526020830192505050908051906020019080838360005b838110156200018557808201518184015260208101905062000168565b50505050905090810190601f168015620001b35780820380516001836020036101000a031916815260200191505b5060405260200180516040519392919084640100000000821115620001d757600080fd5b83820191506020820185811115620001ee57600080fd5b82518660018202830111640100000000821117156200020c57600080fd5b8083526020830192505050908051906020019080838360005b838110156200024257808201518184015260208101905062000225565b50505050905090810190601f168015620002705780820380516001836020036101000a031916815260200191505b5060405260200180519060200190929190805190602001909291905050508484620002a86301ffc9a760e01b6200034560201b60201c565b8160069080519060200190620002c09291906200061c565b508060079080519060200190620002d99291906200061c565b50620002f26380ac58cd60e01b6200034560201b60201c565b6200030a635b5e139f60e01b6200034560201b60201c565b6200032263780e9d6360e01b6200034560201b60201c565b50506200033985858585856200044e60201b60201c565b505050505050620006c2565b63ffffffff60e01b817bffffffffffffffffffffffffffffffffffffffffffffffffffffffff19161415620003e2576040517f08c379a000000000000000000000000000000000000000000000000000000000815260040180806020018281038252601c8152602001807f4552433136353a20696e76616c696420696e746572666163652069640000000081525060200191505060405180910390fd5b6001600080837bffffffffffffffffffffffffffffffffffffffffffffffffffffffff19167bffffffffffffffffffffffffffffffffffffffffffffffffffffffff1916815260200190815260200160002060006101000a81548160ff02191690831515021790555050565b600080831415620004ab576040517f08c379a000000000000000000000000000000000000000000000000000000000815260040180806020018281038252603881526020018062003a646038913960400191505060405180910390fd5b600073ffffffffffffffffffffffffffffffffffffffff168273ffffffffffffffffffffffffffffffffffffffff1614620005275781600d60006101000a81548173ffffffffffffffffffffffffffffffffffffffff021916908373ffffffffffffffffffffffffffffffffffffffff16021790555062000578565b62000537620005f860201b60201c565b600d60006101000a81548173ffffffffffffffffffffffffffffffffffffffff021916908373ffffffffffffffffffffffffffffffffffffffff1602179055505b85600a9080519060200190620005909291906200061c565b5084600b9080519060200190620005a99291906200061c565b5082600f81905550620005c2846200060060201b60201c565b6001600d60146101000a81548160ff021916908315150217905550600d60149054906101000a900460ff16905095945050505050565b600033905090565b8060099080519060200190620006189291906200061c565b5050565b828054600181600116156101000203166002900490600052602060002090601f016020900481019282601f106200065f57805160ff191683800117855562000690565b8280016001018555821562000690579182015b828111156200068f57825182559160200191906001019062000672565b5b5090506200069f9190620006a3565b5090565b5b80821115620006be576000816000905550600101620006a4565b5090565b61339280620006d26000396000f3fe608060405234801561001057600080fd5b50600436106101425760003560e01c80634f6ccce7116100b85780638da5cb5b1161007c5780638da5cb5b146107a957806395d89b41146107dd578063a22cb46514610860578063b88d4fde146108b0578063c87b56dd146109b5578063e985e9c514610a5c57610142565b80634f6ccce7146105d05780636352211e146106125780636c0360eb1461066a57806370a08231146106ed5780638418cd991461074557610142565b806318160ddd1161010a57806318160ddd146102f157806323b872dd1461030f5780632f745c591461037d57806330a8ff4e146103df578063392e53cd1461054257806342842e0e1461056257610142565b806301ffc9a71461014757806306fdde03146101aa578063081812fc1461022d578063095ea7b314610285578063125f8974146102d3575b600080fd5b6101926004803603602081101561015d57600080fd5b8101908080357bffffffffffffffffffffffffffffffffffffffffffffffffffffffff19169060200190929190505050610ad6565b60405180821515815260200191505060405180910390f35b6101b2610b3d565b6040518080602001828103825283818151815260200191508051906020019080838360005b838110156101f25780820151818401526020810190506101d7565b50505050905090810190601f16801561021f5780820380516001836020036101000a031916815260200191505b509250505060405180910390f35b6102596004803603602081101561024357600080fd5b8101908080359060200190929190505050610bdf565b604051808273ffffffffffffffffffffffffffffffffffffffff16815260200191505060405180910390f35b6102d16004803603604081101561029b57600080fd5b81019080803573ffffffffffffffffffffffffffffffffffffffff16906020019092919080359060200190929190505050610c7a565b005b6102db610dbe565b6040518082815260200191505060405180910390f35b6102f9610dc8565b6040518082815260200191505060405180910390f35b61037b6004803603606081101561032557600080fd5b81019080803573ffffffffffffffffffffffffffffffffffffffff169060200190929190803573ffffffffffffffffffffffffffffffffffffffff16906020019092919080359060200190929190505050610dd9565b005b6103c96004803603604081101561039357600080fd5b81019080803573ffffffffffffffffffffffffffffffffffffffff16906020019092919080359060200190929190505050610e4f565b6040518082815260200191505060405180910390f35b61052a600480360360a08110156103f557600080fd5b810190808035906020019064010000000081111561041257600080fd5b82018360208201111561042457600080fd5b8035906020019184600183028401116401000000008311171561044657600080fd5b90919293919293908035906020019064010000000081111561046757600080fd5b82018360208201111561047957600080fd5b8035906020019184600183028401116401000000008311171561049b57600080fd5b9091929391929390803590602001906401000000008111156104bc57600080fd5b8201836020820111156104ce57600080fd5b803590602001918460018302840111640100000000831117156104f057600080fd5b909192939192939080359060200190929190803573ffffffffffffffffffffffffffffffffffffffff169060200190929190505050610eaa565b60405180821515815260200191505060405180910390f35b61054a610f93565b60405180821515815260200191505060405180910390f35b6105ce6004803603606081101561057857600080fd5b81019080803573ffffffffffffffffffffffffffffffffffffffff169060200190929190803573ffffffffffffffffffffffffffffffffffffffff16906020019092919080359060200190929190505050610faa565b005b6105fc600480360360208110156105e657600080fd5b8101908080359060200190929190505050610fca565b6040518082815260200191505060405180910390f35b61063e6004803603602081101561062857600080fd5b8101908080359060200190929190505050610fed565b604051808273ffffffffffffffffffffffffffffffffffffffff16815260200191505060405180910390f35b610672611024565b6040518080602001828103825283818151815260200191508051906020019080838360005b838110156106b2578082015181840152602081019050610697565b50505050905090810190601f1680156106df5780820380516001836020036101000a031916815260200191505b509250505060405180910390f35b61072f6004803603602081101561070357600080fd5b81019080803573ffffffffffffffffffffffffffffffffffffffff1690602001909291905050506110c6565b6040518082815260200191505060405180910390f35b6107916004803603604081101561075b57600080fd5b81019080803573ffffffffffffffffffffffffffffffffffffffff1690602001909291908035906020019092919050505061119b565b60405180821515815260200191505060405180910390f35b6107b16116b5565b604051808273ffffffffffffffffffffffffffffffffffffffff16815260200191505060405180910390f35b6107e56116df565b6040518080602001828103825283818151815260200191508051906020019080838360005b8381101561082557808201518184015260208101905061080a565b50505050905090810190601f1680156108525780820380516001836020036101000a031916815260200191505b509250505060405180910390f35b6108ae6004803603604081101561087657600080fd5b81019080803573ffffffffffffffffffffffffffffffffffffffff169060200190929190803515159060200190929190505050611781565b005b6109b3600480360360808110156108c657600080fd5b81019080803573ffffffffffffffffffffffffffffffffffffffff169060200190929190803573ffffffffffffffffffffffffffffffffffffffff169060200190929190803590602001909291908035906020019064010000000081111561092d57600080fd5b82018360208201111561093f57600080fd5b8035906020019184600183028401116401000000008311171561096157600080fd5b91908080601f016020809104026020016040519081016040528093929190818152602001838380828437600081840152601f19601f820116905080830192505050505050509192919290505050611937565b005b6109e1600480360360208110156109cb57600080fd5b81019080803590602001909291905050506119af565b6040518080602001828103825283818151815260200191508051906020019080838360005b83811015610a21578082015181840152602081019050610a06565b50505050905090810190601f168015610a4e5780820380516001836020036101000a031916815260200191505b509250505060405180910390f35b610abe60048036036040811015610a7257600080fd5b81019080803573ffffffffffffffffffffffffffffffffffffffff169060200190929190803573ffffffffffffffffffffffffffffffffffffffff169060200190929190505050611c98565b60405180821515815260200191505060405180910390f35b6000806000837bffffffffffffffffffffffffffffffffffffffffffffffffffffffff19167bffffffffffffffffffffffffffffffffffffffffffffffffffffffff1916815260200190815260200160002060009054906101000a900460ff169050919050565b606060068054600181600116156101000203166002900480601f016020809104026020016040519081016040528092919081815260200182805460018160011615610100020316600290048015610bd55780601f10610baa57610100808354040283529160200191610bd5565b820191906000526020600020905b815481529060010190602001808311610bb857829003601f168201915b5050505050905090565b6000610bea82611d2c565b610c3f576040517f08c379a000000000000000000000000000000000000000000000000000000000815260040180806020018281038252602c815260200180613262602c913960400191505060405180910390fd5b6004600083815260200190815260200160002060009054906101000a900473ffffffffffffffffffffffffffffffffffffffff169050919050565b6000610c8582610fed565b90508073ffffffffffffffffffffffffffffffffffffffff168373ffffffffffffffffffffffffffffffffffffffff161415610d0c576040517f08c379a00000000000000000000000000000000000000000000000000000000081526004018080602001828103825260218152602001806132e66021913960400191505060405180910390fd5b8073ffffffffffffffffffffffffffffffffffffffff16610d2b611d49565b73ffffffffffffffffffffffffffffffffffffffff161480610d5a5750610d5981610d54611d49565b611c98565b5b610daf576040517f08c379a00000000000000000000000000000000000000000000000000000000081526004018080602001828103825260388152602001806131836038913960400191505060405180910390fd5b610db98383611d51565b505050565b6000601054905090565b6000610dd46002611e0a565b905090565b610dea610de4611d49565b82611e1f565b610e3f576040517f08c379a000000000000000000000000000000000000000000000000000000000815260040180806020018281038252603181526020018061332c6031913960400191505060405180910390fd5b610e4a838383611f13565b505050565b6000610ea282600160008673ffffffffffffffffffffffffffffffffffffffff1673ffffffffffffffffffffffffffffffffffffffff16815260200190815260200160002061215690919063ffffffff16565b905092915050565b6000610f8589898080601f016020809104026020016040519081016040528093929190818152602001838380828437600081840152601f19601f8201169050808301925050505050505088888080601f016020809104026020016040519081016040528093929190818152602001838380828437600081840152601f19601f8201169050808301925050505050505087878080601f016020809104026020016040519081016040528093929190818152602001838380828437600081840152601f19601f820116905080830192505050505050508686612170565b905098975050505050505050565b6000600d60149054906101000a900460ff16905090565b610fc583838360405180602001604052806000815250611937565b505050565b600080610fe183600261230290919063ffffffff16565b50905080915050919050565b600061101d826040518060600160405280602981526020016131e560299139600261232e9092919063ffffffff16565b9050919050565b606060098054600181600116156101000203166002900480601f0160208091040260200160405190810160405280929190818152602001828054600181600116156101000203166002900480156110bc5780601f10611091576101008083540402835291602001916110bc565b820191906000526020600020905b81548152906001019060200180831161109f57829003601f168201915b5050505050905090565b60008073ffffffffffffffffffffffffffffffffffffffff168273ffffffffffffffffffffffffffffffffffffffff16141561114d576040517f08c379a000000000000000000000000000000000000000000000000000000000815260040180806020018281038252602a8152602001806131bb602a913960400191505060405180910390fd5b611194600160008473ffffffffffffffffffffffffffffffffffffffff1673ffffffffffffffffffffffffffffffffffffffff16815260200190815260200160002061234d565b9050919050565b60008082116111f5576040517f08c379a000000000000000000000000000000000000000000000000000000000815260040180806020018281038252603281526020018061320e6032913960400191505060405180910390fd5b600083905060008173ffffffffffffffffffffffffffffffffffffffff1663075461726040518163ffffffff1660e01b815260040160206040518083038186803b15801561124257600080fd5b505afa158015611256573d6000803e3d6000fd5b505050506040513d602081101561126c57600080fd5b81019080805190602001909291905050509050600f548273ffffffffffffffffffffffffffffffffffffffff1663dd62ed3e83306040518363ffffffff1660e01b8152600401808373ffffffffffffffffffffffffffffffffffffffff1681526020018273ffffffffffffffffffffffffffffffffffffffff1681526020019250505060206040518083038186803b15801561130757600080fd5b505afa15801561131b573d6000803e3d6000fd5b505050506040513d602081101561133157600080fd5b81019080805190602001909291905050501015611399576040517f08c379a00000000000000000000000000000000000000000000000000000000081526004018080602001828103825260258152602001806133076025913960400191505060405180910390fd5b8173ffffffffffffffffffffffffffffffffffffffff166323b872dd8230600f546040518463ffffffff1660e01b8152600401808473ffffffffffffffffffffffffffffffffffffffff1681526020018373ffffffffffffffffffffffffffffffffffffffff1681526020018281526020019350505050602060405180830381600087803b15801561142a57600080fd5b505af115801561143e573d6000803e3d6000fd5b505050506040513d602081101561145457600080fd5b81019080805190602001909291905050506114ba576040517f08c379a00000000000000000000000000000000000000000000000000000000081526004018080602001828103825260378152602001806130fa6037913960400191505060405180910390fd5b601160008273ffffffffffffffffffffffffffffffffffffffff1673ffffffffffffffffffffffffffffffffffffffff168152602001908152602001600020859080600181540180825580915050600190039060005260206000200160009091909190916101000a81548173ffffffffffffffffffffffffffffffffffffffff021916908373ffffffffffffffffffffffffffffffffffffffff1602179055506115ac84601260008873ffffffffffffffffffffffffffffffffffffffff1673ffffffffffffffffffffffffffffffffffffffff1681526020019081526020016000205461236290919063ffffffff16565b601260008773ffffffffffffffffffffffffffffffffffffffff1673ffffffffffffffffffffffffffffffffffffffff168152602001908152602001600020819055506116048460105461236290919063ffffffff16565b508473ffffffffffffffffffffffffffffffffffffffff168173ffffffffffffffffffffffffffffffffffffffff167fcd384a6f1a58e5f331e7c0f316ec0d7253246d5d9888892fed2184ff3b081f2b601260008973ffffffffffffffffffffffffffffffffffffffff1673ffffffffffffffffffffffffffffffffffffffff168152602001908152602001600020546040518082815260200191505060405180910390a360019250505092915050565b6000600d60009054906101000a900473ffffffffffffffffffffffffffffffffffffffff16905090565b606060078054600181600116156101000203166002900480601f0160208091040260200160405190810160405280929190818152602001828054600181600116156101000203166002900480156117775780601f1061174c57610100808354040283529160200191611777565b820191906000526020600020905b81548152906001019060200180831161175a57829003601f168201915b5050505050905090565b611789611d49565b73ffffffffffffffffffffffffffffffffffffffff168273ffffffffffffffffffffffffffffffffffffffff16141561182a576040517f08c379a00000000000000000000000000000000000000000000000000000000081526004018080602001828103825260198152602001807f4552433732313a20617070726f766520746f2063616c6c65720000000000000081525060200191505060405180910390fd5b8060056000611837611d49565b73ffffffffffffffffffffffffffffffffffffffff1673ffffffffffffffffffffffffffffffffffffffff16815260200190815260200160002060008473ffffffffffffffffffffffffffffffffffffffff1673ffffffffffffffffffffffffffffffffffffffff16815260200190815260200160002060006101000a81548160ff0219169083151502179055508173ffffffffffffffffffffffffffffffffffffffff166118e4611d49565b73ffffffffffffffffffffffffffffffffffffffff167f17307eab39ab6107e8899845ad3d59bd9653f200f220920489ca2b5937696c318360405180821515815260200191505060405180910390a35050565b611948611942611d49565b83611e1f565b61199d576040517f08c379a000000000000000000000000000000000000000000000000000000000815260040180806020018281038252603181526020018061332c6031913960400191505060405180910390fd5b6119a9848484846123ea565b50505050565b60606119ba82611d2c565b611a0f576040517f08c379a000000000000000000000000000000000000000000000000000000000815260040180806020018281038252602f8152602001806132b7602f913960400191505060405180910390fd5b6060600860008481526020019081526020016000208054600181600116156101000203166002900480601f016020809104026020016040519081016040528092919081815260200182805460018160011615610100020316600290048015611ab85780601f10611a8d57610100808354040283529160200191611ab8565b820191906000526020600020905b815481529060010190602001808311611a9b57829003601f168201915b50505050509050600060098054600181600116156101000203166002900490501415611ae75780915050611c93565b600081511115611bc0576009816040516020018083805460018160011615610100020316600290048015611b525780601f10611b30576101008083540402835291820191611b52565b820191906000526020600020905b815481529060010190602001808311611b3e575b505082805190602001908083835b60208310611b835780518252602082019150602081019050602083039250611b60565b6001836020036101000a03801982511681845116808217855250505050505090500192505050604051602081830303815290604052915050611c93565b6009611bcb8461245c565b6040516020018083805460018160011615610100020316600290048015611c295780601f10611c07576101008083540402835291820191611c29565b820191906000526020600020905b815481529060010190602001808311611c15575b505082805190602001908083835b60208310611c5a5780518252602082019150602081019050602083039250611c37565b6001836020036101000a038019825116818451168082178552505050505050905001925050506040516020818303038152906040529150505b919050565b6000600560008473ffffffffffffffffffffffffffffffffffffffff1673ffffffffffffffffffffffffffffffffffffffff16815260200190815260200160002060008373ffffffffffffffffffffffffffffffffffffffff1673ffffffffffffffffffffffffffffffffffffffff16815260200190815260200160002060009054906101000a900460ff16905092915050565b6000611d428260026125a390919063ffffffff16565b9050919050565b600033905090565b816004600083815260200190815260200160002060006101000a81548173ffffffffffffffffffffffffffffffffffffffff021916908373ffffffffffffffffffffffffffffffffffffffff160217905550808273ffffffffffffffffffffffffffffffffffffffff16611dc483610fed565b73ffffffffffffffffffffffffffffffffffffffff167f8c5be1e5ebec7d5bd14f71427d1e84f3dd0314c0f7b2291e5b200ac8c7c3b92560405160405180910390a45050565b6000611e18826000016125bd565b9050919050565b6000611e2a82611d2c565b611e7f576040517f08c379a000000000000000000000000000000000000000000000000000000000815260040180806020018281038252602c815260200180613157602c913960400191505060405180910390fd5b6000611e8a83610fed565b90508073ffffffffffffffffffffffffffffffffffffffff168473ffffffffffffffffffffffffffffffffffffffff161480611ef957508373ffffffffffffffffffffffffffffffffffffffff16611ee184610bdf565b73ffffffffffffffffffffffffffffffffffffffff16145b80611f0a5750611f098185611c98565b5b91505092915050565b8273ffffffffffffffffffffffffffffffffffffffff16611f3382610fed565b73ffffffffffffffffffffffffffffffffffffffff1614611f9f576040517f08c379a000000000000000000000000000000000000000000000000000000000815260040180806020018281038252602981526020018061328e6029913960400191505060405180910390fd5b600073ffffffffffffffffffffffffffffffffffffffff168273ffffffffffffffffffffffffffffffffffffffff161415612025576040517f08c379a00000000000000000000000000000000000000000000000000000000081526004018080602001828103825260248152602001806130d66024913960400191505060405180910390fd5b6120308383836125ce565b61203b600082611d51565b61208c81600160008673ffffffffffffffffffffffffffffffffffffffff1673ffffffffffffffffffffffffffffffffffffffff1681526020019081526020016000206125d390919063ffffffff16565b506120de81600160008573ffffffffffffffffffffffffffffffffffffffff1673ffffffffffffffffffffffffffffffffffffffff1681526020019081526020016000206125ed90919063ffffffff16565b506120f5818360026126079092919063ffffffff16565b50808273ffffffffffffffffffffffffffffffffffffffff168473ffffffffffffffffffffffffffffffffffffffff167fddf252ad1be2c89b69c2b068fc378daa952ba7f163c4a11628f55a4df523b3ef60405160405180910390a4505050565b6000612165836000018361263c565b60001c905092915050565b6000808314156121cb576040517f08c379a000000000000000000000000000000000000000000000000000000000815260040180806020018281038252603881526020018061306c6038913960400191505060405180910390fd5b600073ffffffffffffffffffffffffffffffffffffffff168273ffffffffffffffffffffffffffffffffffffffff16146122455781600d60006101000a81548173ffffffffffffffffffffffffffffffffffffffff021916908373ffffffffffffffffffffffffffffffffffffffff16021790555061228e565b61224d611d49565b600d60006101000a81548173ffffffffffffffffffffffffffffffffffffffff021916908373ffffffffffffffffffffffffffffffffffffffff1602179055505b85600a90805190602001906122a4929190612fac565b5084600b90805190602001906122bb929190612fac565b5082600f819055506122cc846126bf565b6001600d60146101000a81548160ff021916908315150217905550600d60149054906101000a900460ff16905095945050505050565b60008060008061231586600001866126d9565b915091508160001c8160001c9350935050509250929050565b6000612341846000018460001b84612772565b60001c90509392505050565b600061235b82600001612868565b9050919050565b6000808284019050838110156123e0576040517f08c379a000000000000000000000000000000000000000000000000000000000815260040180806020018281038252601b8152602001807f536166654d6174683a206164646974696f6e206f766572666c6f77000000000081525060200191505060405180910390fd5b8091505092915050565b6123f5848484611f13565b61240184848484612879565b612456576040517f08c379a00000000000000000000000000000000000000000000000000000000081526004018080602001828103825260328152602001806130a46032913960400191505060405180910390fd5b50505050565b606060008214156124a4576040518060400160405280600181526020017f3000000000000000000000000000000000000000000000000000000000000000815250905061259e565b600082905060005b600082146124ce578080600101915050600a82816124c657fe5b0491506124ac565b60608167ffffffffffffffff811180156124e757600080fd5b506040519080825280601f01601f19166020018201604052801561251a5781602001600182028036833780820191505090505b50905060006001830390508593505b6000841461259657600a848161253b57fe5b0660300160f81b8282806001900393508151811061255557fe5b60200101907effffffffffffffffffffffffffffffffffffffffffffffffffffffffffffff1916908160001a905350600a848161258e57fe5b049350612529565b819450505050505b919050565b60006125b5836000018360001b612a92565b905092915050565b600081600001805490509050919050565b505050565b60006125e5836000018360001b612ab5565b905092915050565b60006125ff836000018360001b612b9d565b905092915050565b6000612633846000018460001b8473ffffffffffffffffffffffffffffffffffffffff1660001b612c0d565b90509392505050565b60008183600001805490501161269d576040517f08c379a000000000000000000000000000000000000000000000000000000000815260040180806020018281038252602281526020018061304a6022913960400191505060405180910390fd5b8260000182815481106126ac57fe5b9060005260206000200154905092915050565b80600990805190602001906126d5929190612fac565b5050565b6000808284600001805490501161273b576040517f08c379a00000000000000000000000000000000000000000000000000000000081526004018080602001828103825260228152602001806132406022913960400191505060405180910390fd5b600084600001848154811061274c57fe5b906000526020600020906002020190508060000154816001015492509250509250929050565b60008084600101600085815260200190815260200160002054905060008114158390612839576040517f08c379a00000000000000000000000000000000000000000000000000000000081526004018080602001828103825283818151815260200191508051906020019080838360005b838110156127fe5780820151818401526020810190506127e3565b50505050905090810190601f16801561282b5780820380516001836020036101000a031916815260200191505b509250505060405180910390fd5b5084600001600182038154811061284c57fe5b9060005260206000209060020201600101549150509392505050565b600081600001805490509050919050565b600061289a8473ffffffffffffffffffffffffffffffffffffffff16612ce9565b6128a75760019050612a8a565b6060612a1163150b7a0260e01b6128bc611d49565b888787604051602401808573ffffffffffffffffffffffffffffffffffffffff1681526020018473ffffffffffffffffffffffffffffffffffffffff16815260200183815260200180602001828103825283818151815260200191508051906020019080838360005b83811015612940578082015181840152602081019050612925565b50505050905090810190601f16801561296d5780820380516001836020036101000a031916815260200191505b5095505050505050604051602081830303815290604052907bffffffffffffffffffffffffffffffffffffffffffffffffffffffff19166020820180517bffffffffffffffffffffffffffffffffffffffffffffffffffffffff83818316178352505050506040518060600160405280603281526020016130a4603291398773ffffffffffffffffffffffffffffffffffffffff16612cfc9092919063ffffffff16565b90506000818060200190516020811015612a2a57600080fd5b8101908080519060200190929190505050905063150b7a0260e01b7bffffffffffffffffffffffffffffffffffffffffffffffffffffffff1916817bffffffffffffffffffffffffffffffffffffffffffffffffffffffff191614925050505b949350505050565b600080836001016000848152602001908152602001600020541415905092915050565b60008083600101600084815260200190815260200160002054905060008114612b915760006001820390506000600186600001805490500390506000866000018281548110612b0057fe5b9060005260206000200154905080876000018481548110612b1d57fe5b9060005260206000200181905550600183018760010160008381526020019081526020016000208190555086600001805480612b5557fe5b60019003818190600052602060002001600090559055866001016000878152602001908152602001600020600090556001945050505050612b97565b60009150505b92915050565b6000612ba98383612d14565b612c02578260000182908060018154018082558091505060019003906000526020600020016000909190919091505582600001805490508360010160008481526020019081526020016000208190555060019050612c07565b600090505b92915050565b6000808460010160008581526020019081526020016000205490506000811415612cb457846000016040518060400160405280868152602001858152509080600181540180825580915050600190039060005260206000209060020201600090919091909150600082015181600001556020820151816001015550508460000180549050856001016000868152602001908152602001600020819055506001915050612ce2565b82856000016001830381548110612cc757fe5b90600052602060002090600202016001018190555060009150505b9392505050565b600080823b905060008111915050919050565b6060612d0b8484600085612d37565b90509392505050565b600080836001016000848152602001908152602001600020541415905092915050565b606082471015612d92576040517f08c379a00000000000000000000000000000000000000000000000000000000081526004018080602001828103825260268152602001806131316026913960400191505060405180910390fd5b612d9b85612ce9565b612e0d576040517f08c379a000000000000000000000000000000000000000000000000000000000815260040180806020018281038252601d8152602001807f416464726573733a2063616c6c20746f206e6f6e2d636f6e747261637400000081525060200191505060405180910390fd5b600060608673ffffffffffffffffffffffffffffffffffffffff1685876040518082805190602001908083835b60208310612e5d5780518252602082019150602081019050602083039250612e3a565b6001836020036101000a03801982511681845116808217855250505050505090500191505060006040518083038185875af1925050503d8060008114612ebf576040519150601f19603f3d011682016040523d82523d6000602084013e612ec4565b606091505b5091509150612ed4828286612ee0565b92505050949350505050565b60608315612ef057829050612fa5565b600083511115612f035782518084602001fd5b816040517f08c379a00000000000000000000000000000000000000000000000000000000081526004018080602001828103825283818151815260200191508051906020019080838360005b83811015612f6a578082015181840152602081019050612f4f565b50505050905090810190601f168015612f975780820380516001836020036101000a031916815260200191505b509250505060405180910390fd5b9392505050565b828054600181600116156101000203166002900490600052602060002090601f016020900481019282601f10612fed57805160ff191683800117855561301b565b8280016001018555821561301b579182015b8281111561301a578251825591602001919060010190612fff565b5b509050613028919061302c565b5090565b5b8082111561304557600081600090555060010161302d565b509056fe456e756d657261626c655365743a20696e646578206f7574206f6620626f756e64734d617374657244617461546f6b656e3a204d696e20616c6c6f77616e6365206d7573742062652067726561746572207468616e207a65726f4552433732313a207472616e7366657220746f206e6f6e20455243373231526563656976657220696d706c656d656e7465724552433732313a207472616e7366657220746f20746865207a65726f20616464726573734d617374657244617461546f6b656e3a204661696c656420746f207472616e736665722064617461746f6b656e206c6971756964697479416464726573733a20696e73756666696369656e742062616c616e636520666f722063616c6c4552433732313a206f70657261746f7220717565727920666f72206e6f6e6578697374656e7420746f6b656e4552433732313a20617070726f76652063616c6c6572206973206e6f74206f776e6572206e6f7220617070726f76656420666f7220616c6c4552433732313a2062616c616e636520717565727920666f7220746865207a65726f20616464726573734552433732313a206f776e657220717565727920666f72206e6f6e6578697374656e7420746f6b656e4d617374657244617461546f6b656e3a207265636f726473206d7573742062652067726561746572207468616e207a65726f456e756d657261626c654d61703a20696e646578206f7574206f6620626f756e64734552433732313a20617070726f76656420717565727920666f72206e6f6e6578697374656e7420746f6b656e4552433732313a207472616e73666572206f6620746f6b656e2074686174206973206e6f74206f776e4552433732314d657461646174613a2055524920717565727920666f72206e6f6e6578697374656e7420746f6b656e4552433732313a20617070726f76616c20746f2063757272656e74206f776e65724d617374657244617461546f6b656e3a206e6f7420656e6f75676820616c6c6f77616e63654552433732313a207472616e736665722063616c6c6572206973206e6f74206f776e6572206e6f7220617070726f766564a26469706673582212201fd0c334e5d46cd472bf8409e9807fcdfa7a45ab363d18d63353a63991745f2264736f6c634300060c00334d617374657244617461546f6b656e3a204d696e20616c6c6f77616e6365206d7573742062652067726561746572207468616e207a65726f",
  "immutableReferences": {},
  "source": "// SPDX-License-Identifier: MIT\npragma solidity >=0.6.0 <0.7.0;\n\nimport \"@openzeppelin/contracts/math/SafeMath.sol\";\n\nimport \"../erc998/ComposableToken.sol\";\nimport \"../interfaces/ocean/IERC20Template.sol\";\nimport \"../interfaces/IMasterDataToken.sol\";\n\n// contract MasterDataToken is IMasterDataToken, ComposableToken {\n    contract MasterDataToken is ERC721, IMasterDataToken {\n\n    using SafeMath for uint256;\n\n    string  private _name;\n    string  private _symbol;\n    string private _baseURI;\n    address private _owner;\n    bool private _initialized;\n\n    address private _daoAddress;\n    uint256 private _minDatatokenAllowance;\n    uint256 private _totalRecords = 0;\n\n    mapping(address => address[]) internal contributions;\n    mapping(address => uint256) internal tokenToRecords;\n\n    /**\n     * @dev Throws if called by any account other than the owner.\n     */\n    modifier onlyOwner() {\n        require(_owner == _msgSender(), \"MasterDataToken: caller is not the owner\");\n        _;\n    }\n\n    constructor(string memory name,\n                string memory symbol,\n                string memory ipfsMetadata,\n                uint256 minDataTokenAllowance,\n                // address daoAddress) ComposableToken(name, symbol, \"\") public {\n                address daoAddress) ERC721(name, symbol) public {\n\n        _initialize(name, symbol, ipfsMetadata, minDataTokenAllowance, daoAddress);\n\n    }\n\n    function initialize(string calldata name,\n                        string calldata symbol,\n                        string calldata ipfsMetadata,\n                        uint256 minDatatokenAllowance,\n                        address daoAddress) external override returns (bool) {\n        return _initialize(name, symbol, ipfsMetadata, minDatatokenAllowance, daoAddress);\n    }\n\n    function _initialize(string memory name,\n                        string memory symbol,\n                        string memory ipfsMetadata,\n                        uint256 minDatatokenAllowance,\n                        address daoAddress) private returns (bool) {\n\n        require(minDatatokenAllowance != 0, \"MasterDataToken: Min allowance must be greater than zero\");\n\n        if (address(daoAddress) != address(0)) {\n            _owner = daoAddress;\n        } else {\n            _owner = _msgSender();\n        }\n\n        _name = name;\n        _symbol = symbol;\n        _minDatatokenAllowance = minDatatokenAllowance;\n        _setBaseURI(ipfsMetadata);\n        _initialized = true;\n        return _initialized;\n    }\n\n    function contribute(address _datatoken, uint256 _records) external override returns (bool) {\n        require(_records > 0, \"MasterDataToken: records must be greater than zero\");\n        IERC20Template dataToken = IERC20Template(_datatoken);\n        address tokenOwner = dataToken.minter();\n\n        require(dataToken.allowance(tokenOwner, address(this)) >= _minDatatokenAllowance,\n                \"MasterDataToken: not enough allowance\");\n        require(dataToken.transferFrom(tokenOwner, address(this), _minDatatokenAllowance),\n                \"MasterDataToken: Failed to transfer datatoken liquidity\");\n\n        contributions[tokenOwner].push(_datatoken);\n        tokenToRecords[_datatoken] = tokenToRecords[_datatoken].add(_records);\n        _totalRecords.add(_records);\n\n        emit ContributionAdded(tokenOwner, _datatoken, tokenToRecords[_datatoken]);\n\n        return true;\n    }\n\n    /**\n     * @dev Returns the address of the current owner.\n     */\n    function owner() public view returns (address) {\n        return _owner;\n    }\n\n    function isInitialized() external view override returns(bool) {\n        return _initialized;\n    }\n\n    function totalRecords() external view override returns (uint256) {\n        return _totalRecords;\n    }\n}",
  "sourcePath": "/Users/santteegt/dataDAO/datadao/src/frontend/contracts/templates/MasterDataToken.sol",
  "compiler": {
    "name": "solc",
    "version": "0.6.12+commit.27d51765.Emscripten.clang"
  },
  "schemaVersion": "3.2.4",
  "updatedAt": "2021-01-10T19:42:12.042Z",
  "devdoc": {
    "kind": "dev",
    "methods": {
      "approve(address,uint256)": {
        "details": "See {IERC721-approve}."
      },
      "balanceOf(address)": {
        "details": "See {IERC721-balanceOf}."
      },
      "baseURI()": {
        "details": "Returns the base URI set via {_setBaseURI}. This will be automatically added as a prefix in {tokenURI} to each token's URI, or to the token ID if no specific URI is set for that token ID."
      },
      "getApproved(uint256)": {
        "details": "See {IERC721-getApproved}."
      },
      "isApprovedForAll(address,address)": {
        "details": "See {IERC721-isApprovedForAll}."
      },
      "name()": {
        "details": "See {IERC721Metadata-name}."
      },
      "owner()": {
        "details": "Returns the address of the current owner."
      },
      "ownerOf(uint256)": {
        "details": "See {IERC721-ownerOf}."
      },
      "safeTransferFrom(address,address,uint256)": {
        "details": "See {IERC721-safeTransferFrom}."
      },
      "safeTransferFrom(address,address,uint256,bytes)": {
        "details": "See {IERC721-safeTransferFrom}."
      },
      "setApprovalForAll(address,bool)": {
        "details": "See {IERC721-setApprovalForAll}."
      },
      "supportsInterface(bytes4)": {
        "details": "See {IERC165-supportsInterface}. Time complexity O(1), guaranteed to always use less than 30 000 gas."
      },
      "symbol()": {
        "details": "See {IERC721Metadata-symbol}."
      },
      "tokenByIndex(uint256)": {
        "details": "See {IERC721Enumerable-tokenByIndex}."
      },
      "tokenOfOwnerByIndex(address,uint256)": {
        "details": "See {IERC721Enumerable-tokenOfOwnerByIndex}."
      },
      "tokenURI(uint256)": {
        "details": "See {IERC721Metadata-tokenURI}."
      },
      "totalSupply()": {
        "details": "See {IERC721Enumerable-totalSupply}."
      },
      "transferFrom(address,address,uint256)": {
        "details": "See {IERC721-transferFrom}."
      }
    },
    "version": 1
  },
  "userdoc": {
    "kind": "user",
    "methods": {},
    "version": 1
  }
}