{
  "contractName": "TestContract",
  "abi": [
    {
      "inputs": [],
      "stateMutability": "nonpayable",
      "type": "constructor"
    },
    {
      "inputs": [
        {
          "internalType": "uint256",
          "name": "",
          "type": "uint256"
        }
      ],
      "name": "example",
      "outputs": [
        {
          "internalType": "address payable",
          "name": "",
          "type": "address"
        }
      ],
      "stateMutability": "view",
      "type": "function",
      "constant": true
    },
    {
      "inputs": [],
      "name": "manager",
      "outputs": [
        {
          "internalType": "address",
          "name": "",
          "type": "address"
        }
      ],
      "stateMutability": "view",
      "type": "function",
      "constant": true
    },
    {
      "inputs": [
        {
          "internalType": "address payable",
          "name": "_exampleAddress",
          "type": "address"
        }
      ],
      "name": "newStorage",
      "outputs": [],
      "stateMutability": "nonpayable",
      "type": "function"
    },
    {
      "inputs": [],
      "name": "getexample",
      "outputs": [
        {
          "internalType": "address payable[]",
          "name": "",
          "type": "address[]"
        }
      ],
      "stateMutability": "view",
      "type": "function",
      "constant": true
    },
    {
      "inputs": [
        {
          "internalType": "uint256",
          "name": "_exampleIndex",
          "type": "uint256"
        }
      ],
      "name": "deleteStorage",
      "outputs": [],
      "stateMutability": "nonpayable",
      "type": "function"
    }
  ],
  "bytecode": "0x608060405234801561001057600080fd5b50336000806101000a81548173ffffffffffffffffffffffffffffffffffffffff021916908373ffffffffffffffffffffffffffffffffffffffff16021790555061046f806100606000396000f3fe608060405234801561001057600080fd5b50600436106100575760003560e01c80630f7216b61461005c578063477e4a02146100bb578063481c6a75146101295780638ff9b84e14610173578063ce0ce685146101b7575b600080fd5b6100646101e5565b6040518080602001828103825283818151815260200191508051906020019060200280838360005b838110156100a757808201518184015260208101905061008c565b505050509050019250505060405180910390f35b6100e7600480360360208110156100d157600080fd5b8101908080359060200190929190505050610273565b604051808273ffffffffffffffffffffffffffffffffffffffff1673ffffffffffffffffffffffffffffffffffffffff16815260200191505060405180910390f35b6101316102af565b604051808273ffffffffffffffffffffffffffffffffffffffff1673ffffffffffffffffffffffffffffffffffffffff16815260200191505060405180910390f35b6101b56004803603602081101561018957600080fd5b81019080803573ffffffffffffffffffffffffffffffffffffffff1690602001909291905050506102d4565b005b6101e3600480360360208110156101cd57600080fd5b810190808035906020019092919050505061033a565b005b6060600180548060200260200160405190810160405280929190818152602001828054801561026957602002820191906000526020600020905b8160009054906101000a900473ffffffffffffffffffffffffffffffffffffffff1673ffffffffffffffffffffffffffffffffffffffff168152602001906001019080831161021f575b5050505050905090565b6001818154811061028057fe5b906000526020600020016000915054906101000a900473ffffffffffffffffffffffffffffffffffffffff1681565b6000809054906101000a900473ffffffffffffffffffffffffffffffffffffffff1681565b6001819080600181540180825580915050600190039060005260206000200160009091909190916101000a81548173ffffffffffffffffffffffffffffffffffffffff021916908373ffffffffffffffffffffffffffffffffffffffff16021790555050565b6000809054906101000a900473ffffffffffffffffffffffffffffffffffffffff1673ffffffffffffffffffffffffffffffffffffffff163373ffffffffffffffffffffffffffffffffffffffff16146103fc576040517f08c379a00000000000000000000000000000000000000000000000000000000081526004018080602001828103825260168152602001807f596f7520617265206e6f7420617574686f72697a65640000000000000000000081525060200191505060405180910390fd5b6001818154811061040957fe5b9060005260206000200160006101000a81549073ffffffffffffffffffffffffffffffffffffffff02191690555056fea26469706673582212202f436bd90de41459241902f16fd68bf25cd2a85ca098dfbda19911accfe4f86a64736f6c63430006000033",
  "source": "pragma solidity 0.6.0;\n\ncontract TestContract {\n    address public manager;\n    address payable[] public example;\n\n    constructor() public {\n        manager = msg.sender;\n    }\n\n    function newStorage(address payable _exampleAddress) public {\n        example.push(_exampleAddress);\n    }\n\n    function getexample() public view returns (address payable[] memory) {\n        return example;\n    }\n\n    function deleteStorage(uint256 _exampleIndex) public {\n        require(msg.sender == manager, 'You are not authorized');\n        delete example[_exampleIndex];\n    }\n}\n",
  "sourcePath": "/Users/lol/apps/fun/datadao.io/src/frontend/contracts/TestContract.sol",
  "compiler": {
    "name": "solc",
    "version": "0.6.0+commit.26b70077.Emscripten.clang"
  },
  "schemaVersion": "3.3.3",
  "updatedAt": "2020-12-21T14:20:06.907Z",
  "networkType": "ethereum",
  "devdoc": {
    "methods": {}
  },
  "userdoc": {
    "methods": {}
  }
}